:100000000C9498020C94B9020C94B9020C94B902A5
:100010000C94B9020C94B9020C9423110C94C312E1
:100020000C94B9020C94B9020C94B9020C94B90264
:100030000C94B9020C94B9020C94B9020C94B90254
:100040000C94B9020C94B9020C94B9020C94B90244
:100050000C94B9020C94B9020C94B9020C94B90234
:100060000C94B9020C9443170C94B9020C94B90285
:100070000C9470170C94B9020C94B9020C94B90248
:100080000C94B9020C94B9020C94B9020C94B90204
:100090000C94B9020C94B9020C94B9020C94B902F4
:1000A0000C94B9020C94B9020C94B9020C94B902E4
:1000B0000C94B9020C94B9020C94B9020C94B902D4
:1000C0000C94B9020C94B9020C94B9020C94B902C4
:1000D0000C94B9020C94B9020C94B9020C94B902B4
:1000E0000C94B9020C94B9020C94F7170C94B90251
:1000F0000C94B9020C9424180C94B9020C94B90213
:100100000C94B9020C94B9020C94B9020C94B90283
:100110000C94B9020C94B9020C94B9020C94B90273
:100120000C94B9020C94B9020C94B9020C94B90263
:100130000C94B9020C94B9020C94B9020C94B90253
:100140000C94B9020C94B9020C94B9020C94B90243
:100150000C94B9020C94B9020C94B9020C94B90233
:100160000C949D170C94B9020C94B9020C94CA1704
:100170000C94B9020C94B9020C94B9020C94B90213
:100180000C94B9020C94B9020C94B9020C94B90203
:100190000C94B9020C94B9020C94B9020C94B902F3
:1001A0000C94B9020C94B9020C94B9020C94B902E3
:1001B0000C94B9020C94B9020C94B9020C94B902D3
:1001C0000C94B9020C94B9020C94B9020C94B902C3
:1001D0000C94B9020C94B9020C94B9020C94511805
:1001E0000C94B9020C94B9020C94B9020C94B902A3
:1001F0000C94B9020C947E060C94F7050C94DE085E
:100200000C94580A0C94CB0A0C94D2160C94D0146B
:100210000C9407030C9482080C94BB020C94841475
:100220000C943A090C9471140C9469100C94971462
:100230000C9429030C9402030C94F2020C945E14A7
:100240000C9403030C94F4020C94AA140C94BD14A3
:100250006E616E00696E660000407A10F35A00A06D
:10026000724E18090010A5D4E80000E8764817007F
:1002700000E40B54020000CA9A3B000000E1F505BF
:10028000000080969800000040420F000000A08609
:1002900001000000102700000000E803000000003B
:1002A0006400000000000A000000000001000000DF
:1002B00000002C76D888DC674F0823DFC1DFAE59F9
:1002C000E1B1B796E5E3E453C63AE651997696E88C
:1002D000E6C28426EB898C9B62ED407C6FFCEFBC10
:1002E0009C9F40F2BAA56FA5F490055A2AF75C933B
:1002F0006B6CF9676DC11BFCE0E40D47FEF520E671
:10030000B500D0ED902E0300943577050080841E53
:10031000080000204E0A000000C80C333333330FAE
:10032000986E12831141EF8D2114893BE65516CF4B
:10033000FEE6DB18D1844B381BF77C1D901DA4BB57
:10034000E424203284725E228100C9F124ECA1E50C
:100350003D27506572666F726D65642072657365C6
:10036000740A007374616C6C0A006F660A0042754F
:10037000736576656E742000496E76616C696420E1
:1003800065703A2025642C206D61783A2025640A36
:1003900000496E76616C69642065703A2025642C92
:1003A000206D61783A2025640A004164647200552A
:1003B0006E6B6E6F776E00536574436F6E66696720
:1003C0000A00476574636F6E6669670A0067657443
:1003D00044657363726970746F723A202564207388
:1003E000697A653A2025640A005365744164647231
:1003F0006573733A2025640A005365744665617419
:1004000075726500676574207374617475730A0092
:100410006765745374617475730053657474696EA1
:100420006720616464722025640A0020034100751E
:1004300000640069006F00200041006D0070006CD6
:100440000069006600690065007200000010034D3D
:100450000061007300740065007200510000000428
:100460000309040902700002010080FA0904000077
:10047000000101000009240100011E0001010C24FB
:10048000020101010002030000000924030201032C
:10049000000100090401000001020000090401013B
:1004A00001010200000724010101010017240201DB
:1004B00002021005401F00112B0022560044AC0020
:1004C00080BB000905010D000101000007250101A5
:1004D000000000120100020000004099993713004B
:1004E00001010200015553415254204E6F742061A6
:1004F0007661696C61626C65206F72206E6F74202A
:1005000070726F76696465640A00555341525420D5
:100510004E6F7420617661696C61626C65206F72E8
:10052000206E6F742070726F76696465640A0000D3
:1005300011241FBECFEFCDBFDFE5DEBF00E00CBF53
:1005400012E2A0E0B0E2EEE0F1E400E00BBF02C096
:1005500007900D92AA3AB107D9F724E3AAEAB2E2CA
:1005600001C01D92A331B207E1F70E9441190C941A
:1005700085200C940000A2ECB2E21196EC91119748
:1005800091E09E0F11969C93F0E0EE53FD4D828317
:1005900080E090E0089510C0E091AA22F091AB2293
:1005A000A091C22281E08A0F8093C222B0E0AE53B4
:1005B000BD4D12968C9119959091C2228091C322C3
:1005C0009813EACF089520E030E220930F3430935F
:1005D00010348093AA229093AB22E2ECF2E21182D3
:1005E0001082089580E00895E0E1F0E280858D7941
:1005F00080878091C4239091C5238093F8209093A5
:10060000F920089508958BE791E20C94D71F80910B
:1006100002218F77E0ECF4E083838091C7239091EF
:10062000C8238093FA209093FB208FEA93E0809375
:100630000E2090930F2083811F928F938CE891E27C
:100640009F938F930E949B1F0F900F900F900F907E
:100650000895089522E02093CA01EAE1F0E0E491D0
:10066000E093FA042093CA01EBE1F0E0E491E09317
:10067000FB041092CA016115710509F469C0009765
:1006800009F44FC060930B2170930C2180930921D2
:1006900090930A2182E48093C80483E08093C90484
:1006A0008091FE209091FF20892BF1F18091FC2018
:1006B0009091FD20892B09F444C088E190E2809359
:1006C000C6049093C7041092C3041092182083E4C8
:1006D0008093192088EB90E280931C2090931D203A
:1006E00082E08093202083E68093212088E390E2BB
:1006F000809324209093252082E093E08093FA2039
:100700009093FB2089E293E08093F8209093F92066
:1007100081EE8093C0048091C10481608093C10404
:10072000089582EF92E0AECF83E093E08093FE20C5
:100730009093FF208091FC209091FD20892B09F05F
:10074000BCCF83E093E08093FC209093FD20B5CF55
:1007500062EF72E094CFE8EFF0E2808191818093C4
:10076000C4239093C52384EF92E08083918385E92D
:1007700091E20C94D71F0F938AEA93E080930E20A6
:1007800090930F20E0E1F0E280858D78808780856E
:100790008160808780898160808BAAEFB0E28D9133
:1007A0009C9111978093C7239093C82387E093E08F
:1007B0008D939C93168A178A80E090E8828B938BA6
:1007C000E0E2F0E202E606930F910895E0E1F0E244
:1007D00080858D7880878085816080878089816031
:1007E000808B0895E0E1F0E280858D79808708951F
:1007F000A0ECB4E088E190E216968D939C93179755
:1008000013961C921397E0E1F0E2108683E481874F
:1008100088EB90E28487958782E0808B83E6818BEA
:1008200088E390E2848B958B82E093E08093FA20BA
:100830009093FB2089E293E08093F8209093F92035
:1008400081EE8C9311968C911197816011968C9307
:100850000895CF92DF92EF92FF920F931F93823011
:1008600008F072C0E114F10409F494C0C114D10479
:1008700009F495C090E0FC01E295F295F07FFE2727
:10088000E07FFE27DF01A05FBF4D1C964D935C9378
:100890001D970930110598F519962C93199732E098
:1008A00018963C93189754966D937C935597E05FF8
:1008B000FF4D218BFC01E295F295F07FFE27E07F52
:1008C000FE27E05EFF4D22E02083FC01EE0FFF1FBC
:1008D000EE0FFF1FE650FF4DE082F182880F991F57
:1008E000880F991FFC01E850FF4DC082D18281E042
:1008F0001F910F91FF90EF90DF90CF9008950131FD
:100900001105D8F10132110508F44EC0013411056A
:1009100008F457C00138110508F460C0013031E017
:10092000130708F468C00130124008F066C0266062
:1009300019962C93199732E018963C931897549671
:100940006D937C935597B3CF1F9292E09F931F9224
:100950008F9381E993E09F938F930E94AF1F0F9035
:100960000F900F900F900F900F9080E01F910F91BC
:10097000FF90EF90DF90CF900895216019962C930F
:10098000199732E018963C93189754966D937C9380
:1009900055978DCF93E0E92E93E0F92E67CFB3E022
:1009A000CB2EB3E0DB2E66CF226019962C931997DD
:1009B00032E018963C93189754966D937C93559714
:1009C00076CF236019962C93199732E018963C93B2
:1009D000189754966D937C93559769CF2460199618
:1009E0002C93199732E018963C93189754966D9370
:1009F0007C9355975CCF25604FCF276019962C9339
:100A0000199732E018963C93189754966D937C93FF
:100A100055974DCFEF92FF920F931F93823008F0BE
:100A200067C0E114F10409F482C00115110509F44D
:100A300083C090E0FC01EE0FFF1FEE0FFF1FE6509A
:100A4000FF4DE082F182FC01EE0FFF1FEE0FFF1F52
:100A5000E850FF4D00831183DC01A295B295B07F71
:100A6000BA27A07FBA27FD01E05FFF4D6487758735
:100A70001286138629303105D8F420EF218710869D
:100A8000448B558B128A138AA05FBF4D51962C93CD
:100A900082959295907F9827807F9827FC01E05E51
:100AA000FF4D108281E01F910F91FF90EF9008950C
:100AB00021313105A0F12132310508F440C0213443
:100AC000310508F444C02138310508F448C021300C
:100AD00061E0360708F44BC02130324008F04FC0C7
:100AE00026EF21871086448B558B128A138ACCCF30
:100AF0001F9292E09F931F928F9388E793E09F93BA
:100B00008F930E94AF1F0F900F900F900F900F9038
:100B10000F9080E01F910F91FF90EF90089521EFCB
:100B200021871086448B558B128A138AADCF93E0B0
:100B3000E92E93E0F92E79CF03E013E07ACF22EF8C
:100B400021871086448B558B128A138A9DCF23EF01
:100B500021871086448B558B128A138A95CF24EFF8
:100B600021871086448B558B128A138A8DCF25EFEF
:100B700021871086448B558B128A138A85CF27EFE5
:100B800021871086448B558B128A138A7DCF0F9351
:100B9000E0E1F0E2168A178A90E09068828B938BEE
:100BA000E0E2F0E202E606930F9108950F93E8E188
:100BB000F0E202E706930F9108950F93E0E1F0E26F
:100BC00081858460818781898460818BE8E1F0E29E
:100BD00000E606930F910895AB011092CA01BC0183
:100BE00088E390E20E94F51E88E390E208951F9248
:100BF0000F920FB60F9211240BB60F920F931F9303
:100C00002F933F934F935F936F937F938F939F9314
:100C1000AF93BF93CF93DF93EF93FF938091CC0477
:100C200081FF3CC0E091C5048091C6049091C70447
:100C3000EE0FFF0BE80FF91F008111818091C604B0
:100C40009091C704E801C81BD90BD695C795D695D6
:100C5000C795D695C795C43008F047C0DD27CC0F9F
:100C6000DD1FC850DF4DE881F981C8011995FF915A
:100C7000EF91DF91CF91BF91AF919F918F917F9134
:100C80006F915F914F913F912F911F910F910F9015
:100C90000BBE0F900FBE0F901F9018958091CC0443
:100CA00080FFE5CF81E08093CC04C8E1D0E2FE0173
:100CB00000E3069388E0E8EBF0E2A0E0B1E2019007
:100CC0000D928A95E1F70E9441078111D0CF809162
:100CD0001920846080931920809121208460809362
:100CE0002120FE0100E60693C2CF82EA91E29F93A3
:100CF0008F930E949B1F0F900F90B0CF1F920F9267
:100D00000FB60F9211240BB60F922F933F934F9370
:100D10005F936F937F938F939F93AF93BF93EF9363
:100D2000FF938EE693E09F938F930E94AF1F809175
:100D3000CA040F900F9087FD7FC08091CA048E7007
:100D400009F05FC08091CA0480FD6AC080E780938B
:100D5000CA048091C20480FD13C0FF91EF91BF913E
:100D6000AF919F918F917F916F915F914F913F9143
:100D70002F910F900BBE0F900FBE0F901F901895E4
:100D80008091C2048E7F8093C20488E190E28093B8
:100D9000C6049093C7041092C3041092182083E4F1
:100DA0008093192088EB90E280931C2090931D2063
:100DB00082E08093202083E68093212088E390E2E4
:100DC000809324209093252082E093E08093FA2062
:100DD0009093FB2089E293E08093F8209093F92090
:100DE00081EE8093C0048091C10481608093C1042E
:100DF00082E593E09F938F930E94AF1F0F900F9017
:100E0000ACCF8EE08093CA048AE693E09F938F93E1
:100E10000E94AF1F0F900F908091CA0480FF96CF61
:100E200081E08093CA0483E693E09F938F930E94AE
:100E3000AF1F0F900F9091CF80E88093CA047DCFB1
:100E4000809100218076D9F480910121853011F0C4
:100E500081E00895809102218F778093C30480916F
:100E6000C3041F928F938AE194E09F938F930E9413
:100E7000AF1F0F900F900F900F9081E0089580E0CA
:100E80000895FF920F931F93CF93DF931F921F92AA
:100E9000CDB7DEB780910021807609F065C08091E2
:100EA0000121853009F493C008F442C0883009F468
:100EB000A9C0893009F465C0863009F055C0609139
:100EC0000221F090032119821A82AE014F5F5F4F19
:100ED0008F2D0E944008009709F4C2C069817A8171
:100EE0006115710509F4BCC02091062130910721DC
:100EF0008C012817390708F49FC080E2683378070F
:100F000029F0A80188E390E20E94091F802F0E9427
:100F1000C7050E94E6030138110508F08FC081E083
:100F20000F900F90DF91CF911F910F91FF90089537
:100F3000813091F178F5109238201092392080E1BB
:100F400094E080930E2090930F200E94E60382E0AD
:100F50000E94C70584E094E09F938F930E94AF1F87
:100F60000F900F9081E0DCCFE0910921F0910A21F0
:100F700019950F900F90DF91CF911F910F91FF90D6
:100F800008958091022190910321019709F46CC08A
:100F900080E0EFCF833041F789EF93E080930E201C
:100FA00090930F200E94E60380910F208F938091F1
:100FB0000E208F930E94AF1F0F900F9081E00F9033
:100FC0000F90DF91CF911F910F91FF9008950E9494
:100FD000BB03809103218F93809102218F9389EE2F
:100FE00093E09F938F930E94AF1F0F900F900F90ED
:100FF0000F9081E00F900F90DF91CF911F910F9193
:10100000FF90089582EC93E09F938F930E94AF1F0F
:1010100080910821809338200E94E60381E00E949D
:10102000C7050F900F9081E00F900F90DF91CF9147
:101030001F910F91FF90089589015FCF1F930F9328
:101040001F92FF928DEC93E09F938F930E94AF1FAE
:101050000F900F900F900F900F900F9081E060CF46
:101060000E94DD0581E05CCF80E00E94C705809191
:101070000221809308210E94D60587EB93E06CCF74
:101080000F931F93CF93DF938A01823039F183301E
:10109000B9F0813081F0C0E0D0E080E090E0BE01A6
:1010A0000E94EC05F80180839183CE01DF91CF91FE
:1010B0001F910F910895C2E1D0E083ED94E0EFCF4E
:1010C000633088F4E62FF0E0EE0FFF1FEB58FE4D83
:1010D00080819181FC01C491D0E0E1CFC0E7D0E0F4
:1010E00083E694E0DCCF80E090E0F4CF089591E0D7
:1010F000823008F090E0892F0895089508950895AA
:1011000080E0089540913220509133206091F8336F
:101110006D5F6F70262F30E08091FA3390E001967A
:101120008F7099272817390769F18091FD3390E076
:10113000FC01EE0FFF1F982F8827E80FF91FE753D8
:10114000FB4D408351836093FD338091F8338F5F73
:101150008F708093F833C901880F991F322F22278F
:10116000280F391F27533C4D2093342030933520CE
:101170001092322010923320809128208978809319
:10118000282008958091FA331F928F931F926F93B6
:1011900080EC91E29F938F930E949B1F10923220CC
:1011A00010923320809128208978809328200F90F6
:1011B0000F900F900F900F900F90089540912A205C
:1011C00050912B206091F8336D5F6F70262F30E0C7
:1011D0008091FA3390E001968F709927281739078C
:1011E00069F18091FE3390E0FC01EE0FFF1F982F14
:1011F0008827E80FF91FE753FB4D40835183609325
:10120000FE338091F8338F5F8F708093F833C9017C
:10121000880F991F322F2227280F391F27533C4D43
:1012200020932C2030932D2010922A2010922B20D6
:101230008091282089788093282008958091FA331E
:101240001F928F931F926F9386ED91E29F938F93DE
:101250000E949B1F10922A2010922B208091282000
:101260008978809328200F900F900F900F900F9007
:101270000F9008952F923F924F925F926F927F92BC
:101280008F929F92AF92BF92CF92DF92EF92FF9296
:101290000F931F93CF93DF93CDB7DEB72E97CDBFBC
:1012A000DEBFFC01228133811282138280912820CB
:1012B00089788093282020902009309021098091FE
:1012C000E9339091EA33803AFFE09F07E0F54091DF
:1012D000BE225091BF2201968093E9339093EA3366
:1012E000811502E0900708F448C04101841A950A6C
:1012F0004091BA225091BB226091BC227091BD22D4
:10130000480D511D611D711D4093BA225093BB229F
:101310006093BC227093BD224090B6225090B722B9
:101320006090B8227090B922420E531E611C711C4D
:101330004092B6225092B7226092B8227092B9229F
:10134000803A9F4059F12092BE223092BF222E96C1
:10135000CDBFDEBFDF91CF911F910F91FF90EF9036
:10136000DF90CF90BF90AF909F908F907F906F90C5
:101370005F904F903F902F9008951092BA22109254
:10138000BB221092BC221092BD221092B622109263
:10139000B7221092B8221092B922D5CFCB01BA0150
:1013A0002AE0660F771F881F991F2A95D1F7209191
:1013B000F0333091F1334091F2335091F333298778
:1013C0003A874B875C870E94561DEEEDF8E0E0936C
:1013D000FC20F093FD20E2E8F8E0E093FE20F0939B
:1013E000FF2063015201D694C794B794A794760165
:1013F000650156016701E12CF12C8701A982BA82AF
:10140000CB82DC82ED82FE820F831887E12CF12CE7
:1014100000E010E00E94831D152F6901E42EF52ED7
:10142000C092EC33D092ED33E092EE33F092EF3392
:10143000C701B60129853A854B855C850E94341D1C
:10144000215031092093F4333093F5331092F63361
:101450001092F73381E08093EB33D701C601975F99
:10146000A24CBF4FBC01CD01660F771F881F991F8B
:1014700020E034E244EF50E00E94341D2150310955
:101480002093A6083093A70899249F928F927F9269
:101490006F925F924F921F93EF92DF92CF928CEEFA
:1014A00091E29F938F930E949B1FCDBFDEBF4BCFD6
:1014B0000F931F93CF93DF93EC018A819B819F93BE
:1014C0008F9386E092E29F938F930E949B1F8A8165
:1014D0009B810F900F900F900F90039729F0DF9151
:1014E000CF911F910F9108952091BA208091B9203A
:1014F00090E0A0E0B0E0BA2FA92F982F8827A22B68
:101500002091B820822B8093F0339093F133A093F5
:10151000F233B093F3330E94E603C091F033D091DD
:10152000F1331091F2330091F3336091EC33709109
:10153000ED338091EE339091EF339E01412F502F88
:101540000E94341D215031092093F4333093F53338
:101550008091F4339091F5339F938F930F931F9362
:10156000DF93CF9382E192E29F938F930E949B1F20
:101570008091F4339091F533809336089093370837
:101580008DB79EB708968DBF9EBFDF91CF911F91FB
:101590000F910C94E6032F923F924F925F926F92BD
:1015A0007F928F929F92AF92BF92CF92DF92EF92F3
:1015B000FF920F931F93CF93DF93CDB7DEB72E9794
:1015C000CDBFDEBFFC012281338112821382809164
:1015D00028208978809328202090200930902109A4
:1015E0008091E9339091EA33803AFFE09F07E0F57C
:1015F0004091B4225091B52201968093E9339093A3
:10160000EA33811502E0900708F448C04101841ACA
:10161000950A4091BA225091BB226091BC227091F0
:10162000BD22480D511D611D711D4093BA2250937A
:10163000BB226093BC227093BD224090B622509092
:10164000B7226090B8227090B922420E531E611CDE
:10165000711C4092B6225092B7226092B8227092CA
:10166000B922803A9F4059F12092B4223092B5229B
:101670002E96CDBFDEBFDF91CF911F910F91FF90CE
:10168000EF90DF90CF90BF90AF909F908F907F9022
:101690006F905F904F903F902F9008951092BA22D4
:1016A0001092BB221092BC221092BD221092B62240
:1016B0001092B7221092B8221092B922D5CFCB0146
:1016C000BA012AE0660F771F881F991F2A95D1F764
:1016D0002091F0333091F1334091F2335091F33354
:1016E00029873A874B875C870E94561DEEEDF8E00C
:1016F000E093FC20F093FD20E2E8F8E0E093FE2088
:10170000F093FF2063015201D694C794B794A79435
:101710007601650156016701E12CF12C8701A98250
:10172000BA82CB82DC82ED82FE820F831887E12CA5
:10173000F12C00E010E00E94831D152F6901E42EBA
:10174000F52EC092EC33D092ED33E092EE33F0926E
:10175000EF33C701B60129853A854B855C850E9428
:10176000341D215031092093F4333093F533109216
:10177000F6331092F73381E08093EB33D701C60143
:10178000975FA24CBF4FBC01CD01660F771F881F2A
:10179000991F20E034E244EF50E00E94341D2150B4
:1017A00031092093A6083093A70899249F928F921D
:1017B0007F926F925F924F921F93EF92DF92CF9240
:1017C0008CEE91E29F938F930E949B1FCDBFDEBF53
:1017D0004BCF86E292E29F938F930E949B1F0F90C4
:1017E0000F90089586E292E29F938F930E949B1F31
:1017F0000F900F900895E0E8F1E080EC8083108670
:10180000E0E2F3E08CE0808380E4818381E0828306
:101810009081916090838383E0E0F8E0808310A260
:1018200011A228EB3BE026A337A316821182E0E049
:10183000F1E094E8908326E2208B92E3918B20A341
:1018400091A3838B83A398E3948F83E0858F168E77
:10185000128E94A785A716A612A680E490E0848B2A
:10186000958B168A84A395A316A289ED828B82A3F9
:101870000895EF92FF920F931F931092E933109205
:10188000EA338FE08093F8338093F9338093FA330F
:101890001092FC331092F6331092F7331092FE330D
:1018A00081E08093FD338091EB3381116FC08BEC2D
:1018B000E82E8AE0F82E0AE319E020E031E04BEC54
:1018C00054E269EC73E281E00E940A0580EC8093A7
:1018D0008001109288018CE08093200380E4809343
:1018E000210381E0809322039091200391609093E3
:1018F0002003809323038093000810922008109205
:10190000210828EB3BE0209326083093270810920B
:1019100006081092010894E89093000126E22093B3
:10192000100192E3909311012093200190932101E3
:10193000809313018093230198E390931C0183E02B
:1019400080931D0110921E0110921A0190932C0198
:1019500080932D0110922E0110922A0180E490E0D4
:101960008093140190931501109216018093240125
:10197000909325011092260189ED809312018093A6
:1019800022011F910F91FF90EF90089592E8E92EA8
:1019900098E0F92E0EED18E090CFE9ECF4E2108219
:1019A00011821082118210821182108211821082A3
:1019B0001182108211821082118210821182108293
:1019C0001182108211821082118210821182108283
:1019D000118210821182108211821082118280E89D
:1019E0009BEBA0E0B0E08093F0339093F133A093B1
:1019F000F233B093F3331092EB3380E098E4A8EE27
:101A0000B1E08093EC339093ED33A093EE33B09339
:101A1000EF3389E992E08093F4339093F5330E9499
:101A2000390CE0E0F9E010A211A28FEF9FEF86A33E
:101A300097A387E080831182168208958F929F92E8
:101A4000AF92BF92CF92DF92EF92FF920F931F93CC
:101A5000CF93DF938091FC33882309F43FC09091AA
:101A6000100180912001892B87FD0BC08091F933F3
:101A70002091FA3390E0821B91098F709927089783
:101A8000D4F59091F9338091F833981739F140915A
:101A9000F9334F5F4F70842F90E0FC01EE0FFF1F72
:101AA000982F8827E80FF91FDF01A753BB4D8D91B1
:101AB0009C911197892B81F0E653FC4D21E030E099
:101AC0008081805880832E5F3F4F8D919C9111972C
:101AD000329682179307A0F74093F933DF91CF91A5
:101AE0001F910F91FF90EF90DF90CF90BF90AF903C
:101AF0009F908F9008958091FA338F5F8F70C82FD9
:101B0000D0E08E01000F111FDC2FCC2798012C0F85
:101B10003D1F27533C4DF901F3954081518140937E
:101B200014015093150120931801309319019091DD
:101B300011019061909311019091F833891B8F707E
:101B40002091F6333091F733232B09F44AC12091C9
:101B50000F214091F6335091F7334093AC225093CC
:101B6000AD2298EF980F92170CF465C120910E21C9
:101B700029170CF466C19F3F0CF466C192307CF0CB
:101B800089504091F6335091F7332091122182020F
:101B9000400D511D11244093AC225093AD2294303E
:101BA00084F0892F990F990B05976FE0689F90013A
:101BB000699F300D1124420F531F4093AC22509364
:101BC000AD2240933608509337082091AE223091D1
:101BD000AF222F5F3F4F2093AE223093AF22C090B1
:101BE000B022D090B122E090B222F090B322C40E85
:101BF000D51EE11CF11CC092B022D092B122E0921D
:101C0000B222F092B32280911021909111212817D5
:101C1000390709F4DFC18091FA338E5F8F70C82FC6
:101C2000D0E08E01000F111FDC2FCC27A8014C0F34
:101C30005D1F47535C4DFA01F3956081718160939C
:101C4000240170932501409328015093290190911C
:101C500021019061909321019091F833891B8F703D
:101C60006091F6337091F7336115710509F488C0FE
:101C700060910F214091F6335091F7334093AC229D
:101C80005093AD2298EF980F96170CF40BC2609109
:101C90000E2169170CF4D2C09F3F0CF401C19230A1
:101CA0007CF089504091F6335091F73360911221C6
:101CB0008602400D511D11244093AC225093AD2259
:101CC0009430E4F0892F990F990B05976FE0689F86
:101CD0009001699F300D1124420F531F4093AC2295
:101CE0005093AD222091AE223091AF22C090B0220D
:101CF000D090B122E090B222F090B3224093360807
:101D0000509337082F5F3F4F2093AE223093AF227E
:101D1000C701B601640F751F811D911D6093B0222C
:101D20007093B1228093B2229093B32240911021FC
:101D3000509111212417350709F4EBC0809111014E
:101D40008063809311018091210180638093210140
:101D500083E3809303011092200810922108809160
:101D60001001806880931001809100018068809349
:101D700000019091F9338091F833981388CEAECE5C
:101D80002091F4333091F5332093F6333093F733C9
:101D90009DE09093122120E038E0209310213093B1
:101DA00011211092B0221092B1221092B222109200
:101DB000B3221092AE221092AF2291E890930E219E
:101DC0004091F6335091F7334093AC225093AD22BB
:101DD00098EF980FC12CD12C760190930F219B0185
:101DE0005BCF2091F4333091F5332093F633309369
:101DF000F7339DE09093122120E038E020931021EA
:101E0000309311211092B0221092B1221092B2227E
:101E10001092B3221092AE221092AF2291E89093CA
:101E20000E214091F6335091F7334093AC225093FA
:101E3000AD2298EF980F90930F219DCE90930E2195
:101E40002BCF90930E2197CEA091F633B091F7331C
:101E5000292F092E000C330BF901319680911221A4
:101E6000682FAF0164037001659FF00C1124AD0170
:101E70004E0D5F1D4093AC225093AD229D3F0CF060
:101E80008ECE2B5F3F4F6FE0629FC001639F900D2E
:101E90001124480F591F4093AC225093AD2291CE8C
:101EA0008090F6339090F733A92E092E000CBB08D2
:101EB000D501119680911221682FAD016403F001C4
:101EC000659FF00D1124A4014E0F5F1F4093AC22BB
:101ED0005093AD229D3F0CF0F3CEB5016B5F7F4F69
:101EE0002FE0269FC001279F900D1124480F591FF6
:101EF0004093AC225093AD222091AE223091AF227C
:101F0000C090B022D090B122E090B222F090B322E3
:101F1000F5CE40E050E00E94341D2093F63330931C
:101F2000F733F801EC0FFD1FE753FB4D20813181A2
:101F30008091F6339091F7333F932F9320910E21A8
:101F4000422F022E000C550B5F932F9320910F21EF
:101F5000422F022E000C550B5F932F9320911221DC
:101F6000422F022E000C550B5F932F939F938F935C
:101F70008FE292E29F938F930E949B1F809110218A
:101F8000909111212DB73EB7245F3F4F2DBF3EBF2B
:101F9000883632E4930788F420911221235020934D
:101FA0001221880F991F80931021909311218FE7A0
:101FB00080930F2181E880930E211092B02210921D
:101FC000B1221092B2221092B3221092AE2210923D
:101FD000AF22B4CE40E050E0C701B6010E94341DEC
:101FE0002093F6333093F733F801EC0FFD1FE753DE
:101FF000FB4D208131818091F6339091F7333F93EF
:102000002F9320910E21422F022E000C550B5F932F
:102010002F9320910F21422F022E000C550B5F931E
:102020002F9320911221422F022E000C550B5F930B
:102030002F939F938F938FE292E29F938F930E94AF
:102040009B1F80911021909111212DB73EB7245FE5
:102050003F4F2DBF3EBF883632E4930788F420916E
:102060001221235020931221880F991F8093102151
:10207000909311218FE780930F2181E880930E21A7
:102080001092B0221092B1221092B2221092B3227A
:102090001092AE221092AF22C12CD12C760120E0FA
:1020A00030E0B9CDB90199CEE0E0F1E081898063FB
:1020B000818B81A1806381A383E3838310922008B5
:1020C0001092210880898068808B8081806880835D
:1020D0000895EF92FF920F931F93CF938091012168
:1020E0008B3009F44CC0813839F18130C9F09091BE
:1020F00000211F928F931F929F9384E792E29F93F8
:102100008F930E949B1F0F900F900F900F900F9036
:102110000F9080E0CF911F910F91FF90EF90089565
:1021200080910021823209F469C080E0CF911F9133
:102130000F91FF90EF90089590910021923AC9F687
:10214000209104212130A9F620910321213089F624
:102150008091F0339091F1332091F23320933A2023
:1021600090933920809338200E94E60383E00E94F8
:10217000C70581E692E20E94D71F81E0CBCFC091D4
:102180000021C13091F68091022190910321892B89
:1021900009F448C08091EB3381113DC08BECE82EEF
:1021A0008AE0F82E0AE319E020E031E04BEC54E23B
:1021B00069EC73E281E00E940A0580912820897809
:1021C000809328201092FB3381E08093FC3380E0E1
:1021D0000E94C7050E94E603809103218F9380919E
:1021E00002218F938FE492E29F938F930E949B1F13
:1021F0000F900F900F900F9081E08CCF88E59AE0C0
:102200008093F8209093F92080E00E94C7050E94F7
:10221000E60381E07FCF92E8E92E98E0F92E0EEDFB
:1022200018E0C2CF0E94390CC093FB331092FC33EC
:10223000809110018F7780931001809120018F771A
:1022400080932001C4CF1F920F920FB60F921124DA
:102250000BB60F92EF92FF920F931F932F933F9322
:102260004F935F936F937F938F939F93AF93BF939E
:10227000CF93DF93EF93FF9380911101806180935F
:1022800011018091F9332091FA3390E0821B91097A
:102290008F7099270397CCF4FF91EF91DF91CF9145
:1022A000BF91AF919F918F917F916F915F914F916E
:1022B0003F912F911F910F91FF90EF900F900BBEC8
:1022C0000F900FBE0F901F9018958091FA338D5F7D
:1022D0008F70C82FD0E08E01000F111FDC2FCC278C
:1022E00098012C0F3D1F27533C4DF901F395408178
:1022F000518140931401509315012093180130939C
:102300001901909111019061909311019091F8330E
:10231000891B8F702091F6333091F733232B09F40A
:1023200072C020910F214091F6335091F7334093C2
:10233000AC225093AD2298EF980F92170CF48DC0F9
:1023400020910E21291714F490930E219F3F0CF435
:1023500089C092307CF089504091F6335091F73328
:10236000209112218202400D511D11244093AC2274
:102370005093AD22943084F0892F990F990B0597D3
:102380006FE0689F9001699F300D1124420F531F29
:102390004093AC225093AD224093360850933708B7
:1023A0002091AE223091AF222F5F3F4F2093AE227B
:1023B0003093AF228091B0229091B122A091B222AD
:1023C000B091B322BC01CD01640F751F811D911D19
:1023D0006093B0227093B1228093B2229093B32283
:1023E00040911021509111212417350709F466C03E
:1023F0008091100187FDC2C08091FA338F5F8F708A
:102400008093FA3349CF2091F4333091F533209300
:10241000F6333093F7339DE09093122120E038E0BB
:1024200020931021309311211092B0221092B122EA
:102430001092B2221092B3221092AE221092AF22CA
:1024400091E890930E214091F6335091F7334093E9
:10245000AC225093AD2298EF980F90930F219F3F9D
:102460000CF077CFA091F633B091F733292F092ED6
:10247000000C330BF901319680911221682FAF01C6
:1024800064037001659FF00C1124AD014E0D5F1DBA
:102490004093AC225093AD229D3F0CF06BCF2B5F4D
:1024A0003F4F6FE0629FC001639F900D1124480F62
:1024B000591F4093AC225093AD226ECF40E050E0C4
:1024C0000E94341D2093F6333093F733C00FD11F91
:1024D000C753DB4D288139818091F6339091F733D2
:1024E0003F932F9320910E21422F022E000C550B6B
:1024F0005F932F9320910F21422F022E000C550B3A
:102500005F932F9320911221422F022E000C550B26
:102510005F932F939F938F938FE292E29F938F937A
:102520000E949B1F80911021909111212DB73EB7E1
:10253000245F3F4F2DBF3EBF883632E4930788F4B7
:1025400020911221235020931221880F991F8093EC
:102550001021909311218FE780930F2181E88093C0
:102560000E211092B0221092B1221092B22210923B
:10257000B3221092AE221092AF223ACF8CE892E2B0
:102580000E94D71F89CE1F920F920FB60F9211246F
:102590000BB60F92EF92FF920F931F932F933F93DF
:1025A0004F935F936F937F938F939F93AF93BF935B
:1025B000CF93DF93EF93FF9380912101806180930C
:1025C00021018091F9332091FA3390E0821B910927
:1025D0008F7099270397CCF4FF91EF91DF91CF9102
:1025E000BF91AF919F918F917F916F915F914F912B
:1025F0003F912F911F910F91FF90EF900F900BBE85
:102600000F900FBE0F901F9018958091FA338D5F39
:102610008F70C82FD0E08E01000F111FDC2FCC2748
:1026200098012C0F3D1F27533C4DF901F395408134
:102630005181409324015093250120932801309328
:102640002901909121019061909321019091F8339B
:10265000891B8F702091F6333091F733232B09F4C7
:1026600072C020910F214091F6335091F73340937F
:10267000AC225093AD2298EF980F92170CF48DC0B6
:1026800020910E21291714F490930E219F3F0CF4F2
:1026900089C092307CF089504091F6335091F733E5
:1026A000209112218202400D511D11244093AC2231
:1026B0005093AD22943084F0892F990F990B059790
:1026C0006FE0689F9001699F300D1124420F531FE6
:1026D0004093AC225093AD22409336085093370874
:1026E0002091AE223091AF222F5F3F4F2093AE2238
:1026F0003093AF228091B0229091B122A091B2226A
:10270000B091B322BC01CD01640F751F811D911DD5
:102710006093B0227093B1228093B2229093B3223F
:1027200040911021509111212417350709F466C0FA
:102730008091200187FD50CF8091FA338F5F8F7099
:102740008093FA3349CF2091F4333091F5332093BD
:10275000F6333093F7339DE09093122120E038E078
:1027600020931021309311211092B0221092B122A7
:102770001092B2221092B3221092AE221092AF2287
:1027800091E890930E214091F6335091F7334093A6
:10279000AC225093AD2298EF980F90930F219F3F5A
:1027A0000CF077CFA091F633B091F733292F092E93
:1027B000000C330BF901319680911221682FAF0183
:1027C00064037001659FF00C1124AD014E0D5F1D77
:1027D0004093AC225093AD229D3F0CF06BCF2B5F0A
:1027E0003F4F6FE0629FC001639F900D1124480F1F
:1027F000591F4093AC225093AD226ECF40E050E081
:102800000E94341D2093F6333093F733C00FD11F4D
:10281000C753DB4D288139818091F6339091F7338E
:102820003F932F9320910E21422F022E000C550B27
:102830005F932F9320910F21422F022E000C550BF6
:102840005F932F9320911221422F022E000C550BE3
:102850005F932F939F938F938FE292E29F938F9337
:102860000E949B1F80911021909111212DB73EB79E
:10287000245F3F4F2DBF3EBF883632E4930788F474
:1028800020911221235020931221880F991F8093A9
:102890001021909311218FE780930F2181E880937D
:1028A0000E211092B0221092B1221092B2221092F8
:1028B000B3221092AE221092AF223ACF8A3049F062
:1028C0009091A10895FFFCCF8093A00880E090E054
:1028D00008959091A10895FFFCCF9DE09093A008EA
:1028E000EFCF8A3049F09091B10895FFFCCF8093EB
:1028F000B00880E090E008959091B10895FFFCCF7A
:102900009DE09093B008EFCF8A3049F09091A109F3
:1029100095FFFCCF8093A00980E090E0089590910E
:10292000A10995FFFCCF9DE09093A009EFCF8A30DD
:1029300049F09091B10995FFFCCF8093B00980E0F8
:1029400090E008959091B10995FFFCCF9DE09093A0
:10295000B009EFCF8A3049F09091A10A95FFFCCFE2
:102960008093A00A80E090E008959091A10A95FFDD
:10297000FCCF9DE09093A00AEFCF8A3049F0909170
:10298000B10A95FFFCCF8093B00A80E090E00895F3
:102990009091B10A95FFFCCF9DE09093B00AEFCFE4
:1029A0008A3049F09091A10B95FFFCCF8093A00B4A
:1029B00080E090E008959091A10B95FFFCCF9DE001
:1029C0009093A00BEFCFCF92EF920F931F93CF93E3
:1029D000DF93EC01C03B89E0D80709F4C6C030F1B1
:1029E000C03B8AE0D80709F499C0C03A8BE0D80709
:1029F00009F47AC0C03A8AE0D80709F49CC08AE09A
:102A000095E09F938F93809112348F93809111342E
:102A10008F930E94421F0F900F900F900F90DF91A5
:102A2000CF911F910F91EF90CF900895C03B88E018
:102A3000D80709F48DC0C03A89E0D80709F461C00D
:102A4000C03A88E0D807D9F684E08093420688E04F
:102A500080934106009307341093083407E611E28F
:102A60002B83DB01CA019E5EA548BF4F880F991FCB
:102A7000AA1FBB1F880F991FAA1FBB1F880F991F72
:102A8000AA1FBB1F440F551F661F771F440F551FFA
:102A9000661F771F9A01AB01220F331F441F551F7A
:102AA000220F331F441F551FBC01CD010E94341D4E
:102AB000215031092E833F838CE18C8383E08D8309
:102AC000EE2021F000930F3410931034CC2009F441
:102AD000A6CF0093113410931234DF91CF911F9140
:102AE0000F91EF90CF90089584E08093820688E064
:102AF00080938106009301341093023403E111E2C4
:102B0000AFCF84E08093620688E0809361060093F3
:102B10000534109306340BE411E2A2CF80E48093D5
:102B2000820680E880938106009303341093043476
:102B300001E211E295CF84E08093820688E08093E1
:102B400081060093093410930A340FE211E288CF12
:102B500080E48093420680E88093410600930B3422
:102B600010930C3409E511E27BCF80E48093620678
:102B700080E8809361060093FF33109300340DE3E7
:102B800011E26ECFFC016A3029F0918195FFFDCFF3
:102B900060830895818185FFFDCF8DE08083F5CF2F
:102BA000FC01918195FFFDCF608308950F931F93E2
:102BB000CF93DF93CDB7DEB72A97CDBFDEBF8C01B1
:102BC000CB014AE0BE016F5F7F4F0E941D1F9981BC
:102BD000992379F0FE0132962DE09A3091F0D801D8
:102BE00011968C91119785FFFACF9C939191911139
:102BF000F4CF2A96CDBFDEBFDF91CF911F910F9109
:102C00000895D80111968C91119785FFFACF2C93D6
:102C1000E6CFFC01DB012C91222359F011963DE017
:102C20002A3041F0918195FFFDCF20832D91211114
:102C3000F7CF0895818185FFFDCF3083F3CFFC016D
:102C40004115510559F0DB01460F571F8D919181B8
:102C500095FFFDCF8083A417B507C1F70895FF92B4
:102C60000F931F93CF93DF93EC018B01CB010E9455
:102C70007520882379F09DE0F92E8A3089F09981BA
:102C800095FFFDCF88830F5F1F4FC8010E947520FD
:102C90008111F3CFDF91CF911F910F91FF90089594
:102CA000998195FFFDCFF882EACFDC01FB012491E9
:102CB000222369F03DE02A3059F011969C9111973A
:102CC00095FFFBCF2C93319624912111F4CF0895D9
:102CD00011968C91119785FFFBCF3C93EECFFC01B1
:102CE000918197FFFDCF80810895AF92BF92CF92DF
:102CF000DF92EF92FF920F931F93CF93DF93FC012C
:102D0000F22ED32FC42FB52FA62ED72E80E4E82E77
:102D100090E3C92E21E3B22E98014F2D5D2F6C2F29
:102D20007B2F8A2D9D2DA0E00E94F91D1CF1818131
:102D300085FFFDCFC08298014F2D5D2F6C2F7B2F1B
:102D40008A2D9D2D01E00E94E01D8901F42ED52FD2
:102D5000C62FB72FA82ED92EEA94E110DDCFDF9130
:102D6000CF911F910F91FF90EF90DF90CF90BF9088
:102D7000AF900895818185FFFDCFB082DCCFFC014B
:102D800028E030E341E367FD08C0918195FFFDCF66
:102D90003083660F2150B9F70895818185FFFDCFFB
:102DA0004083F7CF8A3039F09091A10895FFFCCF8E
:102DB0008093A00808959091A10895FFFCCF9DE015
:102DC0009093A008F1CF803B29E0920709F454C00A
:102DD000E8F0803BFAE09F07D1F1803A2BE09207C0
:102DE00041F1803AEAE09E07C9F185EE94E09F93B5
:102DF0008F93809112348F93809111348F930E941E
:102E0000421F0F900F900F900F900895803BF8E0B5
:102E10009F0759F1803A29E0920791F0803AE8E063
:102E20009E0719F74093073450930834FC016383DD
:102E300008954093013450930234FC016383089554
:102E40004093053450930634FC0163830895409306
:102E5000033450930434FC01638308954093093490
:102E600050930A34FC016383089540930B345093CC
:102E70000C34FC01638308954093FF335093003476
:102E8000FC01638308951F920F920FB60F921124D5
:102E90000BB60F922F933F934F935F936F937F9354
:102EA0008F939F93AF93BF93EF93FF938091A0086D
:102EB000E0910734F09108341995FF91EF91BF919B
:102EC000AF919F918F917F916F915F914F913F91C2
:102ED0002F910F900BBE0F900FBE0F901F90189563
:102EE0001F920F920FB60F9211240BB60F922F93D1
:102EF0003F934F935F936F937F938F939F93AF9382
:102F0000BF93EF93FF938091B008E0910B34F09161
:102F10000C341995FF91EF91BF91AF919F918F91D3
:102F20007F916F915F914F913F912F910F900BBEC9
:102F30000F900FBE0F901F9018951F920F920FB613
:102F40000F9211240BB60F922F933F934F935F93E1
:102F50006F937F938F939F93AF93BF93EF93FF9361
:102F60008091A009E0910534F09106341995FF9104
:102F7000EF91BF91AF919F918F917F916F915F91F1
:102F80004F913F912F910F900BBE0F900FBE0F905E
:102F90001F9018951F920F920FB60F9211240BB627
:102FA0000F922F933F934F935F936F937F938F93E2
:102FB0009F93AF93BF93EF93FF938091B009E091FC
:102FC000FF33F09100341995FF91EF91BF91AF91CC
:102FD0009F918F917F916F915F914F913F912F9131
:102FE0000F900BBE0F900FBE0F901F9018951F9261
:102FF0000F920FB60F9211240BB60F922F933F939F
:103000004F935F936F937F938F939F93AF93BF93F0
:10301000EF93FF938091A00AE0910934F0910A3474
:103020001995FF91EF91BF91AF919F918F917F91F2
:103030006F915F914F913F912F910F900BBE0F9029
:103040000FBE0F901F9018951F920F920FB60F9200
:1030500011240BB60F922F933F934F935F936F936F
:103060007F938F939F93AF93BF93EF93FF93809141
:10307000B00AE0910334F09104341995FF91EF9177
:10308000BF91AF919F918F917F916F915F914F9180
:103090003F912F910F900BBE0F900FBE0F901F907E
:1030A00018951F920F920FB60F9211240BB60F9224
:1030B0002F933F934F935F936F937F938F939F9340
:1030C000AF93BF93EF93FF938091A00BE0910134F6
:1030D000F09102341995FF91EF91BF91AF919F91BB
:1030E0008F917F916F915F914F913F912F910F90B1
:1030F0000BBE0F900FBE0F901F9018950F931BBE25
:10310000FC0108ED04BF60830F9108950F93809137
:1031100050008860809350008091510083FFFCCF65
:103120001BBE23E080E490E0FC0108ED04BF208397
:103130000F9108950F9394E09093560092E090932E
:10314000CA01EDE1F0E0E491E09362009093CA01DE
:10315000ECE1F0E0E491E09363001092CA019BE19E
:103160009093650097EB9093660091E090936000D8
:103170009091500097601BBE20E530E0F90108ED0A
:1031800004BF90839091510097709730D9F71BBE80
:1031900093E024E430E0F90108ED04BF90838068F7
:1031A000809355001BBE21E081E490E0FC0108ED16
:1031B00004BF20838091500080611BBE20E530E079
:1031C000F90108ED04BF80838091510084FFFCCF9A
:1031D00081E0809360001BBE24E080E490E0FC016D
:1031E00008ED04BF20830F9108950F9394E090930E
:1031F000560092E09093CA01ECE1F0E0E491E09394
:1032000063001092CA019BE19093650097EB909345
:10321000660091E0909360001BBE97E020E530E0EF
:10322000F90108ED04BF908390915100967096309B
:10323000D9F7809355001BBE20E081E490E0FC01AB
:1032400008ED04BF208381E08093680080915000E6
:1032500080611BBE20E530E0F90108ED04BF8083EA
:103260008091510084FFFCCF1BBE24E080E490E0FD
:10327000FC0108ED04BF208383E0809344000F919C
:10328000089580E10E94F51881E08093B40080E801
:10329000809341062FEF8FE19EE4215080409040C3
:1032A000E1F700C00000CC24C394E12C00E010E062
:1032B00020E040E452E46FE070E080EA98E00E9491
:1032C000E31482ED96E10E94E3028091A200876000
:1032D0008093A2008FEF809381068091CC041F928F
:1032E0008F938DE992E29F938F930E949B1F2FEF04
:1032F00087EA91E6215080409040E1F700C000004D
:103300000E94CB0260E070E089E690E10E942A030F
:103310000E94CD0C78940F900F900F900F900E9408
:10332000CB020E941E0DFBCF2F923F924F925F92D5
:103330006F927F928F929F92AF92BF92CF92DF92C5
:10334000EF92FF920F931F93CF93DF93CDB7DEB72A
:103350006097CDBFDEBF7C011B016A01FC011682B4
:103360001782838181FF44C39E012F5F3F4F390144
:10337000F7019381F10193FD859193FF81911F01E5
:10338000882309F431C3853239F493FD859193FF85
:1033900081911F01853239F4B70190E00E945F1FCF
:1033A00056016501E5CF10E0512C912CFFE1F91594
:1033B000D8F08B3279F038F4803279F08332A1F48E
:1033C000F92DF0612EC08D3261F0803369F4292D22
:1033D00021602DC0392D3260932E892D8460982E66
:1033E0002AC0E92DE86015C097FC2DC020ED280FFC
:1033F0002A3088F496FE06C03AE0139F200D11246F
:10340000122F19C08AE0589E200D1124522EE92D4A
:10341000E0629E2E10C08E3231F496FCE5C2F92D8A
:10342000F0649F2E08C08C3621F4292D2068922E3E
:1034300002C0883641F4F10193FD859193FF81919B
:103440001F018111B3CF9BEB980F933020F4992D7E
:103450009061805E07C09BE9980F933008F066C1C9
:10346000992D9F7E96FF16E09F73992E853619F44D
:103470009064992E08C0863621F4392F3068932E37
:1034800002C01111115097FE07C01C3350F44424A0
:103490004394410E27E00BC0183038F027E017E0C6
:1034A00005C027E09CE3492E02C0212F412C560184
:1034B00084E0A80EB11CF601608171818281938144
:1034C000042DA3010E941D1E6C01F981FC87F0FFF1
:1034D00002C0F3FF06C091FC06C092FE06C000E2E7
:1034E00005C00DE203C00BE201C000E08C858C70CA
:1034F00019F001115AC29BC297FE10C04C0CFC85FA
:10350000F4FF04C08A81813309F44A94141474F5D9
:1035100028E0241578F588E0482E2CC096FC2AC0B7
:10352000812F90E08C159D059CF03CEFC3163FEF7A
:10353000D30674F0892D8068982E0AC0E2E0F0E08E
:10354000EC0FFD1FE10FF11D8081803319F4115044
:103550001111F4CF97FE0EC044244394410E812FE5
:1035600090E0C816D9062CF41C1904C044244394D6
:1035700001C010E097FE06C01C141D0434F4C601FF
:10358000019605C085E090E002C081E090E0011165
:103590000196112331F0212F30E02F5F3F4F820F32
:1035A000931F252D30E08217930714F4581A01C099
:1035B000512C892D897049F4552039F0B70180E2EA
:1035C00090E00E945F1F5A94F7CF002329F0B701C3
:1035D000802F90E00E945F1F93FC09C0552039F0B6
:1035E000B70180E390E00E945F1F5A94F7CF97FEE7
:1035F0004CC04601D7FE02C0812C912CC60188190F
:103600009909F301E80FF91FED87FE879601241948
:1036100031092F87388B012F10E011950195110981
:103620003FEF8316930629F4B7018EE290E00E94E3
:103630005F1FC814D9044CF08F85988988159905A7
:1036400024F4ED85FE85818101C080E3F1E08F1ACD
:1036500091082D853E852F5F3F4F2D873E87801631
:1036600091062CF0B70190E00E945F1FD9CFC814DB
:10367000D90441F49A81963320F4953319F43C85AA
:1036800034FF81E3B70190E04EC08A81813319F0A5
:103690009C859F7E9C87B70190E00E945F1F11115F
:1036A00005C094FC18C085E690E017C0B7018EE213
:1036B00090E00E945F1F1E5F82E001E0080FF301AF
:1036C000E80FF11D8081B70190E00E945F1F802FFD
:1036D0000113F3CFE6CF85E490E0B7010E945F1FAE
:1036E000D7FC06C0C114D10441F4EC85E4FF05C049
:1036F000D194C194D1088DE201C08BE2B70190E072
:103700000E945F1F80E32AE0C216D1042CF08F5F75
:10371000FAE0CF1AD108F7CFB70190E00E945F1FFF
:10372000B701C601C0960E945F1F54C1833631F0B5
:10373000833779F0833509F056C020C0560132E056
:10374000A30EB11CF6018081898301E010E06301C2
:1037500012C05601F2E0AF0EB11CF601C080D1805C
:1037600096FE03C0612F70E002C06FEF7FEFC601CD
:103770000E94121F8C01F92DFF7714C0560122E020
:10378000A20EB11CF601C080D18096FE03C0612F4D
:1037900070E002C06FEF7FEFC6010E94FE1E8C0139
:1037A000F92DF0689F2EF3FD1AC0852D90E00817C3
:1037B0001907A8F4B70180E290E00E945F1F5A94B5
:1037C000F4CFF60197FC859197FE81916F01B701C7
:1037D00090E00E945F1F51105A9401501109011589
:1037E000110579F7F7C0843611F0893661F5560175
:1037F00097FE09C024E0A20EB11CF6016081718120
:10380000828193810AC0F2E0AF0EB11CF6016081A3
:103810007181072E000C880B990BF92DFF769F2ED6
:1038200097FF09C090958095709561957F4F8F4F58
:103830009F4FF0689F2E2AE030E0A3010E940720EE
:10384000C82EC6183FC0092D853721F40F7E2AE007
:1038500030E01DC0097F8F3691F018F4883559F09B
:10386000C3C0803719F0883711F0BEC0006104FF73
:1038700009C0046007C094FE08C0066006C028E0C6
:1038800030E005C020E130E002C020E132E0560126
:1038900007FF09C084E0A80EB11CF60160817181A8
:1038A0008281938108C0F2E0AF0EB11CF601608105
:1038B000718180E090E0A3010E940720C82EC61805
:1038C0000F77902E96FE0BC0092D0E7FC11650F477
:1038D00094FE0AC092FC08C0092D0E7E05C0DC2CA7
:1038E000092D03C0DC2C01C0D12E04FF0DC0FE0148
:1038F000EC0DF11D8081803311F4097E09C002FFB7
:1039000006C0D394D39404C0802F867809F0D39452
:1039100003FD11C000FF06C01C2DD51480F4150D49
:103920001D190DC0D51458F4B70180E290E00E9433
:103930005F1FD394F7CFD51410F45D1801C0512C3C
:1039400004FF10C0B70180E390E00E945F1F02FFF8
:1039500017C001FD03C088E790E002C088E590E051
:10396000B7010CC0802F867859F001FF02C08BE2AE
:1039700001C080E207FD8DE2B70190E00E945F1F69
:10398000C11638F4B70180E390E00E945F1F115028
:10399000F7CFCA94F301EC0DF11D8081B70190E0DF
:1039A0000E945F1FC110F5CF15C0F4E0F51560F55A
:1039B00084E0581A93FE1FC0011127C02C8523FFF5
:1039C0002AC000E512E0392D3071932EF801849160
:1039D000811124C0552009F4E4CCB70180E290E0C5
:1039E0000E945F1F5A94F6CFF7018681978126C007
:1039F0008FEF9FEF23C0B70180E290E00E945F1F2E
:103A00005A945110F8CFD8CF512CB701802F90E0A5
:103A10000E945F1FD3CF04E512E0D5CF91108052F2
:103A2000B70190E00E945F1F0F5F1F4FCFCF23E0D1
:103A3000251510F483E0BDCF512CC0CF6096CDBFCB
:103A4000DEBFDF91CF911F910F91FF90EF90DF903C
:103A5000CF90BF90AF909F908F907F906F905F902E
:103A60004F903F902F900895A1E21A2EAA1BBB1BE6
:103A7000FD010DC0AA1FBB1FEE1FFF1FA217B3073A
:103A8000E407F50720F0A21BB30BE40BF50B661F50
:103A9000771F881F991F1A9469F760957095809514
:103AA00090959B01AC01BD01CF010895E894DF938F
:103AB000CF93FC01DB010E94051E7F936F93E90108
:103AC0009A01AC01BF93AF933F932F93DF010E9404
:103AD000051E26F46C1B7D0B820B930B9E01EB01E4
:103AE000FC010E94141EAF91BF912F913F910E9443
:103AF000141EBE01CF01F9012F913F91CF91DF91AB
:103B00000895689401C0E8948F929F92CF93DF93B9
:103B10000E948F1DDF91CF919F908F9008958824F0
:103B20009924F401E401B0E49F93AA279A158B0429
:103B30009C04ED05FE05CF05D007A10798F4AD2F35
:103B4000DC2FCF2FFE2FE92D982C892E982F872F31
:103B5000762F652F542F432F322F2227B85031F75D
:103B6000BF9127C01B2EBF91BB27220F331F441FBD
:103B7000551F661F771F881F991F881C991CEE1FF1
:103B8000FF1FCC1FDD1FAA1FBB1F8A149B04EC055F
:103B9000FD05CE05DF05A007B10748F08A189B0890
:103BA000EC09FD09CE09DF09A00BB10B21601A94C5
:103BB000E1F62EF49401AF01BE01CD01000C089591
:103BC0000F93083090F0982F872F762F652F542F62
:103BD000432F322F22270850F4CF220F331F441FC8
:103BE000551F661F771F881F991F0A95B2F70F91FF
:103BF00008950024A7FD00942A17300540055005BC
:103C000060057005800590050895A29FB001B39FDF
:103C1000C001A39F700D811D1124911DB29F700DD5
:103C2000811D1124911D08950E94051E460F571FE6
:103C3000C81FD91F08F431960895283008F027E0EE
:103C40003327DA01990F311D87FD916000966105D8
:103C5000710539F432602E5F3D9330E32A95E1F728
:103C600008959F3F30F080387105610509F03C5F91
:103C70003C5F3D93913008F08068911DDF93CF93B6
:103C80001F930F93FF92EF92192F987F9695E92F2C
:103C900096959695E90FFF27EE54FD4F9927332708
:103CA000EE24FF24A701E70105900894079428F467
:103CB000360FE71EF81E491F511D660F771F881F1C
:103CC000991F0694A1F70590079428F4E70EF81EB3
:103CD000491F561FC11D770F881F991F661F069425
:103CE000A1F70590079428F4F80E491F561FC71F27
:103CF000D11D880F991F661F771F0694A1F70590A5
:103D0000079420F4490F561FC71FD81F990F661F2D
:103D1000771F881F0694A9F784911095177041F0BA
:103D2000D695C79557954795F794E7941A95C1F797
:103D3000E8E5F2E0689415901591359165919591BB
:103D400005907FE27395E118F10A430B560BC90BFE
:103D5000D009C0F7E10CF11E431F561FC91FD01D2B
:103D60007EF4703311F48A95E6CFE894015030F078
:103D7000080F0AF40027021708F4202F2395022FBA
:103D80007A3328F079E37D932A95E9F710C07D9383
:103D90002A9589F606949795679537951795179400
:103DA000E118F10A430B560BC90BD00998F0239583
:103DB0007E9173957A3308F070E37C932013B8F703
:103DC0007E9170617D9330F0839571E37D9370E314
:103DD0002A95E1F71124EF90FF900F911F91CF9159
:103DE000DF91992787FD90950895FB01DC0102C0C2
:103DF00005900D9241505040D8F70895FC01059070
:103E0000615070400110D8F7809590958E0F9F1FDC
:103E10000895FB01DC0102C001900D924150504019
:103E2000D8F70895FC016150704001900110D8F757
:103E3000809590958E0F9F1F0895BB274A3031F4CF
:103E4000992322F4BDE2909581959F4F0C94291FF0
:103E5000BB27FB015527AA27880F991FAA1FA41764
:103E600010F0A41B83955051B9F7A05DAA3308F058
:103E7000A95DA193009779F7B111B1931192CB018C
:103E80000C9465200F931F93CF93DF93CDB7DEB7CC
:103E900008851985F801838188608383AE01445FBA
:103EA0005F4F6A857B85C8010E949419F8012381C0
:103EB000277F2383DF91CF911F910F9108950F9357
:103EC0001F93CF93DF93FB01238121FD03C08FEF6D
:103ED0009FEF2CC022FF16C0468157812481358177
:103EE0004217530744F4A081B1819D012F5F3F4FDA
:103EF000208331838C93268137812F5F3F4F268328
:103F0000378314C08B01EC01FB010084F185E02DA7
:103F10001995892BE1F6D80116968D919C911797EA
:103F2000019616968D939C931797CE01DF91CF91B2
:103F30001F910F910895CF93DF93CDB7DEB7AE01F8
:103F40004A5F5F4FFA0161917191AF0180910F3427
:103F5000909110340E949419DF91CF9108950F939E
:103F60001F93CF93DF93CDB7DEB7AE01485F5F4FAE
:103F7000DA016D917D91AD010DE014E3F8018281CC
:103F80009381DC0113962C911397286013962C9340
:103F90000E949419D8011296ED91FC9113972381F8
:103FA000277F2383DF91CF911F910F9108950F9366
:103FB0001F93CF93DF93E0910F34F091103423815E
:103FC00021FF1BC08C01D0E0C0E0F80181918F017E
:103FD00060910F3470911034DB011896ED91FC91D3
:103FE0001997882331F01995892B79F3DFEFCFEFFB
:103FF000ECCF8AE01995892B19F08FEF9FEF02C063
:104000008D2F9C2FDF91CF911F910F910895FA0171
:10401000AA27283051F1203181F1E8946F936E7F07
:104020006E5F7F4F8F4F9F4FAF4FB1E03ED0B4E0F8
:104030003CD0670F781F891F9A1FA11D680F791F39
:104040008A1F911DA11D6A0F711D811D911DA11D4A
:1040500020D009F468943F912AE0269F112430195A
:10406000305D3193DEF6CF010895462F4770405DF5
:104070004193B3E00FD0C9F7F6CF462F4F70405DA4
:104080004A3318F0495D31FD4052419302D0A9F7FF
:10409000EACFB4E0A6959795879577956795BA95F9
:1040A000C9F700976105710508959B01AC010A2EBF
:1040B00006945795479537952795BA95C9F7620F96
:1040C000731F841F951FA01D0895DC01FC01672F3D
:1040D00071917723E1F7329704C07C916D937083DF
:1040E0006291AE17BF07C8F3089503D08081992766
:1040F0000895E0ECF1E0378537FDFDCF3485386079
:0E4100003487FC01E050F04F0895F894FFCF93
:10410E000000000200000000BB0200000000AF0330
:10411E000000000000000000000000000000000091
:10412E000000000000000000000000000000000081
:10413E000000000000000000000000000000000071
:10414E000000000000000000000000000000000061
:10415E000000000000000000000000000000000051
:10416E000000000000000000000000000000000041
:10417E000000000000000000000000000000000031
:10418E000000000000000000000000000000000021
:10419E000000000000000000000000000000000011
:1041AE000000000000000000000000000000000001
:1041BE0000000000000000000000000000000000F1
:1041CE0000000000000000000000000000000000E1
:1041DE0000000000000000000000000000000000D1
:1041EE0000000000000000000000000000000000C1
:1041FE0000000000000000000000000000000000B1
:10420E000000000000000000000000000000817FA0
:10421E0000080D0000000200000000D01400000095
:10422E00000000000200000000BD140000000000AD
:10423E0000000200000000AA1400000000000000B0
:10424E0002000000009714000000000000000200B1
:10425E0000000084140000000000000002000000B6
:10426E000071140000000000000002000000005E5B
:10427E0014000000005F044D042B0465705F656D33
:10428E007074795F66756E632121210041646472DA
:10429E003A25640A0053656E642041434B206F75C6
:1042AE00740065702063616C6C6261636B206F7566
:1042BE0074206F662072616E6765212121212100B5
:1042CE006F766572312077623A2025642C206C66F9
:1042DE003A2025640A006F766572302077623A20A4
:1042EE0025642C206C663A2025640A0063707520C4
:1042FE00667265712069733A20256C7520256C7580
:10430E002C2025750A00657020636E743A20256492
:10431E000A0073616D706C65526174653A20256C8C
:10432E00642025640A00417564696F20696E00631C
:10433E006C6B733A202575202575206D6D3A2025FE
:10434E00643B25642073697A653A2025640A0073FC
:10435E00657420696E746572666163652025640AF2
:10436E000053616D706C6520726174652073656EAB
:10437E0064656400617564696F206F757420626D89
:10438E003A20257820623A2025780A00646D612053
:10439E0063616C6C20746F20736C6F7700626F6F4B
:0A43AE0074696E672025640A0000A0
:00000001FF
