:100000000C94C4020C94E5020C94E5020C94E502F5
:100010000C94E5020C94E5020C944D100C94EF1135
:100020000C9486140C94B5140C94E5020C94E5021F
:100030000C94E5020C94E5020C94E5020C94E502A4
:100040000C94E5020C94E5020C94E5020C94E50294
:100050000C94E5020C94E5020C94E5020C94E50284
:100060000C94E5020C94C9170C94E5020C94E5027B
:100070000C94F6170C94E5020C94E5020C94E5023E
:100080000C94E5020C94E5020C94E5020C94E50254
:100090000C94E5020C94E5020C94E5020C94E50244
:1000A0000C94E5020C94E5020C94E5020C94E50234
:1000B0000C94E5020C94E5020C94E5020C94E50224
:1000C0000C94E5020C94E5020C94E5020C94E50214
:1000D0000C94E5020C94E5020C94E5020C94E50204
:1000E0000C94E5020C94E5020C947D180C94E50246
:1000F0000C94E5020C94AA180C94E5020C94E50209
:100100000C94E5020C94E5020C94E5020C94E502D3
:100110000C94E5020C94E5020C94E5020C94E502C3
:100120000C94E5020C94E5020C94E5020C94E502B3
:100130000C94E5020C94E5020C94E5020C94E502A3
:100140000C94E5020C94E5020C94E5020C94E50293
:100150000C94E5020C94E5020C94E5020C94E50283
:100160000C9423180C94E5020C94E5020C9450189E
:100170000C94E5020C94E5020C94E5020C94E50263
:100180000C94E5020C94E5020C94E5020C94E50253
:100190000C94E5020C94E5020C94E5020C94E50243
:1001A0000C94E5020C94E5020C94E5020C94E50233
:1001B0000C94E5020C94E5020C94E5020C94E50223
:1001C0000C94E5020C94E5020C94E5020C94E50213
:1001D0000C94E5020C94E5020C94E5020C94D718FB
:1001E0000C94E5020C94E5020C94E5020C94E502F3
:1001F0000C94E5020C9492060C940B060C94E414F7
:100200000C9456150C941D150C940A150C9443155A
:100210000C94650A0C9433030C9497080C94F40C1A
:100220000C94E7020C9455030C94F7140C948C1363
:100230000C942E030C941E030C9430150C94B40CE7
:100240000C9458170C9495090C942F030C942003CC
:100250000C94860B6E616E00696E660000407A1029
:10026000F35A00A0724E18090010A5D4E80000E867
:100270007648170000E40B54020000CA9A3B0000C5
:1002800000E1F505000080969800000040420F0054
:100290000000A08601000000102700000000E80315
:1002A000000000006400000000000A0000000000E0
:1002B0000100000000002C76D888DC674F0823DF9F
:1002C000C1DFAE59E1B1B796E5E3E453C63AE65172
:1002D000997696E8E6C28426EB898C9B62ED407C99
:1002E0006FFCEFBC9C9F40F2BAA56FA5F490055A35
:1002F0002AF75C936B6CF9676DC11BFCE0E40D475A
:10030000FEF520E6B500D0ED902E0300943577057C
:100310000080841E080000204E0A000000C80C3334
:100320003333330F986E12831141EF8D2114893BC3
:10033000E65516CFFEE6DB18D1844B381BF77C1D43
:10034000901DA4BBE424203284725E228100C9F196
:1003500024ECA1E53D27506572666F726D656420DF
:1003600072657365740A007374616C6C0A006F6661
:100370000A004275736576656E742000496E766179
:100380006C69642065703A2025642C206D61783A90
:100390002025640A00496E76616C69642065703AB4
:1003A0002025642C206D61783A2025640A00416480
:1003B000647200556E6B6E6F776E00536574436F99
:1003C0006E6669670A00476574636F6E6669670ADF
:1003D0000067657444657363726970746F723A2064
:1003E00025642073697A653A2025640A0053657490
:1003F000416464726573733A2025640A005365741E
:100400004665617475726500676574207374617404
:1004100075730A006765745374617475730053656E
:100420007474696E6720616464722025640A002018
:100430000341007500640069006F00200041006DF9
:100440000070006C006900660069006500720000C1
:100450000010034D006100730074006500720051CC
:10046000000000040309040902B10003010080FA3E
:100470000904000000010100000A240100011F001E
:100480000201020C24020101010002030000000924
:10049000240302010300010009040100000102001D
:1004A000000904010101010200000724010101010A
:1004B000001724020102021005401F00112B002228
:1004C000560044AC0080BB000905010D000101008D
:1004D00000072501010000000904020000010200DC
:1004E00000090402010101020000072401020101C8
:1004F000001724020101021005401F00112B0022E9
:10050000560044AC0080BB000905820D00010100CB
:100510000007250101000000120100020000004058
:100520009999371300010102000173657453616DDD
:10053000706C6552617465006966006966005553A8
:10054000415254204E6F7420617661696C61626C17
:1005500065206F72206E6F742070726F76696465AB
:10056000640A005553415254204E6F7420617661E5
:10057000696C61626C65206F72206E6F742070729E
:100580006F76696465640A0011241FBECFEFCDBF8A
:10059000DFE5DEBF00E00CBF13E2A0E0B0E2EEE07A
:1005A000F2E400E00BBF02C007900D92A235B10744
:1005B000D9F726E3A2E5B3E201C01D92A33CB2073E
:1005C000E1F70E94C7190C9405210C940000AAE6DB
:1005D000B3E21196EC91119791E09E0F11969C93C6
:1005E000F0E0E659FC4D828380E090E0089510C071
:1005F000E0915223F0915323A0916A2381E08A0F66
:1006000080936A23B0E0A659BC4D12968C9119953F
:1006100090916A2380916B239813EACF089520E08C
:1006200030E22093BF363093C036809352239093AC
:100630005323EAE6F3E211821082089580E00895E0
:10064000E0E1F0E284858D79848780916C2490913B
:100650006D2480938C2190938D210895089583E1DA
:1006600092E20C94572080919A218F77E0ECF4E08D
:10067000838380916F249091702480938E21909336
:100680008F2183EB93E080930E2090930F20838142
:100690001F928F9384E292E29F938F930E941B207C
:1006A0000F900F900F900F900895089522E02093DF
:1006B000CA01EAE1F0E0E491E093FA042093CA0170
:1006C000EBE1F0E0E491E093FB041092CA016115C4
:1006D000710509F461C0009709F463C06093A32118
:1006E0007093A4218093A1219093A22182E480930E
:1006F000C80483E08093C904809192219091932152
:10070000892B09F451C08091902190919121892BDE
:1007100009F457C08091962190919721892B09F473
:100720005DC08091942190919521892B09F463C03B
:100730008CE190E28093C6049093C7041092C304A6
:1007400010921C2083E480931D208CE491E280931E
:1007500020209093212082E08093242083E68093C0
:1007600025208CE490E280932820909329208EE22B
:1007700093E080938E2190938F2185E593E0809381
:100780008C2190938D2182EE8093C0048091C104CE
:1007900081608093C10408956EE173E0009709F0D1
:1007A0009DCF8EE193E09ACF8FE293E080939221E8
:1007B000909393218091902190919121892B09F020
:1007C000A9CF8FE293E08093902190939121809123
:1007D000962190919721892B09F0A3CF8FE293E086
:1007E00080939621909397218091942190919521C7
:1007F000892B09F09DCF8FE293E080939421909311
:10080000952196CFECE8F1E28081918180936C2470
:1008100090936D2480E293E0808391838DE292E255
:100820000C9457200F938EEA93E080930E209093C0
:100830000F20E0E1F0E284858D78848784858160F3
:10084000848784898160848BAEE8B1E28D919C912C
:10085000119780936F249093702483E393E08D939A
:100860009C93128E138E80E090E8868B978BE4E247
:10087000F0E202E606930F910895E0E1F0E284854C
:100880008D78848784858160848784898160848B66
:100890000895E0E1F0E284858D7984870895A0ECE5
:1008A000B4E08CE190E216968D939C931797139683
:1008B0001C921397E0E1F0E2148683E485878CE4D0
:1008C00091E2808B918B82E0848B83E6858B8CE434
:1008D00090E2808F918F8EE293E080938E219093AF
:1008E0008F2185E593E080938C2190938D2182EE7A
:1008F0008C9311968C911197816011968C93089529
:10090000CF92DF92EF92FF920F931F93833008F004
:1009100060C0E114F10409F477C0C114D10409F4F2
:100920007BC090E0FC01E295F295F07FFE27E07F2E
:10093000FE27E05EFF4D4083518309301105A0F58D
:10094000FC01E295F295F07FFE27E07FFE27DF01B4
:10095000A05FBF4D1D962C931D9732E01C963C93D3
:100960001C9758966D937C935997E05FFF4D258BAC
:1009700022E0248BFC01EE0FFF1FEE0FFF1FE2575A
:10098000FE4DE082F182880F991F880F991FFC01AC
:10099000E457FE4DC082D18281E01F910F91FF90FC
:1009A000EF90DF90CF9008950131110558F1013299
:1009B0001105B8F101341105B0F101381105A8F1A4
:1009C000013031E0130798F10130124090F12760B7
:1009D000B7CF1F9293E09F931F928F9385E993E087
:1009E0009F938F930E942F200F900F900F900F9046
:1009F0000F900F9080E01F910F91FF90EF90DF908C
:100A0000CF90089521609CCF9FE2E92E93E0F92ECC
:100A1000C114D10409F085CFBFE2CB2EB3E0DB2EA9
:100A200080CF22608DCF23608BCF246089CF25605B
:100A300087CF266085CFEF92FF920F931F938F771A
:100A4000833008F066C0E114F10409F481C0011597
:100A5000110509F485C090E0FC01EE0FFF1FEE0FB9
:100A6000FF1FE257FE4DE082F182FC01EE0FFF1FF7
:100A7000EE0FFF1FE457FE4D00831183FC01E2954A
:100A8000F295F07FFE27E07FFE27E05EFF4D60835A
:100A9000718382959295907F9827807F9827FC019B
:100AA000E05FFF4D168617862930310590F420EF60
:100AB00025871486408F518F168A178AFC01E05FC4
:100AC000FF4D258B148A81E01F910F91FF90EF90CD
:100AD000089521313105A0F12132310508F443C0D8
:100AE0002134310508F447C02138310508F44BC0E2
:100AF000213061E0360708F44EC02130324008F062
:100B000052C026EF25871486408F518F168A178A88
:100B1000D5CF1F9293E09F931F928F938CE793E022
:100B20009F938F930E942F200F900F900F900F9004
:100B30000F900F9080E01F910F91FF90EF9008951C
:100B400021EF25871486408F518F168A178AB6CFDA
:100B50009FE2E92E93E0F92E0115110509F07BCFF4
:100B60000FE213E078CF22EF25871486408F518F54
:100B7000168A178AA3CF23EF25871486408F518FBB
:100B8000168A178A9BCF24EF25871486408F518FB2
:100B9000168A178A93CF25EF25871486408F518FA9
:100BA000168A178A8BCF27EF25871486408F518F9F
:100BB000168A178A83CF0F93E0E1F0E2128E138E2C
:100BC00090E09068868B978BE4E2F0E202E6069371
:100BD0000F9108950F93ECE1F0E202E706930F9175
:100BE00008950F93E0E1F0E285858460858785892B
:100BF0008460858BECE1F0E200E606930F910895A6
:100C0000AB011092CA01BC018CE490E20E94751FF6
:100C10008CE490E208951F920F920FB60F92112468
:100C20000BB60F920F931F932F933F934F935F93A6
:100C30006F937F938F939F93AF93BF93CF93DF93E4
:100C4000EF93FF938091CC0481FF3CC0E091C504F9
:100C50008091C6049091C704EE0FFF0BE80FF91FB7
:100C6000008111818091C6049091C704E801C81BDE
:100C7000D90BD695C795D695C795D695C795C63045
:100C800008F047C0DD27CC0FDD1FC457DE4DE881DB
:100C9000F981C8011995FF91EF91DF91CF91BF9133
:100CA000AF919F918F917F916F915F914F913F9104
:100CB0002F911F910F910F900BBE0F900FBE0F90B1
:100CC0001F9018958091CC0480FFE5CF81E0809340
:100CD000CC04CCE1D0E2FE0100E3069388E0ECE432
:100CE000F1E2A8E9B1E201900D928A95E1F70E9444
:100CF00055078111D0CF80911D20846080931D20E5
:100D000080912520846080932520FE0100E60693D3
:100D1000C2CF8AE392E29F938F930E941B200F9091
:100D20000F90B0CF1F920F920FB60F9211240BB6F7
:100D30000F922F933F934F935F936F937F938F9374
:100D40009F93AF93BF93EF93FF9382E793E09F93BB
:100D50008F930E942F208091CA040F900F9087FDDF
:100D60007FC08091CA048E7009F05FC08091CA0470
:100D700080FD6AC080E78093CA048091C20484FD2C
:100D800013C0FF91EF91BF91AF919F918F917F9190
:100D90006F915F914F913F912F910F900BBE0F90EC
:100DA0000FBE0F901F9018958091C2048F7E809384
:100DB000C2048CE190E28093C6049093C704109221
:100DC000C30410921C2083E480931D208CE491E2E4
:100DD000809320209093212082E08093242083E63A
:100DE000809325208CE490E2809328209093292002
:100DF0008EE293E080938E2190938F2185E593E09E
:100E000080938C2190938D2182EE8093C0048091F9
:100E1000C10481608093C10486E593E09F938F9322
:100E20000E942F200F900F90ACCF8EE08093CA04C9
:100E30008EE693E09F938F930E942F200F900F9048
:100E40008091CA0480FF96CF81E08093CA0487E630
:100E500093E09F938F930E942F200F900F9091CF3C
:100E600080E88093CA047DCF809198218076D9F460
:100E700080919921853011F081E0089580919A2127
:100E80008F778093C3048091C3041F928F938EE168
:100E900094E09F938F930E942F200F900F900F90BC
:100EA0000F9081E0089580E00895FF920F931F93C3
:100EB000CF93DF931F921F92CDB7DEB78091982119
:100EC000807609F066C080919921853009F494C03C
:100ED00008F443C0883009F4AAC0893009F466C018
:100EE000863009F056C060919A21F0909B211982BA
:100EF0001A82AE014F5F5F4F8F2D0E9455080097F9
:100F000009F4C3C069817A816115710509F4BDC016
:100F100020919E2130919F218C012817390708F4D8
:100F2000A0C080E26C34780729F0A8018CE490E23C
:100F30000E94891F802F0E94DB050E943D04013022
:100F400081E0180708F08FC081E00F900F90DF91CB
:100F5000CF911F910F91FF900895813091F178F515
:100F600010924C2010924D2084E194E080930E204A
:100F700090930F200E943D0482E00E94DB0588E0F0
:100F800094E09F938F930E942F200F900F9081E009
:100F9000DCCFE091A121F091A22119950F900F9043
:100FA000DF91CF911F910F91FF90089580919A2129
:100FB00090919B21019709F46CC080E0EFCF8330C2
:100FC00041F78DEF93E080930E2090930F200E94C5
:100FD0003D0480910F208F9380910E208F930E946B
:100FE0002F200F900F9081E00F900F90DF91CF9105
:100FF0001F910F91FF9008950E94120480919B21F0
:101000008F9380919A218F938DEE93E09F938F938E
:101010000E942F200F900F900F900F9081E00F9063
:101020000F90DF91CF911F910F91FF90089586EC63
:1010300093E09F938F930E942F208091A021809313
:101040004C200E943D0481E00E94DB050F900F9030
:1010500081E00F900F90DF91CF911F910F91FF9042
:10106000089589015ECF1F930F931F92FF9281ED28
:1010700093E09F938F930E942F200F900F900F90DB
:101080000F900F900F9081E060CF0E94F10581E0FA
:101090005CCF80E00E94DB0580919A218093A021A3
:1010A0000E94EA058BEB93E06CCF0F931F93CF93D5
:1010B000DF938A01823039F18330B9F0813081F0D9
:1010C000C0E0D0E080E090E0BE010E940006F801A0
:1010D00080839183CE01DF91CF911F910F9108956D
:1010E000C2E1D0E088E195E0EFCF633088F4E62FED
:1010F000F0E0EE0FFF1FE35FFD4D80819181FC0169
:10110000C491D0E0E1CFC1EBD0E087E694E0DCCF42
:1011100080E090E0F4CF089591E0823008F090E014
:10112000892F089508950895089580E00895CF9235
:10113000DF92EF92FF92FC0182819381039729F065
:10114000FF90EF90DF90CF90089580914E21C09056
:101150004D21D12CE12CF12CFE2CED2CDC2CCC24BF
:10116000E82A80914C21C82A80919C2190919D2150
:101170008238910509F44DC0019711F10E943D0498
:101180008091A4369091A53620919D212F93209196
:101190009C212F939F938F93FF92EF92DF92CF9298
:1011A00088E592E29F938F930E941B208DB79EB794
:1011B0000A968DBF9EBFFF90EF90DF90CF9008956D
:1011C000C092A036D092A136E092A236F092A33619
:1011D0002091A0363091A1364091A2365091A3368D
:1011E00060919436709195368091963690919736AD
:1011F0000E94B41D215031092093A4363093A536A6
:101200008091A4369091A536809336089093370844
:10121000B5CFC0929836D0929936E0929A36F09235
:101220009B36209198363091993640919A3650915C
:101230009B36609194367091953680919636909158
:1012400097360E94B41D2150310920939C3630936B
:101250009D3694CFCF92DF92EF92FF92CF93DF93A0
:10126000E1E7F5E210821182108211821082118270
:1012700010821182108211821082118210821182DA
:1012800010821182108211821082118210821182CA
:1012900010821182108211821082118210821182BA
:1012A00010821182E0E0F9E010A211A28FEF9FEF0F
:1012B00086A397A387E080831182168280E09CE654
:1012C000ACEDB2E08093943690939536A093963629
:1012D000B09397361092933680E8C82E8BEBD82EB9
:1012E000E12CF12CC092A036D092A136E092A23629
:1012F000F092A336C7EED3E0C093A436D093A536C0
:101300000E94B30DC0929836D0929936E0929A36E8
:10131000F0929B36C0939C36D0939D36DF91CF914F
:10132000FF90EF90DF90CF900895CF93DF9380915F
:1013300099218B3009F469C0813879F18130B1F09D
:10134000909198211F928F931F929F9381EB92E22D
:101350009F938F930E941B200F900F900F900F90E0
:101360000F900F9080E0DF91CF91089580919821A8
:10137000823209F481C08AE295E09F938F9383E7DC
:1013800092E29F938F930E941B200F900F900F90DB
:101390000F9080E0DF91CF91089590919821923A3B
:1013A00089F620919B21213069F680919C21813022
:1013B00009F481C0C8E9D6E38A8180934E208981EF
:1013C00080934D20888180934C200E943D0483E0CF
:1013D0000E94DB0580919D218F9380919C218F93AA
:1013E0008B818F938A818F9389818F9388818F934B
:1013F00089E992E29F938F930E941B208DB79EB73D
:1014000008968DBF9EBF81E0AECF8091982181303C
:1014100081F580919C2190919D2181309105E1F190
:101420000297B9F580919A2190919B21892BE9F13E
:101430000E94981380E00E94DB050E943D04809189
:101440009B218F9380919A218F9380919D218F93DF
:1014500080919C218F9384E892E29F938F930E94C6
:101460001B200F900F900F900F900F900F9081E026
:101470007ACF88E395E081CF87E998E080938C214B
:1014800090938D2180E00E94DB050E943D0481E065
:101490006ACF8BE395E071CF80919A2190919B2147
:1014A000892B31F00E94340DC5CF0E949C13C2CF0E
:1014B0000E94710DBFCFC0EAD6E37ECF8091AB36DC
:1014C000811101C008950C94E00F2F923F924F922A
:1014D0005F926F927F928F929F92AF92BF92CF92C4
:1014E000DF92EF92FF920F931F93CF93DF93CDB7CD
:1014F000DEB72A97CDBFDEBFFC0122813381128285
:10150000138280912C20897880932C2020902009B0
:101510003090210980919136909192368038FEE387
:101520009F07E0F540915E2350915F2301968093E1
:10153000913690939236811502E0900708F448C0E6
:101540004101841A950A40915A2350915B2360917E
:101550005C2370915D23480D511D611D711D4093E9
:101560005A2350935B2360935C2370935D234090D8
:101570005623509057236090582370905923420E61
:10158000531E611C711C4092562350925723609247
:1015900058237092592380389E4359F120925E233C
:1015A00030925F232A96CDBFDEBFDF91CF911F918E
:1015B0000F91FF90EF90DF90CF90BF90AF909F90F2
:1015C0008F907F906F905F904F903F902F900895F5
:1015D00010925A2310925B2310925C2310925D2389
:1015E0001092562310925723109258231092592389
:1015F000D5CFCB01BA012AE0660F771F881F991F4C
:101600002A95D1F72091A0363091A1364091A2368B
:101610005091A3360E94D61DE4EFFCE0E0939021A8
:10162000F0939121E4EBFCE0E0939221F09393217D
:1016300063015201D694C794B794A79476016501CB
:1016400056016701E12CF12C8701A982BA82CB8275
:10165000DC82ED82FE820F831887E12CF12C00E002
:1016600010E00E94031EF22EE32ED42EC52E2093EE
:101670009436309395364093963650939736209112
:10168000A0363091A1364091A2365091A3366F2DED
:101690007E2D8D2D9C2D0E94B41D2150310920934B
:1016A000A4363093A5361092A6361092A736209114
:1016B00098363091993640919A3650919B366F2DDD
:1016C0007E2D8D2D9C2D0E94B41D2150310920931B
:1016D0009C3630939D3610929E3610929F3681E054
:1016E0008093933699249F928F927F926F925F920C
:1016F0004F92CF92DF92EF92FF9289EC92E29F930A
:101700008F930E941B20CDBFDEBF48CF2F923F9208
:101710004F925F926F927F928F929F92AF92BF9201
:10172000CF92DF92EF92FF920F931F93CF93DF93AD
:10173000CDB7DEB72A97CDBFDEBFFC012281338152
:101740001282138280912C20897880932C20209003
:1017500020093090210980919136909192368038FD
:10176000FEE39F07E0F540915423509155230196E5
:101770008093913690939236811502E0900708F499
:1017800048C04101841A950A40915A2350915B2325
:1017900060915C2370915D23480D511D611D711D89
:1017A00040935A2350935B2360935C2370935D2393
:1017B000409056235090572360905823709059239F
:1017C000420E531E611C711C4092562350925723A7
:1017D000609258237092592380389E4359F1209289
:1017E0005423309255232A96CDBFDEBFDF91CF918F
:1017F0001F910F91FF90EF90DF90CF90BF90AF902F
:101800009F908F907F906F905F904F903F902F9020
:10181000089510925A2310925B2310925C23109229
:101820005D23109256231092572310925823109242
:101830005923D5CFCB01BA012AE0660F771F881F45
:10184000991F2A95D1F72091A0363091A136409169
:10185000A2365091A3360E94D61DE4EFFCE0E0933F
:101860009021F0939121E4EBFCE0E0939221F0933E
:10187000932163015201D694C794B794A79476013B
:10188000650156016701E12CF12C8701A982BA821A
:10189000CB82DC82ED82FE820F831887E12CF12C53
:1018A00000E010E00E94031EF22EE32ED42EC52E7F
:1018B00020939436309395364093963650939736CE
:1018C0002091A0363091A1364091A2365091A33696
:1018D0006F2D7E2D8D2D9C2D0E94B41D2150310920
:1018E0002093A4363093A5361092A6361092A736D0
:1018F000209198363091993640919A3650919B3686
:101900006F2D7E2D8D2D9C2D0E94B41D21503109EF
:1019100020939C3630939D3610929E3610929F36BF
:1019200081E08093933699249F928F927F926F9259
:101930005F924F92CF92DF92EF92FF9289EC92E208
:101940009F938F930E941B20CDBFDEBF48CF9F93F4
:101950008F9383E792E29F938F930E941B200F90B7
:101960000F900F900F90089540913620509137209E
:101970006091A8366D5F6F70262F30E08091AA3697
:1019800090E001968F7099272817390719F18091F7
:10199000AD3690E0FC01EE0FFF1F982F8827E80F6F
:1019A000F91FEF58FA4D408351836093AD36809113
:1019B000A8368F5F8F708093A836C901880F991F52
:1019C000322F2227280F391F2F583B4D20933820C4
:1019D00030933920109236201092372080912C209D
:1019E000897880932C20089540912E2050912F20AB
:1019F0006091A8366D5F6F70262F30E08091AA3617
:101A000090E001968F7099272817390719F1809176
:101A1000AE3690E0FC01EE0FFF1F982F8827E80FED
:101A2000F91FEF58FA4D408351836093AE36809191
:101A3000A8368F5F8F708093A836C901880F991FD1
:101A4000322F2227280F391F2F583B4D209330204B
:101A50003093312010922E2010922F2080912C2034
:101A6000897880932C200895EF92FF920F931F9313
:101A700010929136109292368FE08093A836809320
:101A8000A9368093AA361092A6361092A7361092E5
:101A9000AE3681E08093AD368091933681111AC0C5
:101AA00086E8E82E8BE0F82E05E61AE020E031E02B
:101AB00043E755E261E774E281E00E941B0581E0A3
:101AC0008093AB3683EE92E21F910F91FF90EF90DF
:101AD0000C94572094EBE92E9CE0F92E04EF1CE0C7
:101AE000E5CF1092AB36E0E0F1E080898F77808B14
:101AF00080A18F7780A30895EF92FF920F931F9399
:101B000010929136109292368FE08093A83680938F
:101B1000A9368093AA361092A6361092A736109254
:101B2000AE3681E08093AD3680919336811114C03A
:101B300086E8E82E8BE0F82E05E61AE020E031E09A
:101B400043E755E261E774E281E00E941B051F91C3
:101B50000F91FF90EF90089594EBE92E9CE0F92E01
:101B600004EF1CE0EBCFEF92FF920F931F9380ECFA
:101B70008093800184EC80938401109288011092FC
:101B80008C018CE08093200383E48093210381E027
:101B9000809322039091200391609093200394E01E
:101BA0009093230392E09093CA01E3E3F0E0E49181
:101BB000E0932803E2E3F0E0E491E0932903E7E314
:101BC000F0E0E491E0932A03E6E3F0E0E491E093AF
:101BD0002B03E5E2F0E0E491E0934D021092CA019C
:101BE00080930008109220081092210828EB3BE017
:101BF00020932608309327082CE330E02093280810
:101C00003093290810920608109201089CE89093DE
:101C1000000126E22093100192E39093110120939A
:101C2000200190932101809313018093230128E3E5
:101C300020931C0193E090931D0110921E011092BD
:101C40001A0120932C0190932D0110922E011092D5
:101C50002A0120E430E02093140130931501109202
:101C6000160120932401309325011092260199ED4D
:101C70009093120190932201109291361092923615
:101C80009FE09093A8369093A9369093AA3610922D
:101C9000A6361092A7361092AE368093AD3680915C
:101CA0009336811116C086E8E82E8BE0F82E05E603
:101CB0001AE020E031E043E755E261E774E281E0B9
:101CC0000E941B051092AB361F910F91FF90EF9071
:101CD000089594EBE92E9CE0F92E04EF1CE0E9CF87
:101CE000E0E0F1E081898063818B81A1806381A341
:101CF00083E38383109220081092210880898068F2
:101D0000808B8081806880830895CF92DF92EF92EC
:101D1000FF920F931F93CF93DF93FC01C62FD0E068
:101D20008E01000F111FDC2FCC27C8018C0F9D1FC7
:101D30008F589B4DDC01B3952D913C9124833583C5
:101D4000808791878181806181838091A836681B1B
:101D50006F708091A6369091A736892B09F472C0D6
:101D60003091A7218091A6369091A7368093602369
:101D70009093612328EF260F23170CF48DC0309128
:101D8000A62132170CF4B7C02F3F0CF48AC02230C2
:101D90007CF069508091A6369091A7363091AA21A7
:101DA0006302800D911D1124809360239093612321
:101DB00024308CF0022E000C330B255031096FE0DB
:101DC000629FA001639F500D1124840F951F809383
:101DD0006023909361238093360890933708209175
:101DE0006223309163232F5F3F4F20936223309310
:101DF0006323409164235091652360916623709121
:101E000067236A017B01C80ED91EE11CF11CC701C2
:101E1000B601C0926423D0926523E0926623F092CB
:101E200067234091A8215091A9212417350709F46F
:101E300065C0DF91CF911F910F91FF90EF90DF90E0
:101E4000CF9008958091A4369091A5368093A636C0
:101E50009093A7368DE08093AA2180E098E080934C
:101E6000A8219093A92110926423109265231092C7
:101E7000662310926723109262231092632381E8F5
:101E80008093A6218091A6369091A73680936023F7
:101E90009093612328EF260F2093A7212F3F0CF06A
:101EA00076CF8091A6369091A736422F022E000C55
:101EB000550BFA0131963091AA21BF013603D001AA
:101EC000379FB00D11248A0F9B1F8093602390933E
:101ED00061232D3F0CF06CCF4B5F5F4F6FE0649F31
:101EE0009001659F300D1124820F931F8093602312
:101EF0009093612370CF2093A62146CF40E050E01D
:101F00000E94B41D215031092093A6363093A73684
:101F1000C00FD11FCF58DA4D288139818091A63664
:101F20009091A7363F932F932091A621422F022E06
:101F3000000C550B5F932F932091A721422F022E67
:101F4000000C550B5F932F932091AA21422F022E54
:101F5000000C550B5F932F939F938F938AEE92E221
:101F60009F938F930E941B208091A8219091A9217B
:101F70002DB73EB7245F3F4F2DBF3EBF883632E4BA
:101F8000930788F42091AA2123502093AA21880F37
:101F9000991F8093A8219093A9218FE78093A7216F
:101FA00081E88093A62110926423109265231092F9
:101FB000662310926723109262231092632339CF15
:101FC0009091100180912001892B87FD0BC0809199
:101FD000A9362091AA3690E0821B91098F7099272B
:101FE00008977CF59091A9368091A836981741F111
:101FF0004091A9364F5F4F70842F90E0FC01EE0FA7
:10200000FF1F982F8827E80FF91FDF01AF58BA4D3F
:102010008D919C911197892B81F0EE58FB4D21E019
:1020200030E08081805880832E5F3F4F8D919C915E
:102030001197329682179307A0F74093A936089517
:1020400008956091AA366F5F6F7080E191E00E9401
:10205000850E6091AA366E5F6F7080E291E00E94FB
:10206000850E80911101806380931101809121017F
:1020700080638093210183E3809303011092200801
:102080001092210880911001806880931001809146
:102090000001806880930001A5CF1F920F920FB6B8
:1020A0000F9211240BB60F92EF92FF920F931F9392
:1020B0002F933F934F935F936F937F938F939F9350
:1020C000AF93BF93CF93DF93EF93FF938091110171
:1020D0008061809311018091A9362091AA3690E009
:1020E000821B91098F7099270397CCF4FF91EF9190
:1020F000DF91CF91BF91AF919F918F917F916F9120
:102100005F914F913F912F911F910F91FF90EF9011
:102110000F900BBE0F900FBE0F901F9018958091DF
:10212000AA368D5F8F70C82FD0E08E01000F111F6F
:10213000DC2FCC2798012C0F3D1F2F583B4DF90168
:10214000F3954081518140931401509315012093E0
:102150001801309319019091110190619093110130
:102160009091A836891B8F702091A6363091A736A2
:10217000232B09F472C02091A7214091A6365091DB
:10218000A736409360235093612398EF980F9217DE
:102190000CF48DC02091A621291714F49093A62148
:1021A0009F3F0CF489C092307CF089504091A63654
:1021B0005091A7362091AA218202400D511D112471
:1021C0004093602350936123943084F0892F990FBA
:1021D000990B05976FE0689F9001699F300D11245E
:1021E000420F531F4093602350936123409336085E
:1021F0005093370820916223309163232F5F3F4F24
:10220000209362233093632380916423909165230C
:10221000A0916623B0916723BC01CD01640F751FA7
:10222000811D911D609364237093652380936623C1
:10223000909367234091A8215091A9212417350735
:1022400009F466C08091100187FDC4C08091AA3650
:102250008F5F8F708093AA3649CF2091A43630913A
:10226000A5362093A6363093A7369DE09093AA21F9
:1022700020E038E02093A8213093A9211092642314
:1022800010926523109266231092672310926223A6
:102290001092632391E89093A6214091A636509125
:1022A000A736409360235093612398EF980F909343
:1022B000A7219F3F0CF077CFA091A636B091A7360B
:1022C000292F092E000C330BF90131968091AA2198
:1022D000682FAF0164037001659FF00C1124AD01FC
:1022E0004E0D5F1D40936023509361239D3F0CF082
:1022F0006BCF2B5F3F4F6FE0629FC001639F900DDC
:102300001124480F591F40936023509361236ECFCF
:1023100040E050E00E94B41D215031092093A636C0
:102320003093A736C00FD11FCF58DA4D288139819D
:102330008091A6369091A7363F932F932091A621A6
:10234000422F022E000C550B5F932F932091A72153
:10235000422F022E000C550B5F932F932091AA2140
:10236000422F022E000C550B5F932F939F938F9358
:102370008AEE92E29F938F930E941B208091A82166
:102380009091A9212DB73EB7245F3F4F2DBF3EBF8F
:10239000883632E4930788F42091AA2123502093B1
:1023A000AA21880F991F8093A8219093A9218FE7D4
:1023B0008093A72181E88093A62110926423109234
:1023C0006523109266231092672310926223109265
:1023D000632338CF8AE093E20E94572087CE1F9272
:1023E0000F920FB60F9211240BB60F92EF92FF923D
:1023F0000F931F932F933F934F935F936F937F930D
:102400008F939F93AF93BF93CF93DF93EF93FF93FC
:10241000809121018061809321018091A9362091D2
:10242000AA3690E0821B91098F7099270397CCF40C
:10243000FF91EF91DF91CF91BF91AF919F918F91DC
:102440007F916F915F914F913F912F911F910F91CC
:10245000FF90EF900F900BBE0F900FBE0F901F904C
:1024600018958091AA368D5F8F70C82FD0E08E01AD
:10247000000F111FDC2FCC2798012C0F3D1F2F5868
:102480003B4DF901F39540815181409324015093D4
:102490002501209328013093290190912101906119
:1024A000909321019091A836891B8F702091A636B8
:1024B0003091A736232B09F472C02091A7214091B7
:1024C000A6365091A736409360235093612398EF2E
:1024D000980F92170CF48DC02091A621291714F49F
:1024E0009093A6219F3F0CF489C092307CF08950D4
:1024F0004091A6365091A7362091AA218202400D24
:10250000511D11244093602350936123943084F033
:10251000892F990F990B05976FE0689F9001699F2C
:10252000300D1124420F531F4093602350936123B9
:1025300040933608509337082091622330916323EB
:102540002F5F3F4F20936223309363238091642356
:1025500090916523A0916623B0916723BC01CD01C2
:10256000640F751F811D911D609364237093652313
:1025700080936623909367234091A8215091A921CD
:102580002417350709F466C08091200187FD50CFDC
:102590008091AA368F5F8F708093AA3649CF2091A1
:1025A000A4363091A5362093A6363093A7369DE009
:1025B0009093AA2120E038E02093A8213093A9210C
:1025C0001092642310926523109266231092672361
:1025D000109262231092632391E89093A621409178
:1025E000A6365091A736409360235093612398EF0D
:1025F000980F9093A7219F3F0CF077CFA091A6361C
:10260000B091A736292F092E000C330BF901319612
:102610008091AA21682FAF0164037001659FF00CBF
:102620001124AD014E0D5F1D409360235093612333
:102630009D3F0CF06BCF2B5F3F4F6FE0629FC0015F
:10264000639F900D1124480F591F409360235093AE
:1026500061236ECF40E050E00E94B41D215031094B
:102660002093A6363093A736C00FD11FCF58DA4D2E
:10267000288139818091A6369091A7363F932F9378
:102680002091A621422F022E000C550B5F932F9311
:102690002091A721422F022E000C550B5F932F9300
:1026A0002091AA21422F022E000C550B5F932F93ED
:1026B0009F938F938AEE92E29F938F930E941B20A9
:1026C0008091A8219091A9212DB73EB7245F3F4F5B
:1026D0002DBF3EBF883632E4930788F42091AA21AB
:1026E00023502093AA21880F991F8093A8219093AB
:1026F000A9218FE78093A72181E88093A6211092DA
:10270000642310926523109266231092672310921F
:1027100062231092632338CF28EC30E0FC0122833F
:10272000338382E00E94DB058BE193E20C94572017
:1027300083E293E20C9457200895EF92FF920F9357
:102740001F938AE293E20E9457208CE8E82E83E1EF
:10275000F82E870120E031E041E955E361E974E3B7
:1027600082E80E941B051F910F91FF90EF90089542
:10277000CF93DF93CAECD1E082E08883E4E2F0E01B
:10278000E491A0E4B2E01C96EC931C97E5E2F0E043
:10279000E4911D96EC931D97188290E911969C93F5
:1027A000119790E112969C93129799E313969C933C
:1027B000139797E014969C93149790968C93909708
:1027C00091E091969C93919792968C9392979C937B
:1027D000DF91CF910895EF92FF920F931F93CF93C4
:1027E000DF93E0E4F8E091E0908310A211A228EBDF
:1027F0003BE026A337A324E630E020A731A71682CA
:102800001182E0E8F1E084E28183118688EC87831D
:102810001786CAECD1E082E08883E4E2F0E0E4913C
:10282000A0E4B2E01C96EC931C97E5E2F0E0E491A2
:102830001D96EC931D97188220E911962C93119701
:1028400020E112962C93129729E313962C93139759
:1028500027E014962C93149790968C9390979196CA
:102860009C93919792968C9392979C93E0E0F1E0E1
:1028700094E8908325E220AB90E391AB2093400154
:102880009093410193E093AB9093430121E934E3AA
:1028900024AF35AF16AE90E590AF81AF12AE21E90F
:1028A00035E320934C0130934D0110924E019093EB
:1028B00048018093490110924A01E4ABF5AB16AA96
:1028C000E0934401F0934501109246018DE982ABFB
:1028D0008093420180A9806880AB8AE293E20E94E3
:1028E00057208CE8E82E83E1F82E870120E031E0C4
:1028F00041E955E361E974E382E80E941B05DF9139
:10290000CF911F910F91FF90EF9008951F920F921A
:102910000FB60F9211240BB60F922F933F934F9344
:102920005F936F937F938F939F93AF93BF93EF9337
:10293000FF93E0E0F1E081898061818B82E393E2A3
:102940000E945720FF91EF91BF91AF919F918F917E
:102950007F916F915F914F913F912F910F900BBE9F
:102960000F900FBE0F901F9018951F920F920FB6E9
:102970000F9211240BB60F922F933F934F935F93B7
:102980006F937F938F939F93AF93BF93EF93FF9337
:10299000E0E0F1E081A1806181A38BE393E20E94FA
:1029A0005720FF91EF91BF91AF919F918F917F91B0
:1029B0006F915F914F913F912F910F900BBE0F90B0
:1029C0000FBE0F901F9018958A3049F09091A10882
:1029D00095FFFCCF8093A00880E090E0089590914F
:1029E000A10895FFFCCF9DE09093A008EFCF8A301F
:1029F00049F09091B10895FFFCCF8093B00880E03A
:102A000090E008959091B10895FFFCCF9DE09093E0
:102A1000B008EFCF8A3049F09091A10995FFFCCF23
:102A20008093A00980E090E008959091A10995FF1E
:102A3000FCCF9DE09093A009EFCF8A3049F09091B0
:102A4000B10995FFFCCF8093B00980E090E0089534
:102A50009091B10995FFFCCF9DE09093B009EFCF25
:102A60008A3049F09091A10A95FFFCCF8093A00A8B
:102A700080E090E008959091A10A95FFFCCF9DE041
:102A80009093A00AEFCF8A3049F09091B10A95FF58
:102A9000FCCF8093B00A80E090E008959091B10A55
:102AA00095FFFCCF9DE09093B00AEFCF8A3049F0BC
:102AB0009091A10B95FFFCCF8093A00B80E090E05C
:102AC00008959091A10B95FFFCCF9DE09093A00BF2
:102AD000EFCFCF92EF920F931F93CF93DF93EC0141
:102AE000C03B89E0D80709F4C6C030F1C03B8AE09A
:102AF000D80709F499C0C03A8BE0D80709F47AC026
:102B0000C03A8AE0D80709F49CC083E695E09F9319
:102B10008F938091C2368F938091C1368F930E949C
:102B2000C21F0F900F900F900F90DF91CF911F91C8
:102B30000F91EF90CF900895C03B88E0D80709F43B
:102B40008DC0C03A89E0D80709F461C0C03A88E076
:102B5000D807D9F684E08093420688E08093410646
:102B60000093B7361093B8360FEF11E22B83DB01D9
:102B7000CA01955EA844BF4F880F991FAA1FBB1FAB
:102B8000880F991FAA1FBB1F880F991FAA1FBB1F61
:102B9000440F551F661F771F440F551F661F771F71
:102BA0009A01AB01220F331F441F551F220F331F01
:102BB000441F551FBC01CD010E94B41D2150310995
:102BC0002E833F838CE18C8383E08D83EE2021F084
:102BD0000093BF361093C036CC2009F4A6CF0093E3
:102BE000C1361093C236DF91CF911F910F91EF90B4
:102BF000CF90089584E08093820688E080938106D8
:102C00000093B1361093B2360BEA11E2AFCF84E0F5
:102C10008093620688E0809361060093B536109336
:102C2000B63603EE11E2A2CF80E48093820680E8FC
:102C3000809381060093B3361093B43609EB11E20A
:102C400095CF84E08093820688E08093810600938C
:102C5000B9361093BA3607EC11E288CF80E480933E
:102C6000420680E8809341060093BB361093BC3641
:102C700001EF11E27BCF80E48093620680E88093CD
:102C800061060093AF361093B03605ED11E26ECFBA
:102C9000FC016A3029F0918195FFFDCF6083089592
:102CA000818185FFFDCF8DE08083F5CFFC0191818F
:102CB00095FFFDCF608308950F931F93CF93DF930C
:102CC000CDB7DEB72A97CDBFDEBF8C01CB014AE07E
:102CD000BE016F5F7F4F0E949D1F9981992379F0FC
:102CE000FE0132962DE09A3091F0D80111968C9128
:102CF000119785FFFACF9C9391919111F4CF2A9669
:102D0000CDBFDEBFDF91CF911F910F910895D80104
:102D100011968C91119785FFFACF2C93E6CFFC0189
:102D2000DB012C91222359F011963DE02A3041F02D
:102D3000918195FFFDCF20832D912111F7CF08952B
:102D4000818185FFFDCF3083F3CFFC014115510513
:102D500059F0DB01460F571F8D91918195FFFDCFF3
:102D60008083A417B507C1F70895FF920F931F93AF
:102D7000CF93DF93EC018B01CB010E94F5208823D8
:102D800079F09DE0F92E8A3089F0998195FFFDCF89
:102D900088830F5F1F4FC8010E94F5208111F3CF78
:102DA000DF91CF911F910F91FF900895998195FF29
:102DB000FDCFF882EACFDC01FB012491222369F0E8
:102DC0003DE02A3059F011969C91119795FFFBCF69
:102DD0002C93319624912111F4CF089511968C9162
:102DE000119785FFFBCF3C93EECFFC01918197FFBC
:102DF000FDCF80810895AF92BF92CF92DF92EF9284
:102E0000FF920F931F93CF93DF93FC01F22ED32FEA
:102E1000C42FB52FA62ED72E80E4E82E90E3C92E1E
:102E200021E3B22E98014F2D5D2F6C2F7B2F8A2D21
:102E30009D2DA0E00E94791E1CF1818185FFFDCFB0
:102E4000C08298014F2D5D2F6C2F7B2F8A2D9D2DD9
:102E500001E00E94601E8901F42ED52FC62FB72FE6
:102E6000A82ED92EEA94E110DDCFDF91CF911F91EA
:102E70000F91FF90EF90DF90CF90BF90AF900895AB
:102E8000818185FFFDCFB082DCCFFC0128E030E3FB
:102E900041E367FD08C0918195FFFDCF3083660F48
:102EA0002150B9F70895818185FFFDCF4083F7CF89
:102EB0008A3039F09091A10895FFFCCF8093A0084B
:102EC00008959091A10895FFFCCF9DE09093A008F4
:102ED000F1CF803B29E0920709F454C0E8F0803B31
:102EE000FAE09F07D1F1803A2BE0920741F1803A56
:102EF000EAE09E07C9F18EE395E09F938F9380915E
:102F0000C2368F938091C1368F930E94C21F0F905B
:102F10000F900F900F900895803BF8E09F0759F1B4
:102F2000803A29E0920791F0803AE8E09E0719F78D
:102F30004093B7365093B836FC01638308954093AD
:102F4000B1365093B236FC01638308954093B53691
:102F50005093B636FC01638308954093B336509383
:102F6000B436FC01638308954093B9365093BA3662
:102F7000FC01638308954093BB365093BC36FC013B
:102F8000638308954093AF365093B036FC0163835A
:102F900008951F920F920FB60F9211240BB60F9245
:102FA0002F933F934F935F936F937F938F939F9351
:102FB000AF93BF93EF93FF938091A008E091B73652
:102FC000F091B8361995FF91EF91BF91AF919F9114
:102FD0008F917F916F915F914F913F912F910F90C2
:102FE0000BBE0F900FBE0F901F9018951F920F925F
:102FF0000FB60F9211240BB60F922F933F934F935E
:103000005F936F937F938F939F93AF93BF93EF9350
:10301000FF938091B008E091BB36F091BC361995D2
:10302000FF91EF91BF91AF919F918F917F916F91A0
:103030005F914F913F912F910F900BBE0F900FBE5C
:103040000F901F9018951F920F920FB60F92112498
:103050000BB60F922F933F934F935F936F937F9392
:103060008F939F93AF93BF93EF93FF938091A009AA
:10307000E091B536F091B6361995FF91EF91BF9179
:10308000AF919F918F917F916F915F914F913F9100
:103090002F910F900BBE0F900FBE0F901F901895A1
:1030A0001F920F920FB60F9211240BB60F922F930F
:1030B0003F934F935F936F937F938F939F93AF93C0
:1030C000BF93EF93FF938091B009E091AF36F091F9
:1030D000B0361995FF91EF91BF91AF919F918F916C
:1030E0007F916F915F914F913F912F910F900BBE08
:1030F0000F900FBE0F901F9018951F920F920FB652
:103100000F9211240BB60F922F933F934F935F931F
:103110006F937F938F939F93AF93BF93EF93FF939F
:103120008091A00AE091B936F091BA361995FF91D5
:10313000EF91BF91AF919F918F917F916F915F912F
:103140004F913F912F910F900BBE0F900FBE0F909C
:103150001F9018951F920F920FB60F9211240BB665
:103160000F922F933F934F935F936F937F938F9320
:103170009F93AF93BF93EF93FF938091B00AE09139
:10318000B336F091B4361995FF91EF91BF91AF919D
:103190009F918F917F916F915F914F913F912F916F
:1031A0000F900BBE0F900FBE0F901F9018951F929F
:1031B0000F920FB60F9211240BB60F922F933F93DD
:1031C0004F935F936F937F938F939F93AF93BF932F
:1031D000EF93FF938091A00BE091B136F091B2365E
:1031E0001995FF91EF91BF91AF919F918F917F9131
:1031F0006F915F914F913F912F910F900BBE0F9068
:103200000FBE0F901F9018950F931BBEFC0108ED89
:1032100004BF60830F9108950F93809150008860E0
:10322000809350008091510083FFFCCF1BBE23E0B0
:1032300080E490E0FC0108ED04BF20830F91089525
:103240000F9394E09093560092E09093CA01EDE1C1
:10325000F0E0E491E09362009093CA01ECE1F0E0C9
:10326000E491E09363001092CA019BE190936500A2
:1032700097EB9093660091E09093600090915000DE
:1032800097601BBE20E530E0F90108ED04BF908394
:103290009091510097709730D9F71BBE93E024E4CA
:1032A00030E0F90108ED04BF9083806880935500F9
:1032B0001BBE21E081E490E0FC0108ED04BF208307
:1032C0008091500080611BBE20E530E0F90108EDDF
:1032D00004BF80838091510084FFFCCF81E0809304
:1032E00060001BBE24E080E490E0FC0108ED04BF18
:1032F00020830F9108950F9394E09093560092E0ED
:103300009093CA01ECE1F0E0E491E0936300109245
:10331000CA019BE19093650097EB9093660091E062
:10332000909360001BBE97E020E530E0F90108EDC6
:1033300004BF90839091510096709630D9F7809396
:1033400055001BBE20E081E490E0FC0108ED04BFC5
:10335000208381E0809368008091500080611BBED3
:1033600020E530E0F90108ED04BF80838091510031
:1033700084FFFCCF1BBE24E080E490E0FC0108ED5C
:1033800004BF208383E0809344000F91089588E177
:103390000E947B192FEF8FE295E7215080409040EB
:1033A000E1F700C00000CC24C394E12C00E010E061
:1033B00020E040EC56EC6DE270E080EA98E00E947C
:1033C000691588E597E10E940F038091A20087604C
:1033D0008093A2008FEF809381068091CC041F928E
:1033E0008F9385E493E29F938F930E941B202FEF8E
:1033F0008BE792E9215080409040E1F700C0000047
:103400000E94F70260E070E085E999E00E945603AF
:103410000E942A0978940F900F900F900F900E94AD
:10342000F7020E945E0AFBCF2F923F924F925F926B
:103430006F927F928F929F92AF92BF92CF92DF92C4
:10344000EF92FF920F931F93CF93DF93CDB7DEB729
:103450006097CDBFDEBF7C011B016A01FC011682B3
:103460001782838181FF44C39E012F5F3F4F390143
:10347000F7019381F10193FD859193FF81911F01E4
:10348000882309F431C3853239F493FD859193FF84
:1034900081911F01853239F4B70190E00E94DF1F4E
:1034A00056016501E5CF10E0512C912CFFE1F91593
:1034B000D8F08B3279F038F4803279F08332A1F48D
:1034C000F92DF0612EC08D3261F0803369F4292D21
:1034D00021602DC0392D3260932E892D8460982E65
:1034E0002AC0E92DE86015C097FC2DC020ED280FFB
:1034F0002A3088F496FE06C03AE0139F200D11246E
:10350000122F19C08AE0589E200D1124522EE92D49
:10351000E0629E2E10C08E3231F496FCE5C2F92D89
:10352000F0649F2E08C08C3621F4292D2068922E3D
:1035300002C0883641F4F10193FD859193FF81919A
:103540001F018111B3CF9BEB980F933020F4992D7D
:103550009061805E07C09BE9980F933008F066C1C8
:10356000992D9F7E96FF16E09F73992E853619F44C
:103570009064992E08C0863621F4392F3068932E36
:1035800002C01111115097FE07C01C3350F444249F
:103590004394410E27E00BC0183038F027E017E0C5
:1035A00005C027E09CE3492E02C0212F412C560183
:1035B00084E0A80EB11CF601608171818281938143
:1035C000042DA3010E949D1E6C01F981FC87F0FF70
:1035D00002C0F3FF06C091FC06C092FE06C000E2E6
:1035E00005C00DE203C00BE201C000E08C858C70C9
:1035F00019F001115AC29BC297FE10C04C0CFC85F9
:10360000F4FF04C08A81813309F44A94141474F5D8
:1036100028E0241578F588E0482E2CC096FC2AC0B6
:10362000812F90E08C159D059CF03CEFC3163FEF79
:10363000D30674F0892D8068982E0AC0E2E0F0E08D
:10364000EC0FFD1FE10FF11D8081803319F4115043
:103650001111F4CF97FE0EC044244394410E812FE4
:1036600090E0C816D9062CF41C1904C044244394D5
:1036700001C010E097FE06C01C141D0434F4C601FE
:10368000019605C085E090E002C081E090E0011164
:103690000196112331F0212F30E02F5F3F4F820F31
:1036A000931F252D30E08217930714F4581A01C098
:1036B000512C892D897049F4552039F0B70180E2E9
:1036C00090E00E94DF1F5A94F7CF002329F0B70142
:1036D000802F90E00E94DF1F93FC09C0552039F035
:1036E000B70180E390E00E94DF1F5A94F7CF97FE66
:1036F0004CC04601D7FE02C0812C912CC60188190E
:103700009909F301E80FF91FED87FE879601241947
:1037100031092F87388B012F10E011950195110980
:103720003FEF8316930629F4B7018EE290E00E94E2
:10373000DF1FC814D9044CF08F8598898815990526
:1037400024F4ED85FE85818101C080E3F1E08F1ACC
:1037500091082D853E852F5F3F4F2D873E87801630
:1037600091062CF0B70190E00E94DF1FD9CFC8145A
:10377000D90441F49A81963320F4953319F43C85A9
:1037800034FF81E3B70190E04EC08A81813319F0A4
:103790009C859F7E9C87B70190E00E94DF1F1111DE
:1037A00005C094FC18C085E690E017C0B7018EE212
:1037B00090E00E94DF1F1E5F82E001E0080FF3012E
:1037C000E80FF11D8081B70190E00E94DF1F802F7C
:1037D0000113F3CFE6CF85E490E0B7010E94DF1F2D
:1037E000D7FC06C0C114D10441F4EC85E4FF05C048
:1037F000D194C194D1088DE201C08BE2B70190E071
:103800000E94DF1F80E32AE0C216D1042CF08F5FF4
:10381000FAE0CF1AD108F7CFB70190E00E94DF1F7E
:10382000B701C601C0960E94DF1F54C1833631F034
:10383000833779F0833509F056C020C0560132E055
:10384000A30EB11CF6018081898301E010E06301C1
:1038500012C05601F2E0AF0EB11CF601C080D1805B
:1038600096FE03C0612F70E002C06FEF7FEFC601CC
:103870000E94921F8C01F92DFF7714C0560122E09F
:10388000A20EB11CF601C080D18096FE03C0612F4C
:1038900070E002C06FEF7FEFC6010E947E1F8C01B7
:1038A000F92DF0689F2EF3FD1AC0852D90E00817C2
:1038B0001907A8F4B70180E290E00E94DF1F5A9434
:1038C000F4CFF60197FC859197FE81916F01B701C6
:1038D00090E00E94DF1F51105A9401501109011508
:1038E000110579F7F7C0843611F0893661F5560174
:1038F00097FE09C024E0A20EB11CF601608171811F
:10390000828193810AC0F2E0AF0EB11CF6016081A2
:103910007181072E000C880B990BF92DFF769F2ED5
:1039200097FF09C090958095709561957F4F8F4F57
:103930009F4FF0689F2E2AE030E0A3010E9487206D
:10394000C82EC6183FC0092D853721F40F7E2AE006
:1039500030E01DC0097F8F3691F018F4883559F09A
:10396000C3C0803719F0883711F0BEC0006104FF72
:1039700009C0046007C094FE08C0066006C028E0C5
:1039800030E005C020E130E002C020E132E0560125
:1039900007FF09C084E0A80EB11CF60160817181A7
:1039A0008281938108C0F2E0AF0EB11CF601608104
:1039B000718180E090E0A3010E948720C82EC61884
:1039C0000F77902E96FE0BC0092D0E7FC11650F476
:1039D00094FE0AC092FC08C0092D0E7E05C0DC2CA6
:1039E000092D03C0DC2C01C0D12E04FF0DC0FE0147
:1039F000EC0DF11D8081803311F4097E09C002FFB6
:103A000006C0D394D39404C0802F867809F0D39451
:103A100003FD11C000FF06C01C2DD51480F4150D48
:103A20001D190DC0D51458F4B70180E290E00E9432
:103A3000DF1FD394F7CFD51410F45D1801C0512CBB
:103A400004FF10C0B70180E390E00E94DF1F02FF77
:103A500017C001FD03C088E790E002C088E590E050
:103A6000B7010CC0802F867859F001FF02C08BE2AD
:103A700001C080E207FD8DE2B70190E00E94DF1FE8
:103A8000C11638F4B70180E390E00E94DF1F1150A7
:103A9000F7CFCA94F301EC0DF11D8081B70190E0DE
:103AA0000E94DF1FC110F5CF15C0F4E0F51560F5D9
:103AB00084E0581A93FE1FC0011127C02C8523FFF4
:103AC0002AC004E512E0392D3071932EF80184915B
:103AD000811124C0552009F4E4CCB70180E290E0C4
:103AE0000E94DF1F5A94F6CFF7018681978126C086
:103AF0008FEF9FEF23C0B70180E290E00E94DF1FAD
:103B00005A945110F8CFD8CF512CB701802F90E0A4
:103B10000E94DF1FD3CF08E512E0D5CF911080526D
:103B2000B70190E00E94DF1F0F5F1F4FCFCF23E050
:103B3000251510F483E0BDCF512CC0CF6096CDBFCA
:103B4000DEBFDF91CF911F910F91FF90EF90DF903B
:103B5000CF90BF90AF909F908F907F906F905F902D
:103B60004F903F902F900895A1E21A2EAA1BBB1BE5
:103B7000FD010DC0AA1FBB1FEE1FFF1FA217B30739
:103B8000E407F50720F0A21BB30BE40BF50B661F4F
:103B9000771F881F991F1A9469F760957095809513
:103BA00090959B01AC01BD01CF010895E894DF938E
:103BB000CF93FC01DB010E94851E7F936F93E90187
:103BC0009A01AC01BF93AF933F932F93DF010E9403
:103BD000851E26F46C1B7D0B820B930B9E01EB0163
:103BE000FC010E94941EAF91BF912F913F910E94C2
:103BF000941EBE01CF01F9012F913F91CF91DF912A
:103C00000895689401C0E8948F929F92CF93DF93B8
:103C10000E940F1EDF91CF919F908F90089588246E
:103C20009924F401E401B0E49F93AA279A158B0428
:103C30009C04ED05FE05CF05D007A10798F4AD2F34
:103C4000DC2FCF2FFE2FE92D982C892E982F872F30
:103C5000762F652F542F432F322F2227B85031F75C
:103C6000BF9127C01B2EBF91BB27220F331F441FBC
:103C7000551F661F771F881F991F881C991CEE1FF0
:103C8000FF1FCC1FDD1FAA1FBB1F8A149B04EC055E
:103C9000FD05CE05DF05A007B10748F08A189B088F
:103CA000EC09FD09CE09DF09A00BB10B21601A94C4
:103CB000E1F62EF49401AF01BE01CD01000C089590
:103CC0000F93083090F0982F872F762F652F542F61
:103CD000432F322F22270850F4CF220F331F441FC7
:103CE000551F661F771F881F991F0A95B2F70F91FE
:103CF00008950024A7FD00942A17300540055005BB
:103D000060057005800590050895A29FB001B39FDE
:103D1000C001A39F700D811D1124911DB29F700DD4
:103D2000811D1124911D08950E94851E460F571F65
:103D3000C81FD91F08F431960895283008F027E0ED
:103D40003327DA01990F311D87FD916000966105D7
:103D5000710539F432602E5F3D9330E32A95E1F727
:103D600008959F3F30F080387105610509F03C5F90
:103D70003C5F3D93913008F08068911DDF93CF93B5
:103D80001F930F93FF92EF92192F987F9695E92F2B
:103D900096959695E90FFF27EA54FD4F992733270B
:103DA000EE24FF24A701E70105900894079428F466
:103DB000360FE71EF81E491F511D660F771F881F1B
:103DC000991F0694A1F70590079428F4E70EF81EB2
:103DD000491F561FC11D770F881F991F661F069424
:103DE000A1F70590079428F4F80E491F561FC71F26
:103DF000D11D880F991F661F771F0694A1F70590A4
:103E0000079420F4490F561FC71FD81F990F661F2C
:103E1000771F881F0694A9F784911095177041F0B9
:103E2000D695C79557954795F794E7941A95C1F796
:103E3000ECE5F2E0689415901591359165919591B6
:103E400005907FE27395E118F10A430B560BC90BFD
:103E5000D009C0F7E10CF11E431F561FC91FD01D2A
:103E60007EF4703311F48A95E6CFE894015030F077
:103E7000080F0AF40027021708F4202F2395022FB9
:103E80007A3328F079E37D932A95E9F710C07D9382
:103E90002A9589F6069497956795379517951794FF
:103EA000E118F10A430B560BC90BD00998F0239582
:103EB0007E9173957A3308F070E37C932013B8F702
:103EC0007E9170617D9330F0839571E37D9370E313
:103ED0002A95E1F71124EF90FF900F911F91CF9158
:103EE000DF91992787FD90950895FB01DC0102C0C1
:103EF00005900D9241505040D8F70895FC0105906F
:103F0000615070400110D8F7809590958E0F9F1FDB
:103F10000895FB01DC0102C001900D924150504018
:103F2000D8F70895FC016150704001900110D8F756
:103F3000809590958E0F9F1F0895BB274A3031F4CE
:103F4000992322F4BDE2909581959F4F0C94A91F6F
:103F5000BB27FB015527AA27880F991FAA1FA41763
:103F600010F0A41B83955051B9F7A05DAA3308F057
:103F7000A95DA193009779F7B111B1931192CB018B
:103F80000C94E5200F931F93CF93DF93CDB7DEB74B
:103F900008851985F801838188608383AE01445FB9
:103FA0005F4F6A857B85C8010E94141AF80123813E
:103FB000277F2383DF91CF911F910F9108950F9356
:103FC0001F93CF93DF93FB01238121FD03C08FEF6C
:103FD0009FEF2CC022FF16C0468157812481358176
:103FE0004217530744F4A081B1819D012F5F3F4FD9
:103FF000208331838C93268137812F5F3F4F268327
:10400000378314C08B01EC01FB010084F185E02DA6
:104010001995892BE1F6D80116968D919C911797E9
:10402000019616968D939C931797CE01DF91CF91B1
:104030001F910F910895CF93DF93CDB7DEB7AE01F7
:104040004A5F5F4FFA0161917191AF018091BF3674
:104050009091C0360E94141ADF91CF9108950F936A
:104060001F93CF93DF93CDB7DEB7AE01485F5F4FAD
:10407000DA016D917D91AD010DEB16E3F8018281BE
:104080009381DC0113962C911397286013962C933F
:104090000E94141AD8011296ED91FC911397238176
:1040A000277F2383DF91CF911F910F9108950F9365
:1040B0001F93CF93DF93E091BF36F091C0362381F9
:1040C00021FF1BC08C01D0E0C0E0F80181918F017D
:1040D0006091BF367091C036DB011896ED91FC916E
:1040E0001997882331F01995892B79F3DFEFCFEFFA
:1040F000ECCF8AE01995892B19F08FEF9FEF02C062
:104100008D2F9C2FDF91CF911F910F910895FA0170
:10411000AA27283051F1203181F1E8946F936E7F06
:104120006E5F7F4F8F4F9F4FAF4FB1E03ED0B4E0F7
:104130003CD0670F781F891F9A1FA11D680F791F38
:104140008A1F911DA11D6A0F711D811D911DA11D49
:1041500020D009F468943F912AE0269F1124301959
:10416000305D3193DEF6CF010895462F4770405DF4
:104170004193B3E00FD0C9F7F6CF462F4F70405DA3
:104180004A3318F0495D31FD4052419302D0A9F7FE
:10419000EACFB4E0A6959795879577956795BA95F8
:1041A000C9F700976105710508959B01AC010A2EBE
:1041B00006945795479537952795BA95C9F7620F95
:1041C000731F841F951FA01D0895DC01FC01672F3C
:1041D00071917723E1F7329704C07C916D937083DE
:1041E0006291AE17BF07C8F3089503D08081992765
:1041F0000895E0ECF1E0378537FDFDCF3485386078
:0E4200003487FC01E050F04F0895F894FFCF92
:10420E000000000200000000E70200000000B303FF
:10421E000000000000000000000000000000000090
:10422E000000000000000000000000000000000080
:10423E000000000000000000000000000000000070
:10424E000000000000000000000000000000000060
:10425E000000000000000000000000000000000050
:10426E000000000000000000000000000000000040
:10427E000000000000000000000000000000000030
:10428E000000000000000000000000000000000020
:10429E000000000000000000000000000000000010
:1042AE000000000000000000000000000000000000
:1042BE0000000000000000000000000000000000F0
:1042CE0000000000000000000000000000000000E0
:1042DE0000000000000000000000000000000000D0
:1042EE0000000000000000000000000000000000C0
:1042FE0000000000000000000000000000000000B0
:10430E00000000000000000000000000000000009F
:10431E00000000000000000000000000000000008F
:10432E00000000000000000000000000000000007F
:10433E00000000000000000000000000000000006F
:10434E00000000000000000000000000000000005F
:10435E00000000000000000000000000000000004F
:10436E00000000000000000000000000000000003F
:10437E00000000000000000000000000000000002F
:10438E00000000000000000000000000000000001F
:10439E00000000000000000000000000000000000F
:1043AE00000000000000817F00080D0000000200E8
:1043BE000000005615000000000000000200000082
:1043CE000043150000000000000002000000003055
:1043DE00150000000000000002000000001D150086
:1043EE0000000000000002000000000A150000009E
:1043FE00000000000200000000F7140000000000A2
:10440E0000000200000000E41400000000630451EC
:10441E00042F0465705F656D7074795F66756E63E9
:10442E0021212100416464723A25640A0053656EAD
:10443E00642041434B206F75740065702063616C7E
:10444E006C6261636B206F7574206F662072616E93
:10445E00676521212121210073616D706C655261A8
:10446E0074653A20256C642025642065703A2025F9
:10447E00580A00556E6B2073657420706B673A2076
:10448E0025530A0073657420696E746572666163E4
:10449E00652025782025780A007261746520736581
:1044AE006E64656420256C642065703A2025780A58
:1044BE0000617564696F206F757420626D3A2025F6
:1044CE007820623A2025780A00637075206672653E
:1044DE00712069733A20256C7520256C752C20256A
:1044EE00750A0053706B20656E00636C6B733A2017
:1044FE002575202575206D6D3A2025643B25642099
:10450E0073697A653A2025640A00646D61206361DF
:10451E006C6C20746F20736C6F7700212121216DDC
:10452E006963004D696320656E006D696320726575
:10453E007300636F6D706C65746500636F6D706C86
:10454E006574653100626F6F74696E672025640A49
:02455E0000005B
:00000001FF
