:100000000C94D4020C94F5020C94F5020C94F502B5
:100010000C94F5020C94F5020C945D100C94FF11F5
:100020000C94AC140C94D6140C94F5020C94F502B8
:100030000C94F5020C94F5020C94F5020C94F50264
:100040000C94F5020C94F5020C94F5020C94F50254
:100050000C94F5020C94F5020C94F5020C94F50244
:100060000C94F5020C94E5170C94F5020C94F5022F
:100070000C9412180C94F5020C94F5020C94F502F1
:100080000C94F5020C94F5020C94F5020C94F50214
:100090000C94F5020C94F5020C94F5020C94F50204
:1000A0000C94F5020C94F5020C94F5020C94F502F4
:1000B0000C94F5020C94F5020C94F5020C94F502E4
:1000C0000C94F5020C94F5020C94F5020C94F502D4
:1000D0000C94F5020C94F5020C94F5020C94F502C4
:1000E0000C94F5020C94F5020C9499180C94F502FA
:1000F0000C94F5020C94C6180C94F5020C94F502BD
:100100000C94F5020C94F5020C94F5020C94F50293
:100110000C94F5020C94F5020C94F5020C94F50283
:100120000C94F5020C94F5020C94F5020C94F50273
:100130000C94F5020C94F5020C94F5020C94F50263
:100140000C94F5020C94F5020C94F5020C94F50253
:100150000C94F5020C94F5020C94F5020C94F50243
:100160000C943F180C94F5020C94F5020C946C1846
:100170000C94F5020C94F5020C94F5020C94F50223
:100180000C94F5020C94F5020C94F5020C94F50213
:100190000C94F5020C94F5020C94F5020C94F50203
:1001A0000C94F5020C94F5020C94F5020C94F502F3
:1001B0000C94F5020C94F5020C94F5020C94F502E3
:1001C0000C94F5020C94F5020C94F5020C94F502D3
:1001D0000C94F5020C94F5020C94F5020C94F318AF
:1001E0000C94F5020C94F5020C94F5020C94F502B3
:1001F0000C94F5020C9474060C94FD050C940015F7
:100200000C9472150C9439150C9426150C945F15EA
:100210000C9443030C947E080C94040D0C94F70288
:100220000C9465030C9413150C949C130C943E03CE
:100230000C942E030C944C150C94650A0C94C40C6D
:100240000C9474170C943F030C947E090C943003A7
:100250000C948E0B6E616E00696E660000407A1021
:10026000F35A00A0724E18090010A5D4E80000E867
:100270007648170000E40B54020000CA9A3B0000C5
:1002800000E1F505000080969800000040420F0054
:100290000000A08601000000102700000000E80315
:1002A000000000006400000000000A0000000000E0
:1002B0000100000000002C76D888DC674F0823DF9F
:1002C000C1DFAE59E1B1B796E5E3E453C63AE65172
:1002D000997696E8E6C28426EB898C9B62ED407C99
:1002E0006FFCEFBC9C9F40F2BAA56FA5F490055A35
:1002F0002AF75C936B6CF9676DC11BFCE0E40D475A
:10030000FEF520E6B500D0ED902E0300943577057C
:100310000080841E080000204E0A000000C80C3334
:100320003333330F986E12831141EF8D2114893BC3
:10033000E65516CFFEE6DB18D1844B381BF77C1D43
:10034000901DA4BBE424203284725E228100C9F196
:1003500024ECA1E53D27506572666F726D656420DF
:1003600072657365740A007374616C6C0A006F6661
:100370000A004275736576656E742000496E766179
:100380006C69642065703A2025642C206D61783A90
:100390002025640A00496E76616C69642065703AB4
:1003A0002025642C206D61783A2025640A00416480
:1003B000647200556E6B6E6F776E00536574436F99
:1003C0006E6669670A00476574636F6E6669670ADF
:1003D0000067657444657363726970746F723A2064
:1003E00025642073697A653A2025640A0053657490
:1003F000416464726573733A2025640A005365741E
:100400004665617475726500676574207374617404
:1004100075730A006765745374617475730053656E
:100420007474696E6720616464722025640A002018
:100430000341007500640069006F00200041006DF9
:100440000070006C006900660069006500720000C1
:100450000010034D006100730074006500720051CC
:10046000000000040309040902C60003010080FA29
:100470000904000000010100000A24010001340009
:100480000201020C24020101010002030000000924
:1004900024030201030001000C24020301020001F5
:1004A0000000000009240304010100030009040105
:1004B000000001020000090401010101020000071F
:1004C0002401010101001724020102021005401F4E
:1004D00000112B0022560044AC0080BB000905012E
:1004E00005000101000007250101000000090402C8
:1004F00000000102000009040201010102000007DE
:100500002401040101001724020101021005401F0B
:1005100000112B0022560044AC0080BB000905826C
:100520000D800001000007250101000000120100FC
:100530000200000040999937130001010200016791
:10054000657443757272656E740073657453616D82
:10055000706C655261746500696600696600555388
:10056000415254204E6F7420617661696C61626CF7
:1005700065206F72206E6F742070726F766964658B
:10058000640A005553415254204E6F7420617661C5
:10059000696C61626C65206F72206E6F742070727E
:1005A0006F76696465640A0011241FBECFEFCDBF6A
:1005B000DFE5DEBF00E00CBF13E2A0E0B0E2E6E45E
:1005C000F2E400E00BBF02C007900D92A831B10722
:1005D000D9F725E3A8E1B3E201C01D92A938B2071B
:1005E000E1F70E94E3190C9421210C940000A0E390
:1005F000B3E21196EC91119791E09E0F11969C93A6
:10060000F0E0E05DFC4D828380E090E0089510C052
:10061000E0911823F0911923A091302381E08A0FF3
:1006200080933023B0E0A05DBC4D12968C9119955B
:1006300090913023809131239813EACF089520E0E0
:1006400030E220938535309386358093182390933C
:100650001923E0E3F3E211821082089580E0089507
:10066000E0E1F0E284858D79848780913224909155
:10067000332480938C2190938D210895089583E1F4
:1006800092E20C94732080919A218F77E0ECF4E051
:100690008383809135249091362480938E2190938A
:1006A0008F2183EB93E080930E2090930F20838122
:1006B0001F928F9384E292E29F938F930E94372040
:1006C0000F900F900F900F900895089522E02093BF
:1006D000CA01EAE1F0E0E491E093FA042093CA0150
:1006E000EBE1F0E0E491E093FB041092CA016115A4
:1006F000710509F466C0009709F468C06093A321EE
:100700007093A4218093A1219093A22182E48093ED
:10071000C80483E08093C904809192219091932131
:10072000892B09F456C08091902190919121892BB9
:1007300009F45CC08091962190919721892B09F44E
:1007400062C08091942190919521892B09F468C011
:100750008CE190E28093C6049093C7041092C30486
:100760008091C1048E7F8093C10410921C2083E489
:1007700080931D208CE491E280932020909321208F
:1007800082E08093242083E6809325208CE490E20D
:1007900080932820909329208EE393E080938E21EC
:1007A00090938F2185E693E080938C2190938D2107
:1007B00082EE8093C0048091C10481608093C10463
:1007C00008956EE273E0009709F098CF8EE293E00F
:1007D00095CF8FE393E08093922190939321809122
:1007E000902190919121892B09F0A4CF8FE393E080
:1007F00080939021909391218091962190919721BF
:10080000892B09F09ECF8FE393E0809396219093FC
:1008100097218091942190919521892B09F098CF6F
:100820008FE393E0809394219093952191CFECE80E
:10083000F1E280819181809332249093332480E38C
:1008400093E0808391838DE292E20C9473200F9366
:100850008EEA93E080930E2090930F20E0E1F0E287
:1008600084858D788487848581608487848981608C
:10087000848BAEE8B1E28D919C91119780933524E1
:100880009093362483E493E08D939C93128E138E81
:1008900080E090E8868B978BE4E2F0E202E6069334
:1008A0000F910895E0E1F0E284858D788487848556
:1008B0008160848784898160848B0895E0E1F0E21F
:1008C00084858D7984870895E0ECF4E08CE190E2F2
:1008D00086839783138281818E7F8183A0E1B0E23A
:1008E0001C961C921C9783E41D968C931D978CE498
:1008F00091E250968D939C93519782E054968C93FD
:10090000549783E655968C9355978CE490E25896CD
:100910008D939C9359978EE393E080938E219093CF
:100920008F2185E693E080938C2190938D2182EE38
:1009300080838181816081830895CF92DF92EF92DD
:10094000FF920F931F93833008F060C0E114F1040D
:1009500009F477C0C114D10409F47BC090E0FC0114
:10096000E295F295F07FFE27E07FFE27E05EFF4DE7
:100970004083518309301105A0F5FC01E295F29501
:10098000F07FFE27E07FFE27DF01A05FBF4D1D96B1
:100990002C931D9732E01C963C931C9758966D93B0
:1009A0007C935997E05FFF4D258B22E0248BFC015F
:1009B000EE0FFF1FEE0FFF1FE257FE4DE082F182A8
:1009C000880F991F880F991FFC01E457FE4DC082C4
:1009D000D18281E01F910F91FF90EF90DF90CF9037
:1009E00008950131110558F101321105B8F10134B2
:1009F0001105B0F101381105A8F1013031E01307FC
:100A000098F10130124090F12760B7CF1F9293E028
:100A10009F931F928F9385E993E09F938F930E94FA
:100A20004B200F900F900F900F900F900F9080E041
:100A30001F910F91FF90EF90DF90CF90089521606C
:100A40009CCF9FE3E92E93E0F92EC114D10409F065
:100A500085CFBFE3CB2EB3E0DB2E80CF22608DCFDE
:100A600023608BCF246089CF256087CF266085CF18
:100A7000EF92FF920F931F938F77833008F05FC040
:100A8000E114F10409F474C00115110509F478C0EA
:100A900090E0FC01EE0FFF1FEE0FFF1FE257FE4D2F
:100AA000E082F182FC01EE0FFF1FEE0FFF1FE45703
:100AB000FE4D00831183FC01E295F295F07FFE2745
:100AC000E07FFE27E05EFF4D608371838295929503
:100AD000907F9827807F9827FC01E05FFF4D168666
:100AE0001786128A138A29303105A0F420ED258754
:100AF0001486408F518F168A178A128E138EFC012E
:100B0000E05FFF4D258B148A81E01F910F91FF90CC
:100B1000EF9008952131310548F12132310598F1E6
:100B20002134310590F12138310588F1213061E01F
:100B3000360778F12130324070F526EDD8CF1F927C
:100B400093E09F931F928F938CE793E09F938F93F3
:100B50000E944B200F900F900F900F900F900F90CE
:100B600080E01F910F91FF90EF90089521EDBFCF8E
:100B70009FE3E92E93E0F92E0115110509F088CFC6
:100B80000FE313E085CF22EDB2CF23EDB0CF24EDFC
:100B9000AECF25EDACCF27EDAACF0F93E0E1F0E289
:100BA000128E138E90E09068868B978BE4E2F0E2D1
:100BB00002E606930F9108950F93ECE1F0E202E74D
:100BC00006930F9108950F93E0E1F0E2858584602C
:100BD000858785898460858BECE1F0E200E60693E9
:100BE0000F910895AB011092CA01BC018CE490E210
:100BF0000E94911F8CE490E208951F920F920FB60D
:100C00000F9211240BB60F920F932F933F934F9394
:100C10005F936F937F938F939F93AF93BF93CF9384
:100C2000DF93EF93FF938091CC0481FD3DC08091D1
:100C3000CC0480FD16C0FF91EF91DF91CF91BF9161
:100C4000AF919F918F917F916F915F914F913F9164
:100C50002F910F910F900BBE0F900FBE0F901F9012
:100C6000189581E08093CC04CCE1D0E2FE0100E352
:100C7000069388E0ECE4F1E2A8E9B1E201900D927C
:100C80008A95E1F70E943C078111D5CF80911D2004
:100C9000846080931D20809125208460809325208E
:100CA000FE0100E60693C7CFE091C5048091C6041B
:100CB0009091C704EE0FFF0BE80FF91F808191811F
:100CC0002091C6043091C704FC01E21BF30BF6959A
:100CD000E795F695E795EE7FF170E457FE4D0190AC
:100CE000F081E02D1995A7CF1F920F920FB60F92AA
:100CF00011240BB60F922F933F934F935F936F93F3
:100D00007F938F939F93AF93BF93EF93FF9382E76C
:100D100093E09F938F930E944B208091CA040F9081
:100D20000F9087FD84C08091CA048E7009F064C062
:100D30008091CA0480FD6FC080E78093CA048091CF
:100D4000C20484FD13C0FF91EF91BF91AF919F91B9
:100D50008F917F916F915F914F913F912F910F9064
:100D60000BBE0F900FBE0F901F9018958091C2047C
:100D70008F7E8093C2048CE190E28093C6049093AE
:100D8000C7041092C3048091C1048E7F8093C10474
:100D900010921C2083E480931D208CE491E28093C8
:100DA00020209093212082E08093242083E680936A
:100DB00025208CE490E280932820909329208EE3D4
:100DC00093E080938E2190938F2185E693E080932A
:100DD0008C2190938D2182EE8093C0048091C10478
:100DE00081608093C10486E593E09F938F930E9476
:100DF0004B200F900F90A7CF8EE08093CA048EE611
:100E000093E09F938F930E944B200F900F908091BF
:100E1000CA0480FF91CF81E08093CA0487E693E003
:100E20009F938F930E944B200F900F908CCF80E860
:100E30008093CA0478CF809198218076D9F48091EC
:100E40009921853011F081E0089580919A218F7762
:100E50008093C3048091C3041F928F938EE194E02A
:100E60009F938F930E944B200F900F900F900F90A5
:100E700081E0089580E00895FF920F931F93CF9330
:100E8000DF931F921F92CDB7DEB7809198218076B5
:100E900009F066C080919921853009F494C008F466
:100EA00043C0883009F4AAC0893009F466C086308E
:100EB00009F056C060919A21F0909B2119821A8204
:100EC000AE014F5F5F4F8F2D0E943C08009709F4E1
:100ED000C3C069817A816115710509F4BDC0209193
:100EE0009E2130919F218C012817390708F4A0C05A
:100EF00080E26C34780729F0A8018CE490E20E942B
:100F0000A51F802F0E94CD050E945204013081E070
:100F1000180708F08FC081E00F900F90DF91CF91FC
:100F20001F910F91FF900895813091F178F5109203
:100F30004C2010924D2084E194E080930E209093F9
:100F40000F200E94520482E00E94CD0588E094E0C8
:100F50009F938F930E944B200F900F9081E0DCCFE6
:100F6000E091A121F091A22119950F900F90DF91AE
:100F7000CF911F910F91FF90089580919A219091A8
:100F80009B21019709F46CC080E0EFCF833041F7DB
:100F90008DEF93E080930E2090930F200E945204D7
:100FA00080910F208F9380910E208F930E944B2071
:100FB0000F900F9081E00F900F90DF91CF911F91D4
:100FC0000F91FF9008950E94270480919B218F9399
:100FD00080919A218F938DEE93E09F938F930E943F
:100FE0004B200F900F900F900F9081E00F900F907B
:100FF000DF91CF911F910F91FF90089586EC93E0C0
:101000009F938F930E944B208091A02180934C202E
:101010000E94520481E00E94CD050F900F9081E064
:101020000F900F90DF91CF911F910F91FF90089536
:1010300089015ECF1F930F931F92FF9281ED93E082
:101040009F938F930E944B200F900F900F900F90C3
:101050000F900F9081E060CF0E94E30581E05CCFAC
:1010600080E00E94CD0580919A218093A0210E946A
:10107000DC058BEB93E06CCF0F931F93CF93DF9343
:101080008A01823039F18330B9F0813081F0C0E0DB
:10109000D0E080E090E0BE010E94F205F80180837C
:1010A0009183CE01DF91CF911F910F910895C2E1FD
:1010B000D0E08DE295E0EFCF633088F4E62FF0E0EA
:1010C000EE0FFF1FE35FFD4D80819181FC01C49114
:1010D000D0E0E1CFC6ECD0E087E694E0DCCF80E062
:1010E00090E0F4CF089591E0823008F090E0892FED
:1010F000089508950895089580E00895CF92DF92AD
:10110000EF92FF92FC0182819381039729F0FF9077
:10111000EF90DF90CF90089580914E21C0904D21A7
:10112000D12CE12CF12CFE2CED2CDC2CCC24E82A4B
:1011300080914C21C82A80919C2190919D218238D8
:10114000910509F44DC0019711F10E94520480915C
:101150006A3590916B3520919D212F9320919C2190
:101160002F939F938F93FF92EF92DF92CF928AE318
:1011700092E29F938F930E9437208DB79EB70A9675
:101180008DBF9EBFFF90EF90DF90CF900895C092EB
:101190006635D0926735E0926835F09269352091D6
:1011A0006635309167354091683550916935609169
:1011B0005A3570915B3580915C3590915D350E9418
:1011C000D01D2150310920936A3530936B358091C1
:1011D0006A3590916B358093360890933708B5CF78
:1011E000C0925E35D0925F35E0926035F092613505
:1011F00020915E3530915F35409160355091613579
:1012000060915A3570915B3580915C3590915D3578
:101210000E94D01D215031092093623530936335EF
:1012200094CFCF92DF92EF92FF92CF93DF93E7E3D9
:10123000F5E21082118210821182108211821082D6
:10124000118210821182108211821082118210820A
:1012500011821082118210821182108211821082FA
:1012600011821082118210821182108211821082EA
:101270001182E0E0F9E010A211A28FEF9FEF86A3A8
:1012800097A387E080831182168280E09CE6ACED14
:10129000B2E080935A3590935B35A0935C35B09360
:1012A0005D35109259350E94111480E8C82E8BEBE1
:1012B000D82EE12CF12CC0926635D0926735E092A1
:1012C0006835F0926935C7EED3E0C0936A35D093A4
:1012D0006B350E94C30DC0925E35D0925F35E092AF
:1012E0006035F0926135C0936235D0936335DF91FC
:1012F000CF91FF90EF90DF90CF900895CF93DF9341
:10130000809199218B3009F447C0813879F181307F
:10131000B1F01F928F93809198211F928F9383E950
:1013200092E29F938F930E9437200F900F900F901F
:101330000F900F900F9080E0DF91CF9108958091F2
:101340009821823209F498C08AE495E09F938F93A4
:1013500085E592E29F938F930E9437200F900F9024
:101360000F900F9080E0DF91CF91089580919821A8
:10137000823A09F449C08FE395E09F938F9385E506
:1013800092E29F938F930E943720809199210F9032
:101390000F900F900F90BDCF80919821813009F070
:1013A00068C080919C2190919D218130910509F424
:1013B00073C0029709F06DC080919A2190919B2192
:1013C000892B09F472C00E949D1380E00E94CD0514
:1013D0000E94520480919B218F9380919A218F9338
:1013E00080919D218F9380919C218F9386E692E23C
:1013F0009F938F930E9437200F900F900F900F9024
:101400000F900F9081E098CF80919B21813009F05F
:10141000B2CF80919C21813009F44DC0CEE5D5E357
:101420008A8180934E20898180934D20888180938A
:101430004C200E94520483E00E94CD0580919D21A2
:101440008F9380919C218F938B818F938A818F932F
:1014500089818F9388818F938BE792E29F938F93FB
:101460000E9437208DB79EB708968DBF9EBF81E042
:1014700063CF88E595E06ACF8EE798E080938C2172
:1014800090938D2180E00E94CD050E94520481E05E
:1014900053CF8BE595E05ACF80919A2190919B2173
:1014A000892B31F00E94440D90CF0E94BF138DCF45
:1014B0000E94810D8ACFC6E6D5E3B2CF8091713507
:1014C000811101C008950C94F00F2F923F924F921A
:1014D0005F926F927F928F929F92AF92BF92CF92C4
:1014E000DF92EF92FF920F931F93CF93DF93CDB7CD
:1014F000DEB72A97CDBFDEBFFC0122813381128285
:10150000138280912C20897880932C2020902009B0
:101510003090210980915735909158358115F8E028
:101520009F07E0F540912423509125230196809355
:10153000573590935835811502E0900708F448C05C
:101540004101841A950A40912023509121236091F2
:10155000222370912323480D511D611D711D40935D
:1015600020235093212360932223709323234090C0
:101570001C2350901D2360901E2370901F23420E49
:10158000531E611C711C40921C2350921D236092BB
:101590001E2370921F238115984059F12092242315
:1015A000309225232A96CDBFDEBFDF91CF911F91C8
:1015B0000F91FF90EF90DF90CF90BF90AF909F90F2
:1015C0008F907F906F905F904F903F902F900895F5
:1015D0001092202310922123109222231092232371
:1015E00010921C2310921D2310921E2310921F2371
:1015F000D5CFCB01BA012AE0660F771F881F991F4C
:101600002A95D1F72091663530916735409168353C
:10161000509169350E94F21DE4E0FDE0E0939021D5
:10162000F0939121E4ECFCE0E0939221F09393217C
:1016300063015201D694C794B794A79476016501CB
:1016400056016701E12CF12C8701A982BA82CB8275
:10165000DC82ED82FE820F831887E12CF12C00E002
:1016600010E00E941F1EF22EE32ED42EC52E2093D2
:101670005A3530935B3540935C3550935D352091FE
:1016800066353091673540916835509169356F2DD9
:101690007E2D8D2D9C2D0E94D01D2150310920932F
:1016A0006A3530936B3510926C3510926D35209100
:1016B0005E3530915F3540916035509161356F2DC9
:1016C0007E2D8D2D9C2D0E94D01D215031092093FF
:1016D00062353093633580916235909163358093A4
:1016E000760890937708109264351092653581E002
:1016F0008093593599249F928F927F926F925F9237
:101700004F92CF92DF92EF92FF928BEA92E29F93F9
:101710008F930E943720CDBFDEBF40CF2F923F92E4
:101720004F925F926F927F928F929F92AF92BF92F1
:10173000CF92DF92EF92FF920F931F93CF93DF939D
:10174000CDB7DEB72A97CDBFDEBFFC012281338142
:101750001282138280912C20897880932C202090F3
:101760002009309021098091573590915835811585
:10177000F8E09F07E0F540911A2350911B23019652
:101780008093573590935835811502E0900708F4FF
:1017900048C04101841A950A409120235091212389
:1017A0006091222370912323480D511D611D711DED
:1017B000409320235093212360932223709323236B
:1017C00040901C2350901D2360901E2370901F2377
:1017D000420E531E611C711C40921C2350921D230B
:1017E00060921E2370921F238115984059F1209218
:1017F0001A2330921B232A96CDBFDEBFDF91CF91F3
:101800001F910F91FF90EF90DF90CF90BF90AF901E
:101810009F908F907F906F905F904F903F902F9010
:1018200008951092202310922123109222231092C7
:10183000232310921C2310921D2310921E2310921A
:101840001F23D5CFCB01BA012AE0660F771F881F6F
:10185000991F2A95D1F720916635309167354091CF
:101860006835509169350E94F21DE4E0FDE0E09397
:101870009021F0939121E4ECFCE0E0939221F0932D
:10188000932163015201D694C794B794A79476012B
:10189000650156016701E12CF12C8701A982BA820A
:1018A000CB82DC82ED82FE820F831887E12CF12C43
:1018B00000E010E00E941F1EF22EE32ED42EC52E53
:1018C00020935A3530935B3540935C3550935D35AA
:1018D0002091663530916735409168355091693572
:1018E0006F2D7E2D8D2D9C2D0E94D01D21503109F4
:1018F00020936A3530936B3510926C3510926D35AC
:1019000020915E3530915F35409160355091613561
:101910006F2D7E2D8D2D9C2D0E94D01D21503109C3
:1019200020936235309363358091623590916335B1
:1019300080937608909377081092643510926535FD
:1019400081E08093593599249F928F927F926F9274
:101950005F924F92CF92DF92EF92FF928BEA92E2E8
:101960009F938F930E943720CDBFDEBF40CF9F93C0
:101970008F9385E592E29F938F930E9437200F907B
:101980000F900F900F90089540913620509137207E
:1019900060916E356D5F6F70262F30E080917035ED
:1019A00090E001968F7099272817390719F18091D7
:1019B000733590E0FC01EE0FFF1F982F8827E80F8A
:1019C000F91FE95CFA4D4083518360937335809130
:1019D0006E358F5F8F7080936E35C901880F991FA8
:1019E000322F2227280F391F295C3B4D20933820A6
:1019F00030933920109236201092372080912C207D
:101A0000897880932C20089540912E2050912F208A
:101A100060916E356D5F6F70262F30E0809170356C
:101A200090E001968F7099272817390719F1809156
:101A3000743590E0FC01EE0FFF1F982F8827E80F08
:101A4000F91FE95CFA4D40835183609374358091AE
:101A50006E358F5F8F7080936E35C901880F991F27
:101A6000322F2227280F391F295C3B4D209330202D
:101A70003093312010922E2010922F2080912C2014
:101A8000897880932C200895EF92FF920F931F93F3
:101A900010925735109258358FE080936E358093B1
:101AA0006F358093703510926C3510926D351092B1
:101AB000743581E0809373358091593581111AC056
:101AC0008EE8E82E8BE0F82E05E61AE020E031E003
:101AD00049E355E267E374E281E00E94380581E062
:101AE0008093713585EC92E21F910F91FF90EF90FA
:101AF0000C94732094ECE92E9CE0F92E04E01DE098
:101B0000E5CF10927135E0E0F1E080898F77808B2E
:101B100080A18F7780A30895EF92FF920F931F9378
:101B200010925735109258358FE080936E35809320
:101B30006F358093703510926C3510926D35109220
:101B4000743581E08093733580915935811114C0CB
:101B50008EE8E82E8BE0F82E05E61AE020E031E072
:101B600049E355E267E374E281E00E9438051F9182
:101B70000F91FF90EF90089594ECE92E9CE0F92EE0
:101B800004E01DE0EBCFEF92FF920F931F9380ECE8
:101B90008093800184EC80938401109288011092DC
:101BA0008C018CE08093200383E48093210381E007
:101BB000809322039091200391609093200394E0FE
:101BC0009093230392E09093CA01E3E3F0E0E49161
:101BD000E0932803E2E3F0E0E491E0932903E7E3F4
:101BE000F0E0E491E0932A03E6E3F0E0E491E0938F
:101BF0002B03E5E2F0E0E491E0934D021092CA017C
:101C000080930008109220081092210828EB3BE0F6
:101C100020932608309327082CE330E020932808EF
:101C20003093290810920608109201089CE89093BE
:101C3000000126E22093100192E39093110120937A
:101C4000200190932101809313018093230128E3C5
:101C500020931C0193E090931D0110921E0110929D
:101C60001A0120932C0190932D0110922E011092B5
:101C70002A0120E430E020931401309315011092E2
:101C8000160120932401309325011092260199ED2D
:101C9000909312019093220110925735109258356B
:101CA0009FE090936E3590936F35909370351092BE
:101CB0006C3510926D351092743580937335809128
:101CC0005935811116C08EE8E82E8BE0F82E05E616
:101CD0001AE020E031E049E355E267E374E281E095
:101CE0000E943805109271351F910F91FF90EF906F
:101CF000089594ECE92E9CE0F92E04E01DE0E9CF74
:101D0000E0E0F1E081898063818B81A1806381A320
:101D100083E38383109220081092210880898068D1
:101D2000808B8081806880830895CF92DF92EF92CC
:101D3000FF920F931F93CF93DF93FC01C62FD0E048
:101D40008E01000F111FDC2FCC27C8018C0F9D1FA7
:101D5000895C9B4DDC01B3952D913C9124833583A7
:101D60008087918781818061818380916E35681B36
:101D70006F7080916C3590916D35892B09F472C02C
:101D80003091A72180916C3590916D3580932623F9
:101D90009093272328EF260F23170CF48DC0309142
:101DA000A62132170CF4B7C02F3F0CF48AC02230A2
:101DB0007CF0695080916C3590916D353091AA21FD
:101DC0006302800D911D1124809326239093272375
:101DD00024308CF0022E000C330B255031096FE0BB
:101DE000629FA001639F500D1124840F951F809363
:101DF00026239093272380933608909337082091C9
:101E00002823309129232F5F3F4F2093282330939D
:101E1000292340912A2350912B2360912C237091E8
:101E20002D236A017B01C80ED91EE11CF11CC701DC
:101E3000B601C0922A23D0922B23E0922C23F09259
:101E40002D234091A8215091A9212417350709F489
:101E500065C0DF91CF911F910F91FF90EF90DF90C0
:101E6000CF90089580916A3590916B3580936C3551
:101E700090936D358DE08093AA2180E098E0809367
:101E8000A8219093A92110922A2310922B2310921B
:101E90002C2310922D23109228231092292381E8BD
:101EA0008093A62180916C3590916D358093262387
:101EB0009093272328EF260F2093A7212F3F0CF084
:101EC00076CF80916C3590916D35422F022E000CAB
:101ED000550BFA0131963091AA21BF013603D0018A
:101EE000379FB00D11248A0F9B1F80932623909358
:101EF00027232D3F0CF06CCF4B5F5F4F6FE0649F4B
:101F00009001659F300D1124820F931F809326232B
:101F10009093272370CF2093A62146CF40E050E036
:101F20000E94D01D2150310920936C3530936D35BE
:101F3000C00FD11FC95CDA4D2881398180916C3581
:101F400090916D353F932F932091A621422F022E21
:101F5000000C550B5F932F932091A721422F022E47
:101F6000000C550B5F932F932091AA21422F022E34
:101F7000000C550B5F932F939F938F938CEC92E201
:101F80009F938F930E9437208091A8219091A9213F
:101F90002DB73EB7245F3F4F2DBF3EBF883632E49A
:101FA000930788F42091AA2123502093AA21880F17
:101FB000991F8093A8219093A9218FE78093A7214F
:101FC00081E88093A62110922A2310922B2310924D
:101FD0002C2310922D23109228231092292339CFDD
:101FE0009091100180912001892B87FD0BC0809179
:101FF0006F352091703590E0821B91098F70992781
:1020000008977CF590916F3580916E35981741F166
:1020100040916F354F5F4F70842F90E0FC01EE0FC1
:10202000FF1F982F8827E80FF91FDF01A95CBA4D21
:102030008D919C911197892B81F0E85CFB4D21E0FB
:1020400030E08081805880832E5F3F4F8D919C913E
:102050001197329682179307A0F740936F35089532
:102060000895609170356F5F6F7080E191E00E941C
:10207000950E609170356E5F6F7080E291E00E9406
:10208000950E80911101806380931101809121014F
:1020900080638093210183E38093030110922008E1
:1020A0001092210880911001806880931001809126
:1020B0000001806880930001A5CF1F920F920FB698
:1020C0000F9211240BB60F92EF92FF920F931F9372
:1020D0002F933F934F935F936F937F938F939F9330
:1020E000AF93BF93CF93DF93EF93FF938091110151
:1020F00080618093110180916F352091703590E05F
:10210000821B91098F7099270397CCF4FF91EF916F
:10211000DF91CF91BF91AF919F918F917F916F91FF
:102120005F914F913F912F911F910F91FF90EF90F1
:102130000F900BBE0F900FBE0F901F9018958091BF
:1021400070358D5F8F70C82FD0E08E01000F111F8A
:10215000DC2FCC2798012C0F3D1F295C3B4DF9014A
:10216000F3954081518140931401509315012093C0
:102170001801309319019091110190619093110110
:1021800090916E35891B8F7020916C3530916D3533
:10219000232B09F472C02091A72140916C355091F6
:1021A0006D35409326235093272398EF980F92176D
:1021B0000CF48DC02091A621291714F49093A62128
:1021C0009F3F0CF489C092307CF0895040916C356F
:1021D00050916D352091AA218202400D511D11248C
:1021E0004093262350932723943084F0892F990F0E
:1021F000990B05976FE0689F9001699F300D11243E
:10220000420F531F409326235093272340933608B1
:102210005093370820912823309129232F5F3F4F77
:10222000209328233093292380912A2390912B23D4
:10223000A0912C23B0912D23BC01CD01640F751FFB
:10224000811D911D60932A2370932B2380932C234F
:1022500090932D234091A8215091A921241735074F
:1022600009F466C08091100187FDC4C0809170356B
:102270008F5F8F708093703549CF20916A35309190
:102280006B3520936C3530936D359DE09093AA218A
:1022900020E038E02093A8213093A92110922A232E
:1022A00010922B2310922C2310922D23109228236E
:1022B0001092292391E89093A62140916C3550917A
:1022C0006D35409326235093272398EF980F9093D2
:1022D000A7219F3F0CF077CFA0916C35B0916D3561
:1022E000292F092E000C330BF90131968091AA2178
:1022F000682FAF0164037001659FF00C1124AD01DC
:102300004E0D5F1D40932623509327239D3F0CF0D5
:102310006BCF2B5F3F4F6FE0629FC001639F900DBB
:102320001124480F591F40932623509327236ECF23
:1023300040E050E00E94D01D2150310920936C35BF
:1023400030936D35C00FD11FC95CDA4D28813981BA
:1023500080916C3590916D353F932F932091A621FC
:10236000422F022E000C550B5F932F932091A72133
:10237000422F022E000C550B5F932F932091AA2120
:10238000422F022E000C550B5F932F939F938F9338
:102390008CEC92E29F938F930E9437208091A8212A
:1023A0009091A9212DB73EB7245F3F4F2DBF3EBF6F
:1023B000883632E4930788F42091AA212350209391
:1023C000AA21880F991F8093A8219093A9218FE7B4
:1023D0008093A72181E88093A62110922A2310924E
:1023E0002B2310922C2310922D231092282310922D
:1023F000292338CF8CEE92E20E94732087CE1F9261
:102400000F920FB60F9211240BB60F92EF92FF921C
:102410000F931F932F933F934F935F936F937F93EC
:102420008F939F93AF93BF93CF93DF93EF93FF93DC
:102430008091210180618093210180916F352091ED
:10244000703590E0821B91098F7099270397CCF427
:10245000FF91EF91DF91CF91BF91AF919F918F91BC
:102460007F916F915F914F913F912F911F910F91AC
:10247000FF90EF900F900BBE0F900FBE0F901F902C
:102480001895809170358D5F8F70C82FD0E08E01C8
:10249000000F111FDC2FCC2798012C0F3D1F295C4A
:1024A0003B4DF901F39540815181409324015093B4
:1024B00025012093280130932901909121019061F9
:1024C0009093210190916E35891B8F7020916C350E
:1024D00030916D35232B09F472C02091A7214091D2
:1024E0006C3550916D35409326235093272398EFF8
:1024F000980F92170CF48DC02091A621291714F47F
:102500009093A6219F3F0CF489C092307CF08950B3
:1025100040916C3550916D352091AA218202400D79
:10252000511D11244093262350932723943084F087
:10253000892F990F990B05976FE0689F9001699F0C
:10254000300D1124420F531F40932623509327230D
:10255000409336085093370820912823309129233F
:102560002F5F3F4F209328233093292380912A23E4
:1025700090912B23A0912C23B0912D23BC01CD0150
:10258000640F751F811D911D60932A2370932B2367
:1025900080932C2390932D234091A8215091A92121
:1025A0002417350709F466C08091200187FD50CFBC
:1025B000809170358F5F8F708093703549CF2091F7
:1025C0006A3530916B3520936C3530936D359DE0D5
:1025D0009093AA2120E038E02093A8213093A921EC
:1025E00010922A2310922B2310922C2310922D2329
:1025F000109228231092292391E89093A6214091CC
:102600006C3550916D35409326235093272398EFD6
:10261000980F9093A7219F3F0CF077CFA0916C3536
:10262000B0916D35292F092E000C330BF90131962D
:102630008091AA21682FAF0164037001659FF00C9F
:102640001124AD014E0D5F1D409326235093272387
:102650009D3F0CF06BCF2B5F3F4F6FE0629FC0013F
:10266000639F900D1124480F591F409326235093C8
:1026700027236ECF40E050E00E94D01D2150310949
:1026800020936C3530936D35C00FD11FC95CDA4D86
:102690002881398180916C3590916D353F932F93CE
:1026A0002091A621422F022E000C550B5F932F93F1
:1026B0002091A721422F022E000C550B5F932F93E0
:1026C0002091AA21422F022E000C550B5F932F93CD
:1026D0009F938F938CEC92E29F938F930E9437206D
:1026E0008091A8219091A9212DB73EB7245F3F4F3B
:1026F0002DBF3EBF883632E4930788F42091AA218B
:1027000023502093AA21880F991F8093A82190938A
:10271000A9218FE78093A72181E88093A6211092B9
:102720002A2310922B2310922C2310922D231092E7
:1027300028231092292338CF08958DEF92E20E942A
:102740007320E0E4F2E080818160808320915E3537
:1027500030915F35409160355091613560915A35C7
:1027600070915B3580915C3590915D350E94D01DF4
:102770002150310920937608309377080895E0E4DA
:10278000F2E080818E7F80830895EF92FF920F9315
:102790001F9384E093E20E9473208CE9E82E83E18A
:1027A000F82E870120E830E047ED54E367E574E355
:1027B00082E80E9438051F910F91FF90EF900895D5
:1027C000CF93DF93CAECD1E082E08883E4E2F0E0CB
:1027D000E491A0E4B2E01C96EC931C97E5E2F0E0F3
:1027E000E4911D96EC931D97188296E111969C93A7
:1027F000119790E112969C93129799E313969C93EC
:10280000139797E014969C93149790968C939097B7
:1028100081E091968C93919792961C92DF91CF9143
:102820000895EF92FF920F931F93CF93DF93E0E40D
:10283000F8E081E0808310A211A228EB3BE026A300
:1028400037A324E630E020A731A716821182E0E802
:10285000F1E094E29283128698EC97831786CAEC93
:10286000D1E022E02883E4E2F0E0E491A0E4B2E0E9
:102870001C96EC931C97E5E2F0E0E4911D96EC9336
:102880001D97188296E111969C93119790E11296EC
:102890009C93129799E313969C93139797E0149641
:1028A0009C93149790962C93909791968C939197D4
:1028B00092961C92E0E0F1E084E8808395E290AB90
:1028C00082E381AB909340018093410183E083AB2D
:1028D0008093430187E594E384AF95AF16AE30E56E
:1028E00030AF21AF12AE87ED94E380934C0190930B
:1028F0004D0110924E0130934801209349011092EE
:102900004A0180E890E084AB95AB16AA809344011D
:1029100090934501109246018DE982AB809342016C
:1029200080A9806880AB84E093E20E9473208CE9E8
:10293000E82E83E1F82E870120E830E047ED54E3EC
:1029400067E574E382E80E943805DF91CF911F911B
:102950000F91FF90EF9008951F920F920FB60F9274
:1029600011240BB60F928F939F93EF93FF93E0E0A8
:10297000F1E081A9806181ABE0E1F0E287E594E3D9
:1029800080AB91AB12AA13AA80E890E086A797A724
:1029900084A9897884ABFF91EF919F918F910F90DB
:1029A0000BBE0F900FBE0F901F9018951F920F92A5
:1029B0000FB60F9211240BB60F928F939F93EF9344
:1029C000FF93E1E4F1E0808180618083E0E1F0E267
:1029D00087ED94E380AF91AF12AE13AE80E890E044
:1029E00086AB97AB84A9897884ABFF91EF919F91D7
:1029F0008F910F900BBE0F900FBE0F901F901895E8
:102A00008A3049F09091A10895FFFCCF8093A008EF
:102A100080E090E008959091A10895FFFCCF9DE0A3
:102A20009093A008EFCF8A3049F09091B10895FFBC
:102A3000FCCF8093B00880E090E008959091B108B9
:102A400095FFFCCF9DE09093B008EFCF8A3049F01E
:102A50009091A10995FFFCCF8093A00980E090E0C0
:102A600008959091A10995FFFCCF9DE09093A00956
:102A7000EFCF8A3049F09091B10995FFFCCF809358
:102A8000B00980E090E008959091B10995FFFCCFE6
:102A90009DE09093B009EFCF8A3049F09091A10A60
:102AA00095FFFCCF8093A00A80E090E0089590917C
:102AB000A10A95FFFCCF9DE09093A00AEFCF8A304A
:102AC00049F09091B10A95FFFCCF8093B00A80E065
:102AD00090E008959091B10A95FFFCCF9DE090930E
:102AE000B00AEFCF8A3049F09091A10B95FFFCCF4F
:102AF0008093A00B80E090E008959091A10B95FF4A
:102B0000FCCF9DE09093A00BEFCFCF92EF920F936D
:102B10001F93CF93DF93EC01C03B89E0D80709F402
:102B2000C6C030F1C03B8AE0D80709F499C0C03A6A
:102B30008BE0D80709F47AC0C03A8AE0D80709F4D4
:102B40009CC083E895E09F938F93809188358F9305
:102B5000809187358F930E94DE1F0F900F900F900A
:102B60000F90DF91CF911F910F91EF90CF9008952B
:102B7000C03B88E0D80709F48DC0C03A89E0D80787
:102B800009F461C0C03A88E0D807D9F684E08093A0
:102B9000420688E08093410600937D3510937E3590
:102BA0000FEF11E22B83DB01CA01955EA844BF4FF2
:102BB000880F991FAA1FBB1F880F991FAA1FBB1F31
:102BC000880F991FAA1FBB1F440F551F661F771F31
:102BD000440F551F661F771F9A01AB01220F331F49
:102BE000441F551F220F331F441F551FBC01CD0129
:102BF0000E94D01D215031092E833F838CE18C83AC
:102C000083E08D83EE2021F0009385351093863587
:102C1000CC2009F4A6CF0093873510938835DF9137
:102C2000CF911F910F91EF90CF90089584E0809302
:102C3000820688E08093810600937735109378357B
:102C40000BEA11E2AFCF84E08093620688E08093C4
:102C5000610600937B3510937C3503EE11E2A2CF21
:102C600080E48093820680E8809381060093793522
:102C700010937A3509EB11E295CF84E080938206B8
:102C800088E08093810600937F351093803507ECB0
:102C900011E288CF80E48093420680E88093410669
:102CA000009381351093823501EF11E27BCF80E4F0
:102CB0008093620680E880936106009375351093D7
:102CC000763505ED11E26ECFFC016A3029F0918175
:102CD00095FFFDCF60830895818185FFFDCF8DE055
:102CE0008083F5CFFC01918195FFFDCF608308952E
:102CF0000F931F93CF93DF93CDB7DEB72A97CDBF46
:102D0000DEBF8C01CB014AE0BE016F5F7F4F0E94A6
:102D1000B91F9981992379F0FE0132962DE09A30FE
:102D200091F0D80111968C91119785FFFACF9C9361
:102D300091919111F4CF2A96CDBFDEBFDF91CF9153
:102D40001F910F910895D80111968C91119785FFCD
:102D5000FACF2C93E6CFFC01DB012C91222359F012
:102D600011963DE02A3041F0918195FFFDCF2083FF
:102D70002D912111F7CF0895818185FFFDCF3083FB
:102D8000F3CFFC014115510559F0DB01460F571FE8
:102D90008D91918195FFFDCF8083A417B507C1F771
:102DA0000895FF920F931F93CF93DF93EC018B0154
:102DB000CB010E941121882379F09DE0F92E8A3001
:102DC00089F0998195FFFDCF88830F5F1F4FC80160
:102DD0000E9411218111F3CFDF91CF911F910F91AB
:102DE000FF900895998195FFFDCFF882EACFDC012D
:102DF000FB012491222369F03DE02A3059F011961D
:102E00009C91119795FFFBCF2C9331962491211122
:102E1000F4CF089511968C91119785FFFBCF3C93C9
:102E2000EECFFC01918197FFFDCF80810895AF9295
:102E3000BF92CF92DF92EF92FF920F931F93CF93A7
:102E4000DF93FC01F22ED32FC42FB52FA62ED72E41
:102E500080E4E82E90E3C92E21E3B22E98014F2D95
:102E60005D2F6C2F7B2F8A2D9D2DA0E00E94951E3B
:102E70001CF1818185FFFDCFC08298014F2D5D2F10
:102E80006C2F7B2F8A2D9D2D01E00E947C1E8901D5
:102E9000F42ED52FC62FB72FA82ED92EEA94E110E5
:102EA000DDCFDF91CF911F910F91FF90EF90DF90D9
:102EB000CF90BF90AF900895818185FFFDCFB08204
:102EC000DCCFFC0128E030E341E367FD08C09181DD
:102ED00095FFFDCF3083660F2150B9F708958181AA
:102EE00085FFFDCF4083F7CF8A3039F09091A1085C
:102EF00095FFFCCF8093A00808959091A10895FFBD
:102F0000FCCF9DE09093A008F1CF803B29E0920791
:102F100009F454C0E8F0803BFAE09F07D1F1803A11
:102F20002BE0920741F1803AEAE09E07C9F18EE575
:102F300095E09F938F93809188358F93809187350B
:102F40008F930E94DE1F0F900F900F900F900895A7
:102F5000803BF8E09F0759F1803A29E0920791F011
:102F6000803AE8E09E0719F740937D3550937E350F
:102F7000FC01638308954093773550937835FC01C5
:102F80006383089540937B3550937C35FC016383C4
:102F900008954093793550937A35FC016383089501
:102FA00040937F3550938035FC01638308954093AF
:102FB000813550938235FC016383089540937535C4
:102FC00050937635FC01638308951F920F920FB6DC
:102FD0000F9211240BB60F922F933F934F935F9351
:102FE0006F937F938F939F93AF93BF93EF93FF93D1
:102FF0008091A008E0917D35F0917E351995FF9183
:10300000EF91BF91AF919F918F917F916F915F9160
:103010004F913F912F910F900BBE0F900FBE0F90CD
:103020001F9018951F920F920FB60F9211240BB696
:103030000F922F933F934F935F936F937F938F9351
:103040009F93AF93BF93EF93FF938091B008E0916C
:103050008135F09182351995FF91EF91BF91AF9134
:103060009F918F917F916F915F914F913F912F91A0
:103070000F900BBE0F900FBE0F901F9018951F92D0
:103080000F920FB60F9211240BB60F922F933F930E
:103090004F935F936F937F938F939F93AF93BF9360
:1030A000EF93FF938091A009E0917B35F0917C35FF
:1030B0001995FF91EF91BF91AF919F918F917F9162
:1030C0006F915F914F913F912F910F900BBE0F9099
:1030D0000FBE0F901F9018951F920F920FB60F9270
:1030E00011240BB60F922F933F934F935F936F93DF
:1030F0007F938F939F93AF93BF93EF93FF938091B1
:10310000B009E0917535F09176351995FF91EF9101
:10311000BF91AF919F918F917F916F915F914F91EF
:103120003F912F910F900BBE0F900FBE0F901F90ED
:1031300018951F920F920FB60F9211240BB60F9293
:103140002F933F934F935F936F937F938F939F93AF
:10315000AF93BF93EF93FF938091A00AE0917F35E7
:10316000F09180351995FF91EF91BF91AF919F91AB
:103170008F917F916F915F914F913F912F910F9020
:103180000BBE0F900FBE0F901F9018951F920F92BD
:103190000FB60F9211240BB60F922F933F934F93BC
:1031A0005F936F937F938F939F93AF93BF93EF93AF
:1031B000FF938091B00AE0917935F0917A351995B5
:1031C000FF91EF91BF91AF919F918F917F916F91FF
:1031D0005F914F913F912F910F900BBE0F900FBEBB
:1031E0000F901F9018951F920F920FB60F921124F7
:1031F0000BB60F922F933F934F935F936F937F93F1
:103200008F939F93AF93BF93EF93FF938091A00B06
:10321000E0917735F09178351995FF91EF91BF9155
:10322000AF919F918F917F916F915F914F913F915E
:103230002F910F900BBE0F900FBE0F901F901895FF
:103240000F931BBEFC0108ED04BF60830F9108952E
:103250000F938091500088608093500080915100BE
:1032600083FFFCCF1BBE23E080E490E0FC0108ED6F
:1032700004BF20830F9108950F9394E0909356001C
:1032800092E09093CA01EDE1F0E0E491E0936200F6
:103290009093CA01ECE1F0E0E491E09363001092B6
:1032A000CA019BE19093650097EB9093660091E0D3
:1032B000909360009091500097601BBE20E530E035
:1032C000F90108ED04BF90839091510097709730F9
:1032D000D9F71BBE93E024E430E0F90108ED04BF08
:1032E00090838068809355001BBE21E081E490E0CC
:1032F000FC0108ED04BF20838091500080611BBE5B
:1033000020E530E0F90108ED04BF80838091510091
:1033100084FFFCCF81E0809360001BBE24E080E44A
:1033200090E0FC0108ED04BF20830F9108950F93F6
:1033300094E09093560092E09093CA01ECE1F0E0A3
:10334000E491E09363001092CA019BE190936500C1
:1033500097EB9093660091E0909360001BBE97E01E
:1033600020E530E0F90108ED04BF90839091510011
:1033700096709630D9F7809355001BBE20E081E40B
:1033800090E0FC0108ED04BF208381E08093680099
:103390008091500080611BBE20E530E0F90108ED0E
:1033A00004BF80838091510084FFFCCF1BBE24E0CA
:1033B00080E490E0FC0108ED04BF208383E080936B
:1033C00044000F91089588E10E9497192FEF8FE232
:1033D00095E7215080409040E1F700C00000CC24E8
:1033E000C394E12C00E010E020E040EC56EC6DE2EC
:1033F00070E080EA98E00E94851584E797E10E94DA
:103400001F038091A20087608093A2008FEF8093BA
:1034100081068091CC041F928F938CE093E29F935E
:103420008F930E9437202FEF8BE792E92150804045
:103430009040E1F700C000000E94070360E070E0E8
:103440008EE799E00E9466030E94110978940F901C
:103450000F900F900F900E9407030E945E0AFBCF0F
:103460002F923F924F925F926F927F928F929F9294
:10347000AF92BF92CF92DF92EF92FF920F931F9382
:10348000CF93DF93CDB7DEB76097CDBFDEBF7C01B2
:103490001B016A01FC0116821782838181FF44C3EC
:1034A0009E012F5F3F4F3901F7019381F10193FD99
:1034B000859193FF81911F01882309F431C38532DF
:1034C00039F493FD859193FF81911F01853239F481
:1034D000B70190E00E94FB1F56016501E5CF10E0A7
:1034E000512C912CFFE1F915D8F08B3279F038F49A
:1034F000803279F08332A1F4F92DF0612EC08D3243
:1035000061F0803369F4292D21602DC0392D32609E
:10351000932E892D8460982E2AC0E92DE86015C06D
:1035200097FC2DC020ED280F2A3088F496FE06C0A7
:103530003AE0139F200D1124122F19C08AE0589EE3
:10354000200D1124522EE92DE0629E2E10C08E32E5
:1035500031F496FCE5C2F92DF0649F2E08C08C363C
:1035600021F4292D2068922E02C0883641F4F10101
:1035700093FD859193FF81911F018111B3CF9BEB47
:10358000980F933020F4992D9061805E07C09BE9DD
:10359000980F933008F066C1992D9F7E96FF16E034
:1035A0009F73992E853619F49064992E08C086363B
:1035B00021F4392F3068932E02C01111115097FE5B
:1035C00007C01C3350F444244394410E27E00BC041
:1035D000183038F027E017E005C027E09CE3492EBB
:1035E00002C0212F412C560184E0A80EB11CF60127
:1035F0006081718182819381042DA3010E94B91E93
:103600006C01F981FC87F0FF02C0F3FF06C091FC5A
:1036100006C092FE06C000E205C00DE203C00BE248
:1036200001C000E08C858C7019F001115AC29BC258
:1036300097FE10C04C0CFC85F4FF04C08A818133D6
:1036400009F44A94141474F528E0241578F588E0F8
:10365000482E2CC096FC2AC0812F90E08C159D0529
:103660009CF03CEFC3163FEFD30674F0892D8068C1
:10367000982E0AC0E2E0F0E0EC0FFD1FE10FF11D13
:103680008081803319F411501111F4CF97FE0EC0D0
:1036900044244394410E812F90E0C816D9062CF49F
:1036A0001C1904C04424439401C010E097FE06C0D6
:1036B0001C141D0434F4C601019605C085E090E099
:1036C00002C081E090E001110196112331F0212F19
:1036D00030E02F5F3F4F820F931F252D30E0821780
:1036E000930714F4581A01C0512C892D897049F49C
:1036F000552039F0B70180E290E00E94FB1F5A94F8
:10370000F7CF002329F0B701802F90E00E94FB1F24
:1037100093FC09C0552039F0B70180E390E00E9486
:10372000FB1F5A94F7CF97FE4CC04601D7FE02C04C
:10373000812C912CC60188199909F301E80FF91F12
:10374000ED87FE879601241931092F87388B012FC9
:1037500010E01195019511093FEF8316930629F4A6
:10376000B7018EE290E00E94FB1FC814D9044CF010
:103770008F8598898815990524F4ED85FE858181CA
:1037800001C080E3F1E08F1A91082D853E852F5FFF
:103790003F4F2D873E87801691062CF0B70190E0B1
:1037A0000E94FB1FD9CFC814D90441F49A819633E3
:1037B00020F4953319F43C8534FF81E3B70190E0A0
:1037C0004EC08A81813319F09C859F7E9C87B7010A
:1037D00090E00E94FB1F111105C094FC18C085E603
:1037E00090E017C0B7018EE290E00E94FB1F1E5FC1
:1037F00082E001E0080FF301E80FF11D8081B701BD
:1038000090E00E94FB1F802F0113F3CFE6CF85E4E9
:1038100090E0B7010E94FB1FD7FC06C0C114D10481
:1038200041F4EC85E4FF05C0D194C194D1088DE248
:1038300001C08BE2B70190E00E94FB1F80E32AE009
:10384000C216D1042CF08F5FFAE0CF1AD108F7CF5F
:10385000B70190E00E94FB1FB701C601C0960E940D
:10386000FB1F54C1833631F0833779F0833509F07B
:1038700056C020C0560132E0A30EB11CF601808173
:10388000898301E010E0630112C05601F2E0AF0E3F
:10389000B11CF601C080D18096FE03C0612F70E09C
:1038A00002C06FEF7FEFC6010E94AE1F8C01F92DA1
:1038B000FF7714C0560122E0A20EB11CF601C080B1
:1038C000D18096FE03C0612F70E002C06FEF7FEFE2
:1038D000C6010E949A1F8C01F92DF0689F2EF3FDFE
:1038E0001AC0852D90E008171907A8F4B70180E2E7
:1038F00090E00E94FB1F5A94F4CFF60197FC85914B
:1039000097FE81916F01B70190E00E94FB1F51105B
:103910005A94015011090115110579F7F7C0843641
:1039200011F0893661F5560197FE09C024E0A20E18
:10393000B11CF60160817181828193810AC0F2E03D
:10394000AF0EB11CF60160817181072E000C880B4F
:10395000990BF92DFF769F2E97FF09C090958095C2
:10396000709561957F4F8F4F9F4FF0689F2E2AE093
:1039700030E0A3010E94A320C82EC6183FC0092D25
:10398000853721F40F7E2AE030E01DC0097F8F3695
:1039900091F018F4883559F0C3C0803719F0883792
:1039A00011F0BEC0006104FF09C0046007C094FEAE
:1039B00008C0066006C028E030E005C020E130E025
:1039C00002C020E132E0560107FF09C084E0A80EE2
:1039D000B11CF601608171818281938108C0F2E09F
:1039E000AF0EB11CF6016081718180E090E0A3010F
:1039F0000E94A320C82EC6180F77902E96FE0BC0EB
:103A0000092D0E7FC11650F494FE0AC092FC08C026
:103A1000092D0E7E05C0DC2C092D03C0DC2C01C055
:103A2000D12E04FF0DC0FE01EC0DF11D808180330D
:103A300011F4097E09C002FF06C0D394D39404C0D8
:103A4000802F867809F0D39403FD11C000FF06C0D3
:103A50001C2DD51480F4150D1D190DC0D51458F466
:103A6000B70180E290E00E94FB1FD394F7CFD514FA
:103A700010F45D1801C0512C04FF10C0B70180E3A1
:103A800090E00E94FB1F02FF17C001FD03C088E702
:103A900090E002C088E590E0B7010CC0802F8678E6
:103AA00059F001FF02C08BE201C080E207FD8DE208
:103AB000B70190E00E94FB1FC11638F4B70180E304
:103AC00090E00E94FB1F1150F7CFCA94F301EC0D58
:103AD000F11D8081B70190E00E94FB1FC110F5CF5E
:103AE00015C0F4E0F51560F584E0581A93FE1FC088
:103AF000011127C02C8523FF2AC004E512E0392DCF
:103B00003071932EF8018491811124C0552009F45D
:103B1000E4CCB70180E290E00E94FB1F5A94F6CFFC
:103B2000F7018681978126C08FEF9FEF23C0B701F1
:103B300080E290E00E94FB1F5A945110F8CFD8CF3A
:103B4000512CB701802F90E00E94FB1FD3CF08E5D6
:103B500012E0D5CF91108052B70190E00E94FB1F78
:103B60000F5F1F4FCFCF23E0251510F483E0BDCFAB
:103B7000512CC0CF6096CDBFDEBFDF91CF911F919A
:103B80000F91FF90EF90DF90CF90BF90AF909F90FC
:103B90008F907F906F905F904F903F902F900895FF
:103BA000A1E21A2EAA1BBB1BFD010DC0AA1FBB1F41
:103BB000EE1FFF1FA217B307E407F50720F0A21BB3
:103BC000B30BE40BF50B661F771F881F991F1A9420
:103BD00069F760957095809590959B01AC01BD014A
:103BE000CF010895E894DF93CF93FC01DB010E949D
:103BF000A11E7F936F93E9019A01AC01BF93AF932C
:103C00003F932F93DF010E94A11E26F46C1B7D0BB6
:103C1000820B930B9E01EB01FC010E94B01EAF9141
:103C2000BF912F913F910E94B01EBE01CF01F901BB
:103C30002F913F91CF91DF910895689401C0E8944E
:103C40008F929F92CF93DF930E942B1EDF91CF9193
:103C50009F908F90089588249924F401E401B0E4A2
:103C60009F93AA279A158B049C04ED05FE05CF05AA
:103C7000D007A10798F4AD2FDC2FCF2FFE2FE92D11
:103C8000982C892E982F872F762F652F542F432F0E
:103C9000322F2227B85031F7BF9127C01B2EBF917A
:103CA000BB27220F331F441F551F661F771F881F16
:103CB000991F881C991CEE1FFF1FCC1FDD1FAA1F18
:103CC000BB1F8A149B04EC05FD05CE05DF05A0078C
:103CD000B10748F08A189B08EC09FD09CE09DF09F5
:103CE000A00BB10B21601A94E1F62EF49401AF0100
:103CF000BE01CD01000C08950F93083090F0982F6D
:103D0000872F762F652F542F432F322F22270850CD
:103D1000F4CF220F331F441F551F661F771F881FC4
:103D2000991F0A95B2F70F9108950024A7FD0094FA
:103D30002A1730054005500560057005800590057F
:103D40000895A29FB001B39FC001A39F700D811D74
:103D50001124911DB29F700D811D1124911D089594
:103D60000E94A11E460F571FC81FD91F08F4319685
:103D70000895283008F027E03327DA01990F311D24
:103D800087FD916000966105710539F432602E5F00
:103D90003D9330E32A95E1F708959F3F30F0803856
:103DA0007105610509F03C5F3C5F3D93913008F07F
:103DB0008068911DDF93CF931F930F93FF92EF9233
:103DC000192F987F9695E92F96959695E90FFF27DD
:103DD000EA54FD4F99273327EE24FF24A701E7017A
:103DE00005900894079428F4360FE71EF81E491F23
:103DF000511D660F771F881F991F0694A1F7059024
:103E0000079428F4E70EF81E491F561FC11D770FAF
:103E1000881F991F661F0694A1F70590079428F440
:103E2000F80E491F561FC71FD11D880F991F661F07
:103E3000771F0694A1F70590079420F4490F561FA9
:103E4000C71FD81F990F661F771F881F0694A9F7F1
:103E500084911095177041F0D695C7955795479561
:103E6000F794E7941A95C1F7ECE5F2E068941590A1
:103E7000159135916591959105907FE27395E118C3
:103E8000F10A430B560BC90BD009C0F7E10CF11E28
:103E9000431F561FC91FD01D7EF4703311F48A953D
:103EA000E6CFE894015030F0080F0AF4002702171B
:103EB00008F4202F2395022F7A3328F079E37D939D
:103EC0002A95E9F710C07D932A9589F6069497956F
:103ED0006795379517951794E118F10A430B560B20
:103EE000C90BD00998F023957E9173957A3308F029
:103EF00070E37C932013B8F77E9170617D9330F06E
:103F0000839571E37D9370E32A95E1F71124EF9097
:103F1000FF900F911F91CF91DF91992787FD909589
:103F20000895FB01DC0102C005900D924150504004
:103F3000D8F70895FC010590615070400110D8F742
:103F4000809590958E0F9F1F0895FB01DC0102C0A4
:103F500001900D9241505040D8F70895FC016150F6
:103F6000704001900110D8F7809590958E0F9F1F9B
:103F70000895BB274A3031F4992322F4BDE290958D
:103F800081959F4F0C94C51FBB27FB015527AA277E
:103F9000880F991FAA1FA41710F0A41B83955051D6
:103FA000B9F7A05DAA3308F0A95DA193009779F74E
:103FB000B111B1931192CB010C9401210F931F9376
:103FC000CF93DF93CDB7DEB708851985F8018381DC
:103FD00088608383AE01445F5F4F6A857B85C8013B
:103FE0000E94301AF8012381277F2383DF91CF912C
:103FF0001F910F9108950F931F93CF93DF93FB01B0
:10400000238121FD03C08FEF9FEF2CC022FF16C03C
:1040100046815781248135814217530744F4A0819A
:10402000B1819D012F5F3F4F208331838C93268187
:1040300037812F5F3F4F2683378314C08B01EC01FC
:10404000FB010084F185E02D1995892BE1F6D8015B
:1040500016968D919C911797019616968D939C9329
:104060001797CE01DF91CF911F910F910895CF93B4
:10407000DF93CDB7DEB7AE014A5F5F4FFA016191C2
:104080007191AF0180918535909186350E94301AEB
:10409000DF91CF9108950F931F93CF93DF93CDB707
:1040A000DEB7AE01485F5F4FDA016D917D91AD01E2
:1040B00003E815E3F80182819381DC0113962C91CA
:1040C0001397286013962C930E94301AD8011296E9
:1040D000ED91FC9113972381277F2383DF91CF916B
:1040E0001F910F9108950F931F93CF93DF93E0914A
:1040F0008535F0918635238121FF1BC08C01D0E0EE
:10410000C0E0F80181918F0160918535709186350D
:10411000DB011896ED91FC911997882331F01995E0
:10412000892B79F3DFEFCFEFECCF8AE01995892B5C
:1041300019F08FEF9FEF02C08D2F9C2FDF91CF9151
:104140001F910F910895FA01AA27283051F12031CB
:1041500081F1E8946F936E7F6E5F7F4F8F4F9F4F1B
:10416000AF4FB1E03ED0B4E03CD0670F781F891F5D
:104170009A1FA11D680F791F8A1F911DA11D6A0F2B
:10418000711D811D911DA11D20D009F468943F91DE
:104190002AE0269F11243019305D3193DEF6CF01DD
:1041A0000895462F4770405D4193B3E00FD0C9F7A3
:1041B000F6CF462F4F70405D4A3318F0495D31FD10
:1041C0004052419302D0A9F7EACFB4E0A695979563
:1041D000879577956795BA95C9F700976105710539
:1041E00008959B01AC010A2E069457954795379583
:1041F0002795BA95C9F7620F731F841F951FA01DDD
:104200000895DC01FC01672F71917723E1F7329764
:1042100004C07C916D9370836291AE17BF07C8F3A1
:10422000089503D0808199270895E0ECF1E0378567
:1042300037FDFDCF348538603487FC01E050F04F06
:064240000895F894FFCF81
:104246000000000200000000F70200000000B303B7
:104256000000000000000000000000000000000058
:104266000000000000000000000000000000000048
:104276000000000000000000000000000000000038
:104286000000000000000000000000000000000028
:104296000000000000000000000000000000000018
:1042A6000000000000000000000000000000000008
:1042B60000000000000000000000000000000000F8
:1042C60000000000000000000000000000000000E8
:1042D60000000000000000000000000000000000D8
:1042E60000000000000000000000000000000000C8
:1042F60000000000000000000000000000000000B8
:1043060000000000000000000000000000000000A7
:104316000000000000000000000000000000000097
:104326000000000000000000000000000000000087
:104336000000000000000000000000000000000077
:104346000000000000000000000000000000000067
:104356000000000000000000000000000000000057
:104366000000000000000000000000000000000047
:104376000000000000000000000000000000000037
:104386000000000000000000000000000000000027
:104396000000000000000000000000000000000017
:1043A6000000000000000000000000000000000007
:1043B60000000000000000000000000000000000F7
:1043C60000000000000000000000000000000000E7
:1043D60000000000000000000000000000000000D7
:1043E600000000000000817F00080D0000000200B0
:1043F600000000721500000000000000020000002E
:10440600005F150000000000000002000000004CE4
:104416001500000000000000020000000039150031
:104426000000000000000200000000261500000049
:10443600000000000200000000131500000000004C
:104446000000020000000000150000000063045197
:10445600042F0465705F656D7074795F66756E63B1
:1044660021212100416464723A25640A0053656E75
:10447600642041434B206F75740073616D706C65E9
:10448600526174653A20256C642025642065703A73
:104496002025580A00556E6B2073657420706B6773
:1044A6003A2025530A0073657420696E7465726636
:1044B6006163652025782025780A0072617465207D
:1044C60073656E64656420256C642065703A2025EA
:1044D600780A00617564696F206F757420626D3AA1
:1044E60020257820623A2025780A006370752066B8
:1044F6007265712069733A20256C7520256C752CC0
:104506002025750A0053706B20656E00636C6B7313
:104516003A202575202575206D6D3A2025643B25AA
:10452600642073697A653A2025640A00646D612007
:1045360063616C6C20746F20736C6F77004D6963D8
:1045460020656E006D69632072657300626F6F741B
:08455600696E672025640A006C
:00000001FF
