:100000000C94A2020C94C3020C94C3020C94C3027D
:100010000C94C3020C94C3020C94A1110C944113D0
:100020000C94C3020C94C3020C94C3020C94C3023C
:100030000C94C3020C94C3020C94C3020C94C3022C
:100040000C94C3020C94C3020C94C3020C94C3021C
:100050000C94C3020C94C3020C94C3020C94C3020C
:100060000C94C3020C94C1170C94C3020C94C302E9
:100070000C94EE170C94C3020C94C3020C94C302AC
:100080000C94C3020C94C3020C94C3020C94C302DC
:100090000C94C3020C94C3020C94C3020C94C302CC
:1000A0000C94C3020C94C3020C94C3020C94C302BC
:1000B0000C94C3020C94C3020C94C3020C94C302AC
:1000C0000C94C3020C94C3020C94C3020C94C3029C
:1000D0000C94C3020C94C3020C94C3020C94C3028C
:1000E0000C94C3020C94C3020C9475180C94C302B4
:1000F0000C94C3020C94A2180C94C3020C94C30277
:100100000C94C3020C94C3020C94C3020C94C3025B
:100110000C94C3020C94C3020C94C3020C94C3024B
:100120000C94C3020C94C3020C94C3020C94C3023B
:100130000C94C3020C94C3020C94C3020C94C3022B
:100140000C94C3020C94C3020C94C3020C94C3021B
:100150000C94C3020C94C3020C94C3020C94C3020B
:100160000C941B180C94C3020C94C3020C944818F2
:100170000C94C3020C94C3020C94C3020C94C302EB
:100180000C94C3020C94C3020C94C3020C94C302DB
:100190000C94C3020C94C3020C94C3020C94C302CB
:1001A0000C94C3020C94C3020C94C3020C94C302BB
:1001B0000C94C3020C94C3020C94C3020C94C302AB
:1001C0000C94C3020C94C3020C94C3020C94C3029B
:1001D0000C94C3020C94C3020C94C3020C94CF1869
:1001E0000C94C3020C94C3020C94C3020C94C3027B
:1001F0000C94C3020C9488060C9401060C945C09C0
:100200000C9402150C94B8090C94E7100C9411038B
:100210000C94D60A0C94C5020C9428150C94501713
:100220000C9433030C944B0B0C9415150C94EF1495
:100230000C940C030C94FC020C943B150C940009D8
:100240000C94DC140C940D030C944E150C94FE02CB
:100250006E616E00696E660000407A10F35A00A06D
:10026000724E18090010A5D4E80000E8764817007F
:1002700000E40B54020000CA9A3B000000E1F505BF
:10028000000080969800000040420F000000A08609
:1002900001000000102700000000E803000000003B
:1002A0006400000000000A000000000001000000DF
:1002B00000002C76D888DC674F0823DFC1DFAE59F9
:1002C000E1B1B796E5E3E453C63AE651997696E88C
:1002D000E6C28426EB898C9B62ED407C6FFCEFBC10
:1002E0009C9F40F2BAA56FA5F490055A2AF75C933B
:1002F0006B6CF9676DC11BFCE0E40D47FEF520E671
:10030000B500D0ED902E0300943577050080841E53
:10031000080000204E0A000000C80C333333330FAE
:10032000986E12831141EF8D2114893BE65516CF4B
:10033000FEE6DB18D1844B381BF77C1D901DA4BB57
:10034000E424203284725E228100C9F124ECA1E50C
:100350003D27506572666F726D65642072657365C6
:10036000740A007374616C6C0A006F660A0042754F
:10037000736576656E742000496E76616C696420E1
:1003800065703A2025642C206D61783A2025640A36
:1003900000496E76616C69642065703A2025642C92
:1003A000206D61783A2025640A004164647200552A
:1003B0006E6B6E6F776E00536574436F6E66696720
:1003C0000A00476574636F6E6669670A0067657443
:1003D00044657363726970746F723A202564207388
:1003E000697A653A2025640A005365744164647231
:1003F0006573733A2025640A005365744665617419
:1004000075726500676574207374617475730A0092
:100410006765745374617475730053657474696EA1
:100420006720616464722025640A0012034D005342
:10043000004600540031003000300022000000204F
:100440000341007500640069006F00200041006DE9
:100450000070006C006900660069006500720000B1
:100460000010034D006100730074006500720051BC
:10047000000000040309040902700002010080FA70
:1004800009040000000101000009240100011E0010
:1004900001010C24020101010002030000000924F3
:1004A0000302010300010009040100000102000031
:1004B00009040101010102000007240101010100FA
:1004C0001724020102021005401F00112B002256C2
:1004D0000044AC0080BB000905010D0001010000D3
:1004E00007250101000000120100020000004099F0
:1004F0009937130001010200015553415254204E17
:100500006F7420617661696C61626C65206F722026
:100510006E6F742070726F76696465640A0055535B
:10052000415254204E6F7420617661696C61626C37
:1005300065206F72206E6F742070726F76696465CB
:10054000640A000011241FBECFEFCDBFDFE5DEBF80
:1005500000E00CBF13E2A0E0B0E2EAE0F2E400E069
:100560000BBF02C007900D92A238B107D9F724E360
:10057000A2E8B3E201C01D92AB3EB207E1F70E94D0
:10058000BF190C9403210C940000AAE9B3E2119660
:10059000EC91119791E09E0F11969C93F0E0E65636
:1005A000FC4D828380E090E0089510C0E0918223AA
:1005B000F0918323A0919A2381E08A0F80939A235C
:1005C000B0E0A656BC4D12968C91199590919A2345
:1005D00080919B239813EACF089520E030E2209386
:1005E000E7343093E8348093822390938323EAE9BD
:1005F000F3E211821082089580E00895E0E1F0E2D4
:1006000080858D79808780919C2490919D24809312
:10061000F8209093F9200895089584E592E20C94CF
:100620005520809102218F77E0ECF4E08383809164
:100630009F249091A0248093FA209093FB208FEA2E
:1006400093E080930E2090930F2083811F928F93CD
:1006500085E692E29F938F930E9419200F900F904E
:100660000F900F900895089522E02093CA01EAE1C7
:10067000F0E0E491E093FA042093CA01EBE1F0E0AA
:10068000E491E093FB041092CA016115710509F42D
:1006900069C0009709F44FC060930B2170930C213F
:1006A0008093092190930A2182E48093C80483E017
:1006B0008093C9048091FE209091FF20892BF1F155
:1006C0008091FC209091FD20892B09F444C088E1A1
:1006D00090E28093C6049093C7041092C3041092D2
:1006E000182083E48093192088EB90E280931C20EB
:1006F00090931D2082E08093202083E68093212028
:1007000088E390E280932420909325208CE093E06E
:100710008093FA209093FB2083E393E08093F8206A
:100720009093F92081EE8093C0048091C104816090
:100730008093C10408958CEF92E0AECF8DE093E0FA
:100740008093FE209093FF208091FC209091FD20CB
:10075000892B09F0BCCF8DE093E08093FC2090932F
:10076000FD20B5CF6CEF72E094CFE8EFF0E280812E
:10077000918180939C2490939D248EEF92E08083BE
:1007800091838EE692E20C9455200F938AEA93E0CF
:1007900080930E2090930F20E0E1F0E280858D7829
:1007A000808780858160808780898160808BAAEFC7
:1007B000B0E28D919C91119780939F249093A024F7
:1007C00081E193E08D939C93168A178A80E090E8EC
:1007D000828B938BE0E2F0E202E606930F9108959C
:1007E000E0E1F0E280858D78808780858160808778
:1007F00080898160808B0895E0E1F0E280858D79C9
:1008000080870895A0ECB4E088E190E216968D937D
:100810009C93179713961C921397E0E1F0E21086D1
:1008200083E4818788EB90E28487958782E0808BE0
:1008300083E6818B88E390E2848B958B8CE093E058
:100840008093FA209093FB2083E393E08093F82039
:100850009093F92081EE8C9311968C911197816081
:1008600011968C930895CF92DF92EF92FF920F939F
:100870001F93823008F072C0E114F10409F494C0AF
:10088000C114D10409F495C090E0FC01E295F29501
:10089000F07FFE27E07FFE27DF01A05FBF4D1C96A3
:1008A0004D935C931D970930110598F519962C937B
:1008B000199732E018963C93189754966D937C9351
:1008C0005597E05FFF4D218BFC01E295F295F07F9B
:1008D000FE27E07FFE27E05EFF4D22E02083FC0143
:1008E000EE0FFF1FEE0FFF1FE650FF4DE082F1827B
:1008F000880F991F880F991FFC01E850FF4DC08297
:10090000D18281E01F910F91FF90EF90DF90CF9007
:10091000089501311105D8F10132110508F44EC0D6
:100920000134110508F457C00138110508F460C0FE
:10093000013031E0130708F468C00130124008F0BC
:1009400066C0266019962C93199732E018963C934E
:10095000189754966D937C935597B3CF1F9292E05E
:100960009F931F928F9381E993E09F938F930E94AF
:100970002D200F900F900F900F900F900F9080E010
:100980001F910F91FF90EF90DF90CF90089521601D
:1009900019962C93199732E018963C931897549611
:1009A0006D937C9355978DCF9DE0E92E93E0F92EC2
:1009B00067CFBDE0CB2EB3E0DB2E66CF2260199669
:1009C0002C93199732E018963C93189754966D9390
:1009D0007C93559776CF236019962C93199732E024
:1009E00018963C93189754966D937C93559769CFBE
:1009F000246019962C93199732E018963C93189717
:100A000054966D937C9355975CCF25604FCF2760AC
:100A100019962C93199732E018963C931897549690
:100A20006D937C9355974DCFEF92FF920F931F9349
:100A3000823008F067C0E114F10409F482C00115A6
:100A4000110509F483C090E0FC01EE0FFF1FEE0FCB
:100A5000FF1FE650FF4DE082F182FC01EE0FFF1F09
:100A6000EE0FFF1FE850FF4D00831183DC01A295BC
:100A7000B295B07FBA27A07FBA27FD01E05FFF4D96
:100A8000648775871286138629303105D8F420EFE4
:100A900021871086448B558B128A138AA05FBF4D25
:100AA00051962C9382959295907F9827807F9827D6
:100AB000FC01E05EFF4D108281E01F910F91FF90DD
:100AC000EF90089521313105A0F12132310508F46C
:100AD00040C02134310508F444C02138310508F400
:100AE00048C0213061E0360708F44BC02130324065
:100AF00008F04FC026EF21871086448B558B128A51
:100B0000138ACCCF1F9292E09F931F928F9388E716
:100B100093E09F938F930E942D200F900F900F9042
:100B20000F900F900F9080E01F910F91FF90EF902A
:100B3000089521EF21871086448B558B128A138AE2
:100B4000ADCF9DE0E92E93E0F92E79CF0DE013E0D3
:100B50007ACF22EF21871086448B558B128A138A15
:100B60009DCF23EF21871086448B558B128A138AE1
:100B700095CF24EF21871086448B558B128A138AD8
:100B80008DCF25EF21871086448B558B128A138ACF
:100B900085CF27EF21871086448B558B128A138AC5
:100BA0007DCF0F93E0E1F0E2168A178A90E090681B
:100BB000828B938BE0E2F0E202E606930F910895B8
:100BC0000F93E8E1F0E202E706930F9108950F9387
:100BD000E0E1F0E281858460818781898460818B96
:100BE000E8E1F0E200E606930F910895AB01109260
:100BF000CA01BC0188E390E20E94731F88E390E27F
:100C000008951F920F920FB60F9211240BB60F92F8
:100C10000F931F932F933F934F935F936F937F9304
:100C20008F939F93AF93BF93CF93DF93EF93FF93F4
:100C30008091CC0481FF3CC0E091C5048091C60442
:100C40009091C704EE0FFF0BE80FF91F008111818F
:100C50008091C6049091C704E801C81BD90BD695B2
:100C6000C795D695C795D695C795C43008F047C0A7
:100C7000DD27CC0FDD1FC850DF4DE881F981C801A9
:100C80001995FF91EF91DF91CF91BF91AF919F9116
:100C90008F917F916F915F914F913F912F911F9114
:100CA0000F910F900BBE0F900FBE0F901F901895D5
:100CB0008091CC0480FFE5CF81E08093CC04C8E133
:100CC000D0E2FE0100E3069388E0E8EBF0E2A0E06A
:100CD000B1E201900D928A95E1F70E944B078111D4
:100CE000D0CF809119208460809319208091212099
:100CF000846080932120FE0100E60693C2CF8BE73B
:100D000092E29F938F930E9419200F900F90B0CF83
:100D10001F920F920FB60F9211240BB60F922F93C2
:100D20003F934F935F936F937F938F939F93AF9373
:100D3000BF93EF93FF938EE693E09F938F930E9470
:100D40002D208091CA040F900F9087FD7FC0809165
:100D5000CA048E7009F05FC08091CA0480FD6AC029
:100D600080E78093CA048091C20480FD13C0FF9184
:100D7000EF91BF91AF919F918F917F916F915F9113
:100D80004F913F912F910F900BBE0F900FBE0F9080
:100D90001F9018958091C2048E7F8093C20488E1D1
:100DA00090E28093C6049093C7041092C3041092FB
:100DB000182083E48093192088EB90E280931C2014
:100DC00090931D2082E08093202083E68093212051
:100DD00088E390E280932420909325208CE093E098
:100DE0008093FA209093FB2083E393E08093F82094
:100DF0009093F92081EE8093C0048091C1048160BA
:100E00008093C10482E593E09F938F930E942D20ED
:100E10000F900F90ACCF8EE08093CA048AE693E0E7
:100E20009F938F930E942D200F900F908091CA0462
:100E300080FF96CF81E08093CA0483E693E09F937E
:100E40008F930E942D200F900F9091CF80E8809378
:100E5000CA047DCF809100218076D9F48091012150
:100E6000853011F081E00895809102218F77809381
:100E7000C3048091C3041F928F938AE194E09F93EF
:100E80008F930E942D200F900F900F900F9081E074
:100E9000089580E00895FF920F931F93CF93DF93FF
:100EA0001F921F92CDB7DEB780910021807609F0A6
:100EB00065C080910121853009F497C008F442C0D3
:100EC000883009F4ADC0893009F486C0863009F055
:100ED00055C060910221F090032119821A82AE015F
:100EE0004F5F5F4F8F2D0E944E08009709F4C6C0D8
:100EF00069817A816115710509F4C0C020910621CC
:100F0000309107218C012817390708F4A3C080E22B
:100F10006833780729F0A80188E390E20E94871FD0
:100F2000802F0E94D1050E94E0050138110508F0CC
:100F300093C081E00F900F90DF91CF911F910F919F
:100F4000FF900895813069F150F510923820109289
:100F5000392080E194E080930E2090930F200E942E
:100F6000F00382E00E94D10584E094E09F938F9388
:100F70000E942D200F900F9081E0DCCF0E94C408CA
:100F8000811105C0E0910921F0910A2119950F9076
:100F90000F90DF91CF911F910F91FF9008958330B3
:100FA00069F789EF93E080930E2090930F200E94C1
:100FB000F00380910F208F9380910E208F930E94D9
:100FC0002D200F900F9081E00F900F90DF91CF9127
:100FD0001F910F91FF90089580910221909103211C
:100FE000019709F44FC080E0D2CF0E94C5038091E1
:100FF00003218F93809102218F9389EE93E09F9339
:101000008F930E942D200F900F900F900F9081E0F2
:101010000F900F90DF91CF911F910F91FF90089546
:1010200082EC93E09F938F930E942D208091082162
:10103000809338200E94F00381E00E94D1050F9038
:101040000F9081E00F900F90DF91CF911F910F9142
:10105000FF90089589015BCF1F930F931F92FF921A
:101060008DEC93E09F938F930E942D200F900F9013
:101070000F900F900F900F9081E05CCF0E94E705DA
:1010800081E058CF80E00E94D105809102218093B9
:1010900008210E94E00587EB93E068CF0F931F9330
:1010A000CF93DF938A01823031F18330B9F0813000
:1010B00081F0C0E0D0E080E090E0BE010E94F60543
:1010C000F80180839183CE01DF91CF911F910F9121
:1010D0000895C2E1D0E087EE94E0EFCF613099F05F
:1010E00078F06230B1F06E3E89F48BE294E0FC015E
:1010F000C491D0E0E2CFC0E7D0E087E794E0DDCF55
:1011000083E794E0F4CF81E694E0F1CF80E090E0D3
:10111000EECF8FE394E0EBCF089591E0823008F0BA
:1011200090E0892F08950895CF93DF938091042153
:10113000909105218530910511F1049721F080E00F
:10114000DF91CF91089538E220E06CE272E2809165
:10115000062190910721C32FD22F8C179D0708F4E9
:10116000EC01AE0188E390E20E94871F8C2F0E9461
:10117000D1050E94E00581E0DF91CF91089532EB27
:1011800020E068E771E2E3CFCF93DF938091002105
:101190008F7131F0813021F080E0DF91CF9108959F
:1011A000809101218232C1F7809104219091052123
:1011B00085309105E1F0049779F788E290E06CE2E0
:1011C00072E2C0910621D09107218C179D0708F487
:1011D000EC01AE0188E390E20E94871F8C2F0E94F1
:1011E000D1050E94E00581E0DF91CF91089582EB67
:1011F00090E068E771E2E5CF0895089580E00895F2
:1012000040913220509133206091D0346D5F6F70E7
:10121000262F30E08091D23490E001968F7099278C
:101220002817390769F18091D53490E0FC01EE0F61
:10123000FF1F982F8827E80FF91FEF55FA4D4083BD
:1012400051836093D5348091D0348F5F8F708093B9
:10125000D034C901880F991F322F2227280F391F38
:101260002F553B4D2093342030933520109232205F
:101270001092332080912820897880932820089527
:101280008091D2341F928F931F926F9389E992E2DB
:101290009F938F930E941920109232201092332036
:1012A000809128208978809328200F900F900F90AC
:1012B0000F900F900F90089540912A2050912B206D
:1012C0006091D0346D5F6F70262F30E08091D23402
:1012D00090E001968F7099272817390769F180915E
:1012E000D63490E0FC01EE0FFF1F982F8827E80FFF
:1012F000F91FEF55FA4D408351836093D6348091A6
:10130000D0348F5F8F708093D034C901880F991FBC
:10131000322F2227280F391F2F553B4D20932C2089
:1013200030932D2010922A2010922B20809128207B
:1013300089788093282008958091D2341F928F93CA
:101340001F926F938FEA92E29F938F930E941920CE
:1013500010922A2010922B20809128208978809347
:1013600028200F900F900F900F900F900F900895DE
:101370002F923F924F925F926F927F928F929F92A5
:10138000AF92BF92CF92DF92EF92FF920F931F9393
:10139000CF93DF93CDB7DEB72E97CDBFDEBFFC0175
:1013A0002281338112821382809128208978809350
:1013B000282020902009309021098091C1349091FB
:1013C000C234803AFFE09F07E0F5409196235091A8
:1013D000972301968093C1349093C234811502E023
:1013E000900708F448C04101841A950A409192235D
:1013F000509193236091942370919523480D511D32
:10140000611D711D40939223509393236093942305
:101410007093952340908E2350908F23609090235B
:1014200070909123420E531E611C711C40928E23BA
:1014300050928F236092902370929123803A9F4024
:1014400059F120929623309297232E96CDBFDEBF7E
:10145000DF91CF911F910F91FF90EF90DF90CF9090
:10146000BF90AF909F908F907F906F905F904F90C4
:101470003F902F90089510929223109293231092F0
:1014800094231092952310928E2310928F23109202
:10149000902310929123D5CFCB01BA012AE0660F99
:1014A000771F881F991F2A95D1F72091C834309152
:1014B000C9344091CA345091CB3429873A874B873D
:1014C0005C870E94D41DECE5F9E0E093FC20F093EA
:1014D000FD20E0E0F9E0E093FE20F093FF206301BF
:1014E0005201D694C794B794A7947601650156012A
:1014F0006701E12CF12C8701A982BA82CB82DC82C0
:10150000ED82FE820F831887E12CF12C00E010E0C1
:101510000E94011E152F6901E42EF52EC092C434DD
:10152000D092C534E092C634F092C734C701B601F8
:1015300029853A854B855C850E94B21D2150310971
:101540002093CC343093CD341092CE341092CF34DB
:1015500081E08093C334D701C601975FA24CBF4F8F
:10156000BC01CD01660F771F881F991F20E034E270
:1015700044EF50E00E94B21D215031092093A6088B
:101580003093A70899249F928F927F926F925F92D7
:101590004F921F93EF92DF92CF9285EC92E29F934E
:1015A0008F930E941920CDBFDEBF4BCF0F931F93A7
:1015B000CF93DF93EC018A819B819F938F938FED73
:1015C00092E29F938F930E9419208A819B810F90B2
:1015D0000F900F900F90039729F0DF91CF911F91FB
:1015E0000F9108952091BA208091B92090E0A0E059
:1015F000B0E0BA2FA92F982F8827A22B2091B820CE
:10160000822B8093C8349093C934A093CA34B0938A
:10161000CB3480E00E94D1050E94E005C091C8341F
:10162000D091C9341091CA340091CB346091C43444
:101630007091C5348091C6349091C7349E01412F7A
:10164000502F0E94B21D215031092093CC34309389
:10165000CD348091CC349091CD349F938F930F9360
:101660001F93DF93CF938BEE92E29F938F930E9411
:1016700019208091CC349091CD348093360890938A
:1016800037088DB79EB708968DBF9EBFDF91CF916B
:101690001F910F9108952F923F924F925F926F92F8
:1016A0007F928F929F92AF92BF92CF92DF92EF92F2
:1016B000FF920F931F93CF93DF93CDB7DEB72E9793
:1016C000CDBFDEBFFC012281338112821382809163
:1016D00028208978809328202090200930902109A3
:1016E0008091C1349091C234803AFFE09F07E0F5C9
:1016F00040918C2350918D2301968093C134909317
:10170000C234811502E0900708F448C04101841AF0
:10171000950A409192235091932360919423709164
:101720009523480D511D611D711D409392235093C7
:101730009323609394237093952340908E2350902D
:101740008F236090902370909123420E531E611C52
:10175000711C40928E2350928F236092902370923E
:101760009123803A9F4059F120928C2330928D230F
:101770002E96CDBFDEBFDF91CF911F910F91FF90CD
:10178000EF90DF90CF90BF90AF909F908F907F9021
:101790006F905F904F903F902F90089510929223FA
:1017A00010929323109294231092952310928E23DB
:1017B00010928F231092902310929123D5CFCB01BA
:1017C000BA012AE0660F771F881F991F2A95D1F763
:1017D0002091C8343091C9344091CA345091CB34EF
:1017E00029873A874B875C870E94D41DECE5F9E096
:1017F000E093FC20F093FD20E0E0F9E0E093FE2090
:10180000F093FF2063015201D694C794B794A79434
:101810007601650156016701E12CF12C8701A9824F
:10182000BA82CB82DC82ED82FE820F831887E12CA4
:10183000F12C00E010E00E94011E152F6901E42E3A
:10184000F52EC092C434D092C534E092C634F092E2
:10185000C734C701B60129853A854B855C850E944E
:10186000B21D215031092093CC343093CD341092E5
:10187000CE341092CF3481E08093C334D701C601B7
:10188000975FA24CBF4FBC01CD01660F771F881F29
:10189000991F20E034E244EF50E00E94B21D215035
:1018A00031092093A6083093A70899249F928F921C
:1018B0007F926F925F924F921F93EF92DF92CF923F
:1018C00085EC92E29F938F930E941920CDBFDEBFDB
:1018D0004BCF8FEF92E29F938F930E9419200F902E
:1018E0000F9008958FEF92E29F938F930E9419209B
:1018F0000F900F900895E0E8F1E080EC808310866F
:10190000E0E2F3E08CE0808380E4818381E0828305
:101910009081916090838383E0E0F8E0808310A25F
:1019200011A228EB3BE026A337A316821182E0E048
:10193000F1E094E8908326E2208B92E3918B20A340
:1019400091A3838B83A39BE3948F83E0858F168E73
:10195000128E94A785A716A612A680E490E0848B29
:10196000958B168A84A395A316A28AED828B82A3F7
:101970000895EF92FF920F931F931092C13410922B
:10198000C2348FE08093D0348093D1348093D234AA
:101990001092D4341092CE341092CF341092D634A8
:1019A00081E08093D5348091C33481116FC08BE482
:1019B000E82E8BE0F82E08EB19E020E031E043EA56
:1019C00055E261EA74E281E00E94140580EC8093A4
:1019D0008001109288018CE08093200380E4809342
:1019E000210381E0809322039091200391609093E2
:1019F0002003809323038093000810922008109204
:101A0000210828EB3BE0209326083093270810920A
:101A100006081092010894E89093000126E22093B2
:101A2000100192E3909311012093200190932101E2
:101A300080931301809323019BE390931C0183E027
:101A400080931D0110921E0110921A0190932C0197
:101A500080932D0110922E0110922A0180E490E0D3
:101A60008093140190931501109216018093240124
:101A700090932501109226018AED809312018093A4
:101A800022011F910F91FF90EF90089590E0E92EB1
:101A900099E0F92E0CE519E090CFE1EAF5E2108229
:101AA00011821082118210821182108211821082A2
:101AB0001182108211821082118210821182108292
:101AC0001182108211821082118210821182108282
:101AD000118210821182108211821082118280E89C
:101AE0009BEBA0E0B0E08093C8349093C934A093FE
:101AF000CA34B093CB341092C33480E098E4A8EE9B
:101B0000B1E08093C4349093C534A093C634B093AD
:101B1000C73489E992E08093CC349093CD340E940D
:101B2000B90CE0E0F9E010A211A28FEF9FEF86A3BD
:101B300097A387E080831182168208958F929F92E7
:101B4000AF92BF92CF92DF92EF92FF920F931F93CB
:101B5000CF93DF938091D4348823F1F190911001D9
:101B600080912001892B87FD0BC08091D134209179
:101B7000D23490E0821B91098F7099270897CCF599
:101B80009091D1348091D034981731F14091D13473
:101B90004F5F4F70842F90E0FC01EE0FFF1F982FD6
:101BA0008827E80FF91FEF55FB4DDF01B3958D91A5
:101BB0009C911197892B71F020E030E08081805852
:101BC00080832E5F3F4F8D919C91119732962817FD
:101BD0003907A0F34093D134DF91CF911F910F913A
:101BE000FF90EF90DF90CF90BF90AF909F908F903D
:101BF00008958091D2348F5F8F70C82FD0E08E010E
:101C0000000F111FDC2FCC2798012C0F3D1F2F55E3
:101C10003B4DF901F395408151814093140150935C
:101C200015012093180130931901909111019061D1
:101C3000909311019091D034891B8F702091CE34F4
:101C40003091CF34232B09F44AC120910F214091C8
:101C5000CE345091CF34409384235093852398EF12
:101C6000980F92170CF465C120910E2129170CF4DE
:101C700066C19F3F0CF466C192307CF08950409160
:101C8000CE345091CF34209112218202400D511D4B
:101C900011244093842350938523943084F0892F1A
:101CA000990F990B05976FE0689F9001699F300D20
:101CB0001124420F531F4093842350938523409354
:101CC00036085093370820918623309187232F5F61
:101CD0003F4F2093862330938723C0908823D09052
:101CE0008923E0908A23F0908B23C40ED51EE11C3B
:101CF000F11CC0928823D0928923E0928A23F0922B
:101D00008B2380911021909111212817390709F414
:101D1000DFC18091D2348E5F8F70C82FD0E08E01EA
:101D2000000F111FDC2FCC27A8014C0F5D1F4F5552
:101D30005B4DFA01F395608171816093240170938A
:101D40002501409328015093290190912101906130
:101D5000909321019091D034891B8F706091CE3483
:101D60007091CF346115710509F488C060910F211D
:101D70004091CE345091CF344093842350938523A7
:101D800098EF980F96170CF40BC260910E2169170B
:101D90000CF4D2C09F3F0CF401C192307CF089500A
:101DA0004091CE345091CF34609112218602400D83
:101DB000511D112440938423509385239430E4F0E3
:101DC000892F990F990B05976FE0689F9001699F84
:101DD000300D1124420F531F4093842350938523C9
:101DE0002091862330918723C0908823D090892327
:101DF000E0908A23F0908B23409336085093370865
:101E00002F5F3F4F2093862330938723C701B6016E
:101E1000640F751F811D911D609388237093892322
:101E200080938A2390938B2340911021509111210C
:101E30002417350709F4EBC080911101806380936A
:101E400011018091210180638093210183E38093BC
:101E500003011092200810922108809110018068DF
:101E6000809310018091000180688093000190911F
:101E7000D1348091D034981389CEAECE2091CC3419
:101E80003091CD342093CE343093CF349DE0909375
:101E9000122120E038E0209310213093112110927C
:101EA00088231092892310928A2310928B231092F8
:101EB00086231092872391E890930E214091CE348F
:101EC0005091CF34409384235093852398EF980FFB
:101ED000C12CD12C760190930F219B015BCF2091D7
:101EE000CC343091CD342093CE343093CF349DE038
:101EF0009093122120E038E020931021309311219B
:101F0000109288231092892310928A2310928B2397
:101F1000109286231092872391E890930E2140918E
:101F2000CE345091CF34409384235093852398EF3F
:101F3000980F90930F219DCE90930E212BCF9093CD
:101F40000E2197CEA091CE34B091CF34292F092EF7
:101F5000000C330BF901319680911221682FAF01EB
:101F600064037001659FF00C1124AD014E0D5F1DDF
:101F700040938423509385239D3F0CF08ECE2B5F9E
:101F80003F4F6FE0629FC001639F900D1124480F87
:101F9000591F409384235093852391CE8090CE3453
:101FA0009090CF34A92E092E000CBB08D5011196B4
:101FB00080911221682FAD016403F001659FF00D3F
:101FC0001124A4014E0F5F1F409384235093852357
:101FD0009D3F0CF0F3CEB5016B5F7F4F2FE0269F46
:101FE000C001279F900D1124480F591F409384234F
:101FF000509385232091862330918723C090882396
:10200000D0908923E0908A23F0908B23F5CE40E096
:1020100050E00E94B21D2093CE343093CF34F801AB
:10202000EC0FFD1FEF55FA4D208131818091CE34A8
:102030009091CF343F932F9320910E21422F022E67
:10204000000C550B5F932F9320910F21422F022EEE
:10205000000C550B5F932F9320911221422F022EDB
:10206000000C550B5F932F939F938F9388E093E21F
:102070009F938F930E94192080911021909111219C
:102080002DB73EB7245F3F4F2DBF3EBF883632E4A9
:10209000930788F420911221235020931221880F56
:1020A000991F80931021909311218FE780930F2126
:1020B00081E880930E211092882310928923109238
:1020C0008A2310928B231092862310928723B4CEFA
:1020D00040E050E0C701B6010E94B21D2093CE340B
:1020E0003093CF34F801EC0FFD1FEF55FA4D2081EE
:1020F00031818091CE349091CF343F932F932091B2
:102100000E21422F022E000C550B5F932F9320912E
:102110000F21422F022E000C550B5F932F9320911D
:102120001221422F022E000C550B5F932F939F9389
:102130008F9388E093E29F938F930E941920809160
:102140001021909111212DB73EB7245F3F4F2DBF35
:102150003EBF883632E4930788F420911221235041
:1021600020931221880F991F8093102190931121A1
:102170008FE780930F2181E880930E2110928823AE
:102180001092892310928A2310928B231092862317
:1021900010928723C12CD12C760120E030E0B9CDFC
:1021A000B90199CEE0E0F1E081898063818B81A162
:1021B000806381A383E38383109220081092210817
:1021C00080898068808B8081806880830895EF9209
:1021D000FF920F931F93CF93809101218B3009F4CD
:1021E0004CC0813839F18130C9F0909100211F92A3
:1021F0008F931F929F938DE493E29F938F930E94FE
:1022000019200F900F900F900F900F900F9080E07B
:10221000CF911F910F91FF90EF9008958091002131
:10222000823209F469C080E0CF911F910F91FF9035
:10223000EF90089590910021923AC9F620910421DF
:102240002130A9F620910321213089F68091C834EC
:102250009091C9342091CA3420933A209093392028
:10226000809338200E94F00383E00E94D1058AE326
:1022700093E20E94552081E0CBCFC0910021C13074
:1022800091F68091022190910321892B09F448C095
:102290008091C33481113DC08BE4E82E8BE0F82E91
:1022A00008EB19E020E031E043EA55E261EA74E22C
:1022B00081E00E941405809128208978809328204D
:1022C0001092D33481E08093D43480E00E94D10511
:1022D0000E94F003809103218F93809102218F93BC
:1022E00088E293E29F938F930E9419200F900F90A2
:1022F0000F900F9081E08CCF86ED9AE08093F820CC
:102300009093F92080E00E94D1050E94F00381E0C3
:102310007FCF90E0E92E99E0F92E0CE519E0C2CFCD
:102320000E94B90CC093D3341092D4348091100120
:102330008F7780931001809120018F778093200107
:10234000C4CF1F920F920FB60F9211240BB60F92AB
:10235000EF92FF920F931F932F933F934F935F93AF
:102360006F937F938F939F93AF93BF93CF93DF939D
:10237000EF93FF938091110180618093110180910F
:10238000D1342091D23490E0821B91098F7099272B
:102390000397CCF4FF91EF91DF91CF91BF91AF9173
:1023A0009F918F917F916F915F914F913F912F916D
:1023B0001F910F91FF90EF900F900BBE0F900FBEEB
:1023C0000F901F9018958091D2348D5F8F70C82F19
:1023D000D0E08E01000F111FDC2FCC2798012C0FAD
:1023E0003D1F2F553B4DF901F3954081518140939D
:1023F0001401509315012093180130931901909105
:1024000011019061909311019091D034891B8F70CC
:102410002091CE343091CF34232B09F472C0209117
:102420000F214091CE345091CF3440938423509368
:10243000852398EF980F92170CF48DC020910E21F0
:10244000291714F490930E219F3F0CF489C0923009
:102450007CF089504091CE345091CF34209112219C
:102460008202400D511D11244093842350938523F3
:10247000943084F0892F990F990B05976FE0689F2E
:102480009001699F300D1124420F531F4093842304
:102490005093852340933608509337082091862324
:1024A000309187232F5F3F4F2093862330938723DC
:1024B0008091882390918923A0918A23B0918B23C6
:1024C000BC01CD01640F751F811D911D6093882390
:1024D0007093892380938A2390938B2340911021BA
:1024E000509111212417350709F466C0809110011D
:1024F00087FDC2C08091D2348F5F8F708093D234B9
:1025000049CF2091CC343091CD342093CE343093C8
:10251000CF349DE09093122120E038E020931021E9
:1025200030931121109288231092892310928A23CC
:1025300010928B23109286231092872391E8909318
:102540000E214091CE345091CF3440938423509348
:10255000852398EF980F90930F219F3F0CF077CF32
:10256000A091CE34B091CF34292F092E000C330B1B
:10257000F901319680911221682FAF016403700137
:10258000659FF00C1124AD014E0D5F1D4093842317
:10259000509385239D3F0CF06BCF2B5F3F4F6FE037
:1025A000629FC001639F900D1124480F591F4093F3
:1025B0008423509385236ECF40E050E00E94B21DEB
:1025C0002093CE343093CF34C00FD11FCF55DA4D86
:1025D000288139818091CE349091CF343F932F93CD
:1025E00020910E21422F022E000C550B5F932F934A
:1025F00020910F21422F022E000C550B5F932F9339
:1026000020911221422F022E000C550B5F932F9325
:102610009F938F9388E093E29F938F930E9419205A
:1026200080911021909111212DB73EB7245F3F4F2B
:102630002DBF3EBF883632E4930788F420911221E3
:10264000235020931221880F991F8093102190937B
:1026500011218FE780930F2181E880930E21109242
:1026600088231092892310928A2310928B23109230
:102670008623109287233ACF85E693E20E94552065
:1026800089CE1F920F920FB60F9211240BB60F92A4
:10269000EF92FF920F931F932F933F934F935F936C
:1026A0006F937F938F939F93AF93BF93CF93DF935A
:1026B000EF93FF93809121018061809321018091AC
:1026C000D1342091D23490E0821B91098F709927E8
:1026D0000397CCF4FF91EF91DF91CF91BF91AF9130
:1026E0009F918F917F916F915F914F913F912F912A
:1026F0001F910F91FF90EF900F900BBE0F900FBEA8
:102700000F901F9018958091D2348D5F8F70C82FD5
:10271000D0E08E01000F111FDC2FCC2798012C0F69
:102720003D1F2F553B4DF901F39540815181409359
:102730002401509325012093280130932901909181
:1027400021019061909321019091D034891B8F7069
:102750002091CE343091CF34232B09F472C02091D4
:102760000F214091CE345091CF3440938423509325
:10277000852398EF980F92170CF48DC020910E21AD
:10278000291714F490930E219F3F0CF489C09230C6
:102790007CF089504091CE345091CF342091122159
:1027A0008202400D511D11244093842350938523B0
:1027B000943084F0892F990F990B05976FE0689FEB
:1027C0009001699F300D1124420F531F40938423C1
:1027D00050938523409336085093370820918623E1
:1027E000309187232F5F3F4F209386233093872399
:1027F0008091882390918923A0918A23B0918B2383
:10280000BC01CD01640F751F811D911D609388234C
:102810007093892380938A2390938B234091102176
:10282000509111212417350709F466C080912001C9
:1028300087FD50CF8091D2348F5F8F708093D234D8
:1028400049CF2091CC343091CD342093CE34309385
:10285000CF349DE09093122120E038E020931021A6
:1028600030931121109288231092892310928A2389
:1028700010928B23109286231092872391E89093D5
:102880000E214091CE345091CF3440938423509305
:10289000852398EF980F90930F219F3F0CF077CFEF
:1028A000A091CE34B091CF34292F092E000C330BD8
:1028B000F901319680911221682FAF0164037001F4
:1028C000659FF00C1124AD014E0D5F1D40938423D4
:1028D000509385239D3F0CF06BCF2B5F3F4F6FE0F4
:1028E000629FC001639F900D1124480F591F4093B0
:1028F0008423509385236ECF40E050E00E94B21DA8
:102900002093CE343093CF34C00FD11FCF55DA4D42
:10291000288139818091CE349091CF343F932F9389
:1029200020910E21422F022E000C550B5F932F9306
:1029300020910F21422F022E000C550B5F932F93F5
:1029400020911221422F022E000C550B5F932F93E2
:102950009F938F9388E093E29F938F930E94192017
:1029600080911021909111212DB73EB7245F3F4FE8
:102970002DBF3EBF883632E4930788F420911221A0
:10298000235020931221880F991F80931021909338
:1029900011218FE780930F2181E880930E211092FF
:1029A00088231092892310928A2310928B231092ED
:1029B0008623109287233ACF8A3049F09091A1085C
:1029C00095FFFCCF8093A00880E090E0089590915F
:1029D000A10895FFFCCF9DE09093A008EFCF8A302F
:1029E00049F09091B10895FFFCCF8093B00880E04A
:1029F00090E008959091B10895FFFCCF9DE09093F1
:102A0000B008EFCF8A3049F09091A10995FFFCCF33
:102A10008093A00980E090E008959091A10995FF2E
:102A2000FCCF9DE09093A009EFCF8A3049F09091C0
:102A3000B10995FFFCCF8093B00980E090E0089544
:102A40009091B10995FFFCCF9DE09093B009EFCF35
:102A50008A3049F09091A10A95FFFCCF8093A00A9B
:102A600080E090E008959091A10A95FFFCCF9DE051
:102A70009093A00AEFCF8A3049F09091B10A95FF68
:102A8000FCCF8093B00A80E090E008959091B10A65
:102A900095FFFCCF9DE09093B00AEFCF8A3049F0CC
:102AA0009091A10B95FFFCCF8093A00B80E090E06C
:102AB00008959091A10B95FFFCCF9DE09093A00B02
:102AC000EFCFCF92EF920F931F93CF93DF93EC0151
:102AD000C03B89E0D80709F4C6C030F1C03B8AE0AA
:102AE000D80709F499C0C03A8BE0D80709F47AC036
:102AF000C03A8AE0D80709F49CC08EE195E09F9324
:102B00008F938091EA348F938091E9348F930E9460
:102B1000C01F0F900F900F900F90DF91CF911F91DA
:102B20000F91EF90CF900895C03B88E0D80709F44B
:102B30008DC0C03A89E0D80709F461C0C03A88E086
:102B4000D807D9F684E08093420688E08093410656
:102B50000093DF341093E03407E611E22B83DB01AE
:102B6000CA019E5EA548BF4F880F991FAA1FBB1FB1
:102B7000880F991FAA1FBB1F880F991FAA1FBB1F71
:102B8000440F551F661F771F440F551F661F771F81
:102B90009A01AB01220F331F441F551F220F331F11
:102BA000441F551FBC01CD010E94B21D21503109A7
:102BB0002E833F838CE18C8383E08D83EE2021F094
:102BC0000093E7341093E834CC2009F4A6CF0093A7
:102BD000E9341093EA34DF91CF911F910F91EF9078
:102BE000CF90089584E08093820688E080938106E8
:102BF0000093D9341093DA3403E111E2AFCF84E0CB
:102C00008093620688E0809361060093DD34109320
:102C1000DE340BE411E2A2CF80E48093820680E8E8
:102C2000809381060093DB341093DC3401E211E2DF
:102C300095CF84E08093820688E08093810600939C
:102C4000E1341093E2340FE211E288CF80E4809304
:102C5000420680E8809341060093E3341093E43405
:102C600009E511E27BCF80E48093620680E88093DF
:102C700061060093D7341093D8340DE311E26ECF80
:102C8000FC016A3029F0918195FFFDCF60830895A2
:102C9000818185FFFDCF8DE08083F5CFFC0191819F
:102CA00095FFFDCF608308950F931F93CF93DF931C
:102CB000CDB7DEB72A97CDBFDEBF8C01CB014AE08E
:102CC000BE016F5F7F4F0E949B1F9981992379F00E
:102CD000FE0132962DE09A3091F0D80111968C9138
:102CE000119785FFFACF9C9391919111F4CF2A9679
:102CF000CDBFDEBFDF91CF911F910F910895D80115
:102D000011968C91119785FFFACF2C93E6CFFC0199
:102D1000DB012C91222359F011963DE02A3041F03D
:102D2000918195FFFDCF20832D912111F7CF08953B
:102D3000818185FFFDCF3083F3CFFC014115510523
:102D400059F0DB01460F571F8D91918195FFFDCF03
:102D50008083A417B507C1F70895FF920F931F93BF
:102D6000CF93DF93EC018B01CB010E94F3208823EA
:102D700079F09DE0F92E8A3089F0998195FFFDCF99
:102D800088830F5F1F4FC8010E94F3208111F3CF8A
:102D9000DF91CF911F910F91FF900895998195FF39
:102DA000FDCFF882EACFDC01FB012491222369F0F8
:102DB0003DE02A3059F011969C91119795FFFBCF79
:102DC0002C93319624912111F4CF089511968C9172
:102DD000119785FFFBCF3C93EECFFC01918197FFCC
:102DE000FDCF80810895AF92BF92CF92DF92EF9294
:102DF000FF920F931F93CF93DF93FC01F22ED32FFB
:102E0000C42FB52FA62ED72E80E4E82E90E3C92E2E
:102E100021E3B22E98014F2D5D2F6C2F7B2F8A2D31
:102E20009D2DA0E00E94771E1CF1818185FFFDCFC2
:102E3000C08298014F2D5D2F6C2F7B2F8A2D9D2DE9
:102E400001E00E945E1E8901F42ED52FC62FB72FF8
:102E5000A82ED92EEA94E110DDCFDF91CF911F91FA
:102E60000F91FF90EF90DF90CF90BF90AF900895BB
:102E7000818185FFFDCFB082DCCFFC0128E030E30B
:102E800041E367FD08C0918195FFFDCF3083660F58
:102E90002150B9F70895818185FFFDCF4083F7CF99
:102EA0008A3039F09091A10895FFFCCF8093A0085B
:102EB00008959091A10895FFFCCF9DE09093A00804
:102EC000F1CF803B29E0920709F454C0E8F0803B41
:102ED000FAE09F07D1F1803A2BE0920741F1803A66
:102EE000EAE09E07C9F189EF94E09F938F93809168
:102EF000EA348F938091E9348F930E94C01F0F9022
:102F00000F900F900F900895803BF8E09F0759F1C4
:102F1000803A29E0920791F0803AE8E09E0719F79D
:102F20004093DF345093E034FC0163830895409371
:102F3000D9345093DA34FC01638308954093DD342F
:102F40005093DE34FC01638308954093DB34509347
:102F5000DC34FC01638308954093E1345093E23400
:102F6000FC01638308954093E3345093E434FC01FF
:102F7000638308954093D7345093D834FC0163831E
:102F800008951F920F920FB60F9211240BB60F9255
:102F90002F933F934F935F936F937F938F939F9361
:102FA000AF93BF93EF93FF938091A008E091DF343C
:102FB000F091E0341995FF91EF91BF91AF919F91FE
:102FC0008F917F916F915F914F913F912F910F90D2
:102FD0000BBE0F900FBE0F901F9018951F920F926F
:102FE0000FB60F9211240BB60F922F933F934F936E
:102FF0005F936F937F938F939F93AF93BF93EF9361
:10300000FF938091B008E091E334F091E434199596
:10301000FF91EF91BF91AF919F918F917F916F91B0
:103020005F914F913F912F910F900BBE0F900FBE6C
:103030000F901F9018951F920F920FB60F921124A8
:103040000BB60F922F933F934F935F936F937F93A2
:103050008F939F93AF93BF93EF93FF938091A009BA
:10306000E091DD34F091DE341995FF91EF91BF913D
:10307000AF919F918F917F916F915F914F913F9110
:103080002F910F900BBE0F900FBE0F901F901895B1
:103090001F920F920FB60F9211240BB60F922F931F
:1030A0003F934F935F936F937F938F939F93AF93D0
:1030B000BF93EF93FF938091B009E091D734F091E3
:1030C000D8341995FF91EF91BF91AF919F918F9156
:1030D0007F916F915F914F913F912F910F900BBE18
:1030E0000F900FBE0F901F9018951F920F920FB662
:1030F0000F9211240BB60F922F933F934F935F9330
:103100006F937F938F939F93AF93BF93EF93FF93AF
:103110008091A00AE091E134F091E2341995FF9199
:10312000EF91BF91AF919F918F917F916F915F913F
:103130004F913F912F910F900BBE0F900FBE0F90AC
:103140001F9018951F920F920FB60F9211240BB675
:103150000F922F933F934F935F936F937F938F9330
:103160009F93AF93BF93EF93FF938091B00AE09149
:10317000DB34F091DC341995FF91EF91BF91AF9161
:103180009F918F917F916F915F914F913F912F917F
:103190000F900BBE0F900FBE0F901F9018951F92AF
:1031A0000F920FB60F9211240BB60F922F933F93ED
:1031B0004F935F936F937F938F939F93AF93BF933F
:1031C000EF93FF938091A00BE091D934F091DA3422
:1031D0001995FF91EF91BF91AF919F918F917F9141
:1031E0006F915F914F913F912F910F900BBE0F9078
:1031F0000FBE0F901F9018950F931BBEFC0108ED9A
:1032000004BF60830F9108950F93809150008860F0
:10321000809350008091510083FFFCCF1BBE23E0C0
:1032200080E490E0FC0108ED04BF20830F91089535
:103230000F9394E09093560092E09093CA01EDE1D1
:10324000F0E0E491E09362009093CA01ECE1F0E0D9
:10325000E491E09363001092CA019BE190936500B2
:1032600097EB9093660091E09093600090915000EE
:1032700097601BBE20E530E0F90108ED04BF9083A4
:103280009091510097709730D9F71BBE93E024E4DA
:1032900030E0F90108ED04BF908380688093550009
:1032A0001BBE21E081E490E0FC0108ED04BF208317
:1032B0008091500080611BBE20E530E0F90108EDEF
:1032C00004BF80838091510084FFFCCF81E0809314
:1032D00060001BBE24E080E490E0FC0108ED04BF28
:1032E00020830F9108950F9394E09093560092E0FD
:1032F0009093CA01ECE1F0E0E491E0936300109256
:10330000CA019BE19093650097EB9093660091E072
:10331000909360001BBE97E020E530E0F90108EDD6
:1033200004BF90839091510096709630D9F78093A6
:1033300055001BBE20E081E490E0FC0108ED04BFD5
:10334000208381E0809368008091500080611BBEE3
:1033500020E530E0F90108ED04BF80838091510041
:1033600084FFFCCF1BBE24E080E490E0FC0108ED6C
:1033700004BF208383E0809344000F91089580E18F
:103380000E94731981E08093B40080E88093410625
:103390002FEF8FE19EE4215080409040E1F700C084
:1033A0000000CC24C394E12C00E010E020E040E4D5
:1033B00052E46FE070E080EA98E00E94611580E5D9
:1033C00097E10E94ED028091A20087608093A200A5
:1033D0008FEF809381068091CC041F928F9386E7B4
:1033E00093E29F938F930E9419202FEF87EA91E633
:1033F000215080409040E1F700C000000E94D502BB
:1034000060E070E087EE90E10E9434030E944D0D71
:1034100078940F900F900F900F900E94D5020E9409
:103420009E0DFBCF2F923F924F925F926F927F92B1
:103430008F929F92AF92BF92CF92DF92EF92FF92C4
:103440000F931F93CF93DF93CDB7DEB76097CDBFB8
:10345000DEBF7C011B016A01FC0116821782838199
:1034600081FF44C39E012F5F3F4F3901F7019381D4
:10347000F10193FD859193FF81911F01882309F448
:1034800031C3853239F493FD859193FF81911F01FA
:10349000853239F4B70190E00E94DD1F56016501C5
:1034A000E5CF10E0512C912CFFE1F915D8F08B32CB
:1034B00079F038F4803279F08332A1F4F92DF0619B
:1034C0002EC08D3261F0803369F4292D21602DC02A
:1034D000392D3260932E892D8460982E2AC0E92DD3
:1034E000E86015C097FC2DC020ED280F2A3088F425
:1034F00096FE06C03AE0139F200D1124122F19C02A
:103500008AE0589E200D1124522EE92DE0629E2E55
:1035100010C08E3231F496FCE5C2F92DF0649F2E76
:1035200008C08C3621F4292D2068922E02C08836DE
:1035300041F4F10193FD859193FF81911F01811168
:10354000B3CF9BEB980F933020F4992D9061805E60
:1035500007C09BE9980F933008F066C1992D9F7EB4
:1035600096FF16E09F73992E853619F49064992E74
:1035700008C0863621F4392F3068932E02C011110D
:10358000115097FE07C01C3350F444244394410E5D
:1035900027E00BC0183038F027E017E005C027E01F
:1035A0009CE3492E02C0212F412C560184E0A80E35
:1035B000B11CF6016081718182819381042DA30188
:1035C0000E949B1E6C01F981FC87F0FF02C0F3FF93
:1035D00006C091FC06C092FE06C000E205C00DE2E6
:1035E00003C00BE201C000E08C858C7019F0011162
:1035F0005AC29BC297FE10C04C0CFC85F4FF04C05D
:103600008A81813309F44A94141474F528E024154E
:1036100078F588E0482E2CC096FC2AC0812F90E0D7
:103620008C159D059CF03CEFC3163FEFD30674F05C
:10363000892D8068982E0AC0E2E0F0E0EC0FFD1FB3
:10364000E10FF11D8081803319F411501111F4CF75
:1036500097FE0EC044244394410E812F90E0C8167B
:10366000D9062CF41C1904C04424439401C010E072
:1036700097FE06C01C141D0434F4C601019605C053
:1036800085E090E002C081E090E0011101961123F5
:1036900031F0212F30E02F5F3F4F820F931F252DF8
:1036A00030E08217930714F4581A01C0512C892D69
:1036B000897049F4552039F0B70180E290E00E940A
:1036C000DD1F5A94F7CF002329F0B701802F90E037
:1036D0000E94DD1F93FC09C0552039F0B70180E33B
:1036E00090E00E94DD1F5A94F7CF97FE4CC0460130
:1036F000D7FE02C0812C912CC60188199909F301CB
:10370000E80FF91FED87FE879601241931092F87ED
:10371000388B012F10E01195019511093FEF8316A9
:10372000930629F4B7018EE290E00E94DD1FC814D1
:10373000D9044CF08F8598898815990524F4ED8576
:10374000FE85818101C080E3F1E08F1A91082D850B
:103750003E852F5F3F4F2D873E87801691062CF0C8
:10376000B70190E00E94DD1FD9CFC814D90441F4FD
:103770009A81963320F4953319F43C8534FF81E324
:10378000B70190E04EC08A81813319F09C859F7EFD
:103790009C87B70190E00E94DD1F111105C094FCC9
:1037A00018C085E690E017C0B7018EE290E00E9455
:1037B000DD1F1E5F82E001E0080FF301E80FF11D3D
:1037C0008081B70190E00E94DD1F802F0113F3CFAD
:1037D000E6CF85E490E0B7010E94DD1FD7FC06C06C
:1037E000C114D10441F4EC85E4FF05C0D194C19427
:1037F000D1088DE201C08BE2B70190E00E94DD1F8D
:1038000080E32AE0C216D1042CF08F5FFAE0CF1AD1
:10381000D108F7CFB70190E00E94DD1FB701C601C4
:10382000C0960E94DD1F54C1833631F0833779F092
:10383000833509F056C020C0560132E0A30EB11CFA
:10384000F6018081898301E010E0630112C0560116
:10385000F2E0AF0EB11CF601C080D18096FE03C02D
:10386000612F70E002C06FEF7FEFC6010E94901FD2
:103870008C01F92DFF7714C0560122E0A20EB11C75
:10388000F601C080D18096FE03C0612F70E002C0B7
:103890006FEF7FEFC6010E947C1F8C01F92DF0684D
:1038A0009F2EF3FD1AC0852D90E008171907A8F484
:1038B000B70180E290E00E94DD1F5A94F4CFF60138
:1038C00097FC859197FE81916F01B70190E00E946E
:1038D000DD1F51105A94015011090115110579F796
:1038E000F7C0843611F0893661F5560197FE09C09C
:1038F00024E0A20EB11CF601608171818281938166
:103900000AC0F2E0AF0EB11CF60160817181072E92
:10391000000C880B990BF92DFF769F2E97FF09C09D
:1039200090958095709561957F4F8F4F9F4FF06870
:103930009F2E2AE030E0A3010E948520C82EC618E1
:103940003FC0092D853721F40F7E2AE030E01DC0ED
:10395000097F8F3691F018F4883559F0C3C080374D
:1039600019F0883711F0BEC0006104FF09C004607F
:1039700007C094FE08C0066006C028E030E005C01D
:1039800020E130E002C020E132E0560107FF09C02B
:1039900084E0A80EB11CF60160817181828193815F
:1039A00008C0F2E0AF0EB11CF6016081718180E0C9
:1039B00090E0A3010E948520C82EC6180F77902E94
:1039C00096FE0BC0092D0E7FC11650F494FE0AC05E
:1039D00092FC08C0092D0E7E05C0DC2C092D03C009
:1039E000DC2C01C0D12E04FF0DC0FE01EC0DF11D39
:1039F0008081803311F4097E09C002FF06C0D39490
:103A0000D39404C0802F867809F0D39403FD11C0AD
:103A100000FF06C01C2DD51480F4150D1D190DC016
:103A2000D51458F4B70180E290E00E94DD1FD394D2
:103A3000F7CFD51410F45D1801C0512C04FF10C04D
:103A4000B70180E390E00E94DD1F02FF17C001FD77
:103A500003C088E790E002C088E590E0B7010CC0A1
:103A6000802F867859F001FF02C08BE201C080E20E
:103A700007FD8DE2B70190E00E94DD1FC11638F40A
:103A8000B70180E390E00E94DD1F1150F7CFCA9488
:103A9000F301EC0DF11D8081B70190E00E94DD1F64
:103AA000C110F5CF15C0F4E0F51560F584E0581AA3
:103AB00093FE1FC0011127C02C8523FF2AC000E5FB
:103AC00012E0392D3071932EF8018491811124C0B8
:103AD000552009F4E4CCB70180E290E00E94DD1F9C
:103AE0005A94F6CFF7018681978126C08FEF9FEF1A
:103AF00023C0B70180E290E00E94DD1F5A9451106C
:103B0000F8CFD8CF512CB701802F90E00E94DD1F55
:103B1000D3CF04E512E0D5CF91108052B70190E0E9
:103B20000E94DD1F0F5F1F4FCFCF23E0251510F43C
:103B300083E0BDCF512CC0CF6096CDBFDEBFDF91FB
:103B4000CF911F910F91FF90EF90DF90CF90BF909A
:103B5000AF909F908F907F906F905F904F903F902D
:103B60002F900895A1E21A2EAA1BBB1BFD010DC0C8
:103B7000AA1FBB1FEE1FFF1FA217B307E407F5071D
:103B800020F0A21BB30BE40BF50B661F771F881FF9
:103B9000991F1A9469F760957095809590959B018F
:103BA000AC01BD01CF010895E894DF93CF93FC01F0
:103BB000DB010E94831E7F936F93E9019A01AC01A0
:103BC000BF93AF933F932F93DF010E94831E26F490
:103BD0006C1B7D0B820B930B9E01EB01FC010E9481
:103BE000921EAF91BF912F913F910E94921EBE01F4
:103BF000CF01F9012F913F91CF91DF910895689402
:103C000001C0E8948F929F92CF93DF930E940D1E84
:103C1000DF91CF919F908F90089588249924F4018B
:103C2000E401B0E49F93AA279A158B049C04ED0548
:103C3000FE05CF05D007A10798F4AD2FDC2FCF2FBD
:103C4000FE2FE92D982C892E982F872F762F652F00
:103C5000542F432F322F2227B85031F7BF9127C05E
:103C60001B2EBF91BB27220F331F441F551F661FFA
:103C7000771F881F991F881C991CEE1FFF1FCC1FE0
:103C8000DD1FAA1FBB1F8A149B04EC05FD05CE0592
:103C9000DF05A007B10748F08A189B08EC09FD0969
:103CA000CE09DF09A00BB10B21601A94E1F62EF4C6
:103CB0009401AF01BE01CD01000C08950F930830AF
:103CC00090F0982F872F762F652F542F432F322F68
:103CD00022270850F4CF220F331F441F551F661FA1
:103CE000771F881F991F0A95B2F70F910895002436
:103CF000A7FD00942A1730054005500560057005A2
:103D0000800590050895A29FB001B39FC001A39FB5
:103D1000700D811D1124911DB29F700D811D112404
:103D2000911D08950E94831E460F571FC81FD91F5B
:103D300008F431960895283008F027E03327DA0197
:103D4000990F311D87FD916000966105710539F469
:103D500032602E5F3D9330E32A95E1F708959F3F4F
:103D600030F080387105610509F03C5F3C5F3D93A0
:103D7000913008F08068911DDF93CF931F930F93CC
:103D8000FF92EF92192F987F9695E92F9695969529
:103D9000E90FFF27EE54FD4F99273327EE24FF2428
:103DA000A701E70105900894079428F4360FE71E51
:103DB000F81E491F511D660F771F881F991F069413
:103DC000A1F70590079428F4E70EF81E491F561F27
:103DD000C11D770F881F991F661F0694A1F70590D4
:103DE000079428F4F80E491F561FC71FD11D880FCE
:103DF000991F661F771F0694A1F70590079420F47A
:103E0000490F561FC71FD81F990F661F771F881F9E
:103E10000694A9F784911095177041F0D695C7952F
:103E200057954795F794E7941A95C1F7E8E5F2E0BE
:103E300068941590159135916591959105907FE263
:103E40007395E118F10A430B560BC90BD009C0F763
:103E5000E10CF11E431F561FC91FD01D7EF47033A5
:103E600011F48A95E6CFE894015030F0080F0AF477
:103E70000027021708F4202F2395022F7A3328F009
:103E800079E37D932A95E9F710C07D932A9589F609
:103E9000069497956795379517951794E118F10A49
:103EA000430B560BC90BD00998F023957E9173955F
:103EB0007A3308F070E37C932013B8F77E91706139
:103EC0007D9330F0839571E37D9370E32A95E1F75C
:103ED0001124EF90FF900F911F91CF91DF919927BF
:103EE00087FD90950895FB01DC0102C005900D92BD
:103EF00041505040D8F70895FC0105906150704042
:103F00000110D8F7809590958E0F9F1F0895FB01A3
:103F1000DC0102C001900D9241505040D8F7089545
:103F2000FC016150704001900110D8F78095909588
:103F30008E0F9F1F0895BB274A3031F4992322F436
:103F4000BDE2909581959F4F0C94A71FBB27FB0165
:103F50005527AA27880F991FAA1FA41710F0A41B82
:103F600083955051B9F7A05DAA3308F0A95DA193DC
:103F7000009779F7B111B1931192CB010C94E32022
:103F80000F931F93CF93DF93CDB7DEB708851985C5
:103F9000F801838188608383AE01445F5F4F6A8547
:103FA0007B85C8010E94121AF8012381277F238391
:103FB000DF91CF911F910F9108950F931F93CF938E
:103FC000DF93FB01238121FD03C08FEF9FEF2CC006
:103FD00022FF16C04681578124813581421753073D
:103FE00044F4A081B1819D012F5F3F4F2083318335
:103FF0008C93268137812F5F3F4F2683378314C0F0
:104000008B01EC01FB010084F185E02D1995892BD2
:10401000E1F6D80116968D919C9117970196169608
:104020008D939C931797CE01DF91CF911F910F91A4
:104030000895CF93DF93CDB7DEB7AE014A5F5F4FF0
:10404000FA0161917191AF018091E7349091E83468
:104050000E94121ADF91CF9108950F931F93CF936F
:10406000DF93CDB7DEB7AE01485F5F4FDA016D91E8
:104070007D91AD0105EE14E3F80182819381DC01AD
:1040800013962C911397286013962C930E94121A62
:10409000D8011296ED91FC9113972381277F2383FA
:1040A000DF91CF911F910F9108950F931F93CF939D
:1040B000DF93E091E734F091E834238121FF1BC0C6
:1040C0008C01D0E0C0E0F80181918F016091E7346C
:1040D0007091E834DB011896ED91FC9119978823D3
:1040E00031F01995892B79F3DFEFCFEFECCF8AE030
:1040F0001995892B19F08FEF9FEF02C08D2F9C2F00
:10410000DF91CF911F910F910895FA01AA272830CE
:1041100051F1203181F1E8946F936E7F6E5F7F4F94
:104120008F4F9F4FAF4FB1E03ED0B4E03CD0670F10
:10413000781F891F9A1FA11D680F791F8A1F911D63
:10414000A11D6A0F711D811D911DA11D20D009F4B3
:1041500068943F912AE0269F11243019305D3193F5
:10416000DEF6CF010895462F4770405D4193B3E0DE
:104170000FD0C9F7F6CF462F4F70405D4A3318F085
:10418000495D31FD4052419302D0A9F7EACFB4E036
:10419000A6959795879577956795BA95C9F70097EE
:1041A0006105710508959B01AC010A2E069457958F
:1041B000479537952795BA95C9F7620F731F841FE6
:1041C000951FA01D0895DC01FC01672F71917723D5
:1041D000E1F7329704C07C916D9370836291AE17C2
:1041E000BF07C8F3089503D0808199270895E0ECB4
:1041F000F1E0378537FDFDCF348538603487FC0129
:0A420000E050F04F0895F894FFCF4E
:10420A000000000200000000C50200000000AF0329
:10421A000000000000000000000000000000000094
:10422A000000000000000000000000000000000084
:10423A000000000000000000000000000000000074
:10424A000000000000000000000000000000000064
:10425A000000000000000000000000000000000054
:10426A000000000000000000000000000000000044
:10427A000000000000000000000000000000000034
:10428A000000000000000000000000000000000024
:10429A000000000000000000000000000000000014
:1042AA000000000000000000000000000000000004
:1042BA0000000000000000000000000000000000F4
:1042CA0000000000000000000000000000000000E4
:1042DA0000000000000000000000000000000000D4
:1042EA0000000000000000000000000000000000C4
:1042FA0000000000000000000000000000000000B4
:10430A000000000000000000000000000000817FA3
:10431A0000080D00000002000000004E1500000019
:10432A000000000002000000003B15000000000031
:10433A000000020000000028150000000000000034
:10434A000200000000151500000000000000020035
:10435A00000000021500000000000000020000003A
:10436A0000EF14000000000000000200000000DC62
:10437A001400000000000000B20000000001050067
:10438A0002008400000001000000280044006500CB
:10439A00760069006300650049006E0074006500DC
:1043AA00720066006100630065004700550049001D
:1043BA00440000004E0000007B00640031006500EC
:1043CA00660035006100620061002D003500300092
:1043DA00360061002D0034006500630036002D00B0
:1043EA0039003400610066002D00320038003000C8
:1043FA00660039006500610064003800320064001C
:10440A0035007D00000024000000010000000C00BF
:10441A004C006100620065006C0000000A000000A8
:10442A00580052004E00470000000000280000001B
:10443A0000010400010000000000000000015749CB
:10444A004E5553420000000000000000000000002A
:10445A000000000065705F656D7074795F66756E47
:10446A006321212100416464723A25640A0053657C
:10447A006E642041434B206F757400657020636140
:10448A006C6C6261636B206F7574206F6620726159
:10449A006E67652121212121006F766572312077AF
:1044AA00623A2025642C206C663A2025640A006F43
:1044BA00766572302077623A2025642C206C663A41
:1044CA002025640A0063707520667265712069731D
:1044DA003A20256C7520256C752C2025750A0065F7
:1044EA007020636E743A2025640A0073616D706CE3
:1044FA0065526174653A20256C642025640A00417E
:10450A007564696F20696E00636C6B733A20257558
:10451A00202575206D6D3A2025643B25642073693A
:10452A007A653A2025640A0073657420696E746599
:10453A0072666163652025640A0053616D706C655B
:10454A0020726174652073656E64656400617564C8
:10455A00696F206F757420626D3A20257820623A5F
:10456A002025780A00646D612063616C6C20746F89
:10457A0020736C6F7700626F6F74696E67202564B1
:02458A000A0025
:00000001FF
